{
  "contractName": "Crowdfunding",
  "abi": [
    {
      "anonymous": false,
      "inputs": [
        {
          "indexed": true,
          "internalType": "uint256",
          "name": "projectId",
          "type": "uint256"
        },
        {
          "indexed": true,
          "internalType": "address",
          "name": "contributor",
          "type": "address"
        },
        {
          "indexed": false,
          "internalType": "uint256",
          "name": "amount",
          "type": "uint256"
        }
      ],
      "name": "ContributionMade",
      "type": "event"
    },
    {
      "anonymous": false,
      "inputs": [
        {
          "indexed": true,
          "internalType": "uint256",
          "name": "projectId",
          "type": "uint256"
        },
        {
          "indexed": false,
          "internalType": "uint256",
          "name": "amount",
          "type": "uint256"
        }
      ],
      "name": "FundsReleased",
      "type": "event"
    },
    {
      "anonymous": false,
      "inputs": [
        {
          "indexed": true,
          "internalType": "uint256",
          "name": "projectId",
          "type": "uint256"
        },
        {
          "indexed": true,
          "internalType": "address",
          "name": "owner",
          "type": "address"
        },
        {
          "indexed": false,
          "internalType": "string",
          "name": "name",
          "type": "string"
        },
        {
          "indexed": false,
          "internalType": "uint256",
          "name": "goal",
          "type": "uint256"
        },
        {
          "indexed": false,
          "internalType": "uint256",
          "name": "deadline",
          "type": "uint256"
        }
      ],
      "name": "ProjectCreated",
      "type": "event"
    },
    {
      "anonymous": false,
      "inputs": [
        {
          "indexed": true,
          "internalType": "uint256",
          "name": "projectId",
          "type": "uint256"
        },
        {
          "indexed": true,
          "internalType": "address",
          "name": "contributor",
          "type": "address"
        },
        {
          "indexed": false,
          "internalType": "uint256",
          "name": "amount",
          "type": "uint256"
        }
      ],
      "name": "RefundIssued",
      "type": "event"
    },
    {
      "inputs": [
        {
          "internalType": "uint256",
          "name": "",
          "type": "uint256"
        },
        {
          "internalType": "address",
          "name": "",
          "type": "address"
        }
      ],
      "name": "contributions",
      "outputs": [
        {
          "internalType": "uint256",
          "name": "",
          "type": "uint256"
        }
      ],
      "stateMutability": "view",
      "type": "function"
    },
    {
      "inputs": [],
      "name": "projectCount",
      "outputs": [
        {
          "internalType": "uint256",
          "name": "",
          "type": "uint256"
        }
      ],
      "stateMutability": "view",
      "type": "function"
    },
    {
      "inputs": [
        {
          "internalType": "uint256",
          "name": "",
          "type": "uint256"
        }
      ],
      "name": "projects",
      "outputs": [
        {
          "internalType": "uint256",
          "name": "id",
          "type": "uint256"
        },
        {
          "internalType": "address payable",
          "name": "owner",
          "type": "address"
        },
        {
          "internalType": "string",
          "name": "name",
          "type": "string"
        },
        {
          "internalType": "string",
          "name": "description",
          "type": "string"
        },
        {
          "internalType": "uint256",
          "name": "goal",
          "type": "uint256"
        },
        {
          "internalType": "uint256",
          "name": "amountRaised",
          "type": "uint256"
        },
        {
          "internalType": "uint256",
          "name": "deadline",
          "type": "uint256"
        },
        {
          "internalType": "bool",
          "name": "isOpen",
          "type": "bool"
        }
      ],
      "stateMutability": "view",
      "type": "function"
    },
    {
      "inputs": [
        {
          "internalType": "string",
          "name": "name",
          "type": "string"
        },
        {
          "internalType": "string",
          "name": "description",
          "type": "string"
        },
        {
          "internalType": "uint256",
          "name": "goal",
          "type": "uint256"
        },
        {
          "internalType": "uint256",
          "name": "duration",
          "type": "uint256"
        }
      ],
      "name": "createProject",
      "outputs": [],
      "stateMutability": "nonpayable",
      "type": "function"
    },
    {
      "inputs": [
        {
          "internalType": "uint256",
          "name": "projectId",
          "type": "uint256"
        }
      ],
      "name": "contribute",
      "outputs": [],
      "stateMutability": "payable",
      "type": "function"
    },
    {
      "inputs": [
        {
          "internalType": "uint256",
          "name": "projectId",
          "type": "uint256"
        }
      ],
      "name": "releaseFunds",
      "outputs": [],
      "stateMutability": "nonpayable",
      "type": "function"
    },
    {
      "inputs": [
        {
          "internalType": "uint256",
          "name": "projectId",
          "type": "uint256"
        }
      ],
      "name": "refund",
      "outputs": [],
      "stateMutability": "nonpayable",
      "type": "function"
    }
  ],
  "bytecode": "0x608060405234801561000f575f80fd5b5061183d8061001d5f395ff3fe60806040526004361061006f575f3560e01c80633d891f591161004d5780633d891f59146101085780634d68282f1461014457806394ba97091461016c578063c1cbbca7146101945761006f565b8063107046bd14610073578063278ecde1146100b657806336fbad26146100de575b5f80fd5b34801561007e575f80fd5b5061009960048036038101906100949190610b5c565b6101b0565b6040516100ad989796959493929190610c79565b60405180910390f35b3480156100c1575f80fd5b506100dc60048036038101906100d79190610b5c565b61032a565b005b3480156100e9575f80fd5b506100f2610594565b6040516100ff9190610d03565b60405180910390f35b348015610113575f80fd5b5061012e60048036038101906101299190610d57565b61059a565b60405161013b9190610d03565b60405180910390f35b34801561014f575f80fd5b5061016a60048036038101906101659190610b5c565b6105ba565b005b348015610177575f80fd5b50610192600480360381019061018d9190610ec1565b6107bf565b005b6101ae60048036038101906101a99190610b5c565b61095d565b005b5f602052805f5260405f205f91509050805f015490806001015f9054906101000a900473ffffffffffffffffffffffffffffffffffffffff16908060020180546101f990610f8a565b80601f016020809104026020016040519081016040528092919081815260200182805461022590610f8a565b80156102705780601f1061024757610100808354040283529160200191610270565b820191905f5260205f20905b81548152906001019060200180831161025357829003601f168201915b50505050509080600301805461028590610f8a565b80601f01602080910402602001604051908101604052809291908181526020018280546102b190610f8a565b80156102fc5780601f106102d3576101008083540402835291602001916102fc565b820191905f5260205f20905b8154815290600101906020018083116102df57829003601f168201915b505050505090806004015490806005015490806006015490806007015f9054906101000a900460ff16905088565b5f805f8381526020019081526020015f20905080600601544211610383576040517f08c379a000000000000000000000000000000000000000000000000000000000815260040161037a9061102a565b60405180910390fd5b80600401548160050154106103cd576040517f08c379a00000000000000000000000000000000000000000000000000000000081526004016103c4906110b8565b60405180910390fd5b5f60015f8481526020019081526020015f205f3373ffffffffffffffffffffffffffffffffffffffff1673ffffffffffffffffffffffffffffffffffffffff1681526020019081526020015f20541161045b576040517f08c379a000000000000000000000000000000000000000000000000000000000815260040161045290611146565b60405180910390fd5b5f60015f8481526020019081526020015f205f3373ffffffffffffffffffffffffffffffffffffffff1673ffffffffffffffffffffffffffffffffffffffff1681526020019081526020015f205490505f60015f8581526020019081526020015f205f3373ffffffffffffffffffffffffffffffffffffffff1673ffffffffffffffffffffffffffffffffffffffff1681526020019081526020015f20819055503373ffffffffffffffffffffffffffffffffffffffff166108fc8290811502906040515f60405180830381858888f1935050505015801561053f573d5f803e3d5ffd5b503373ffffffffffffffffffffffffffffffffffffffff16837f7a482fdeb6bc9a1376f597068a214a7a39472bb2eff1b8cad21ba04f49ddca1b836040516105879190610d03565b60405180910390a3505050565b60025481565b6001602052815f5260405f20602052805f5260405f205f91509150505481565b5f805f8381526020019081526020015f209050806001015f9054906101000a900473ffffffffffffffffffffffffffffffffffffffff1673ffffffffffffffffffffffffffffffffffffffff163373ffffffffffffffffffffffffffffffffffffffff161461065e576040517f08c379a0000000000000000000000000000000000000000000000000000000008152600401610655906111d4565b60405180910390fd5b8060040154816005015410156106a9576040517f08c379a00000000000000000000000000000000000000000000000000000000081526004016106a090611262565b60405180910390fd5b806007015f9054906101000a900460ff166106f9576040517f08c379a00000000000000000000000000000000000000000000000000000000081526004016106f0906112f0565b60405180910390fd5b806001015f9054906101000a900473ffffffffffffffffffffffffffffffffffffffff1673ffffffffffffffffffffffffffffffffffffffff166108fc826005015490811502906040515f60405180830381858888f19350505050158015610763573d5f803e3d5ffd5b505f816007015f6101000a81548160ff021916908315150217905550817f80230996023d69b50793fa73f1919127c9d8e741d3989743c479169f22e7a28882600501546040516107b39190610d03565b60405180910390a25050565b5f60025f81546107ce9061133b565b91905081905590505f82426107e39190611382565b90506040518061010001604052808381526020013373ffffffffffffffffffffffffffffffffffffffff1681526020018781526020018681526020018581526020015f8152602001828152602001600115158152505f808481526020019081526020015f205f820151815f01556020820151816001015f6101000a81548173ffffffffffffffffffffffffffffffffffffffff021916908373ffffffffffffffffffffffffffffffffffffffff16021790555060408201518160020190816108ab9190611552565b5060608201518160030190816108c19190611552565b506080820151816004015560a0820151816005015560c0820151816006015560e0820151816007015f6101000a81548160ff0219169083151502179055509050503373ffffffffffffffffffffffffffffffffffffffff16827f483013d4a1d5e8ba43089bda8f1a92b959e32d6fc582556f800267dd809e589388878560405161094d93929190611621565b60405180910390a3505050505050565b5f805f8381526020019081526020015f209050806007015f9054906101000a900460ff166109c0576040517f08c379a00000000000000000000000000000000000000000000000000000000081526004016109b7906116cd565b60405180910390fd5b8060060154421115610a07576040517f08c379a00000000000000000000000000000000000000000000000000000000081526004016109fe9061175b565b60405180910390fd5b5f3411610a49576040517f08c379a0000000000000000000000000000000000000000000000000000000008152600401610a40906117e9565b60405180910390fd5b34816005015f828254610a5c9190611382565b925050819055503460015f8481526020019081526020015f205f3373ffffffffffffffffffffffffffffffffffffffff1673ffffffffffffffffffffffffffffffffffffffff1681526020019081526020015f205f828254610abe9190611382565b925050819055503373ffffffffffffffffffffffffffffffffffffffff16827f0a4a91237423e0a1766a761c7cb029311d8b95d6b1b81db1b949a70c98b4e08e34604051610b0c9190610d03565b60405180910390a35050565b5f604051905090565b5f80fd5b5f80fd5b5f819050919050565b610b3b81610b29565b8114610b45575f80fd5b50565b5f81359050610b5681610b32565b92915050565b5f60208284031215610b7157610b70610b21565b5b5f610b7e84828501610b48565b91505092915050565b610b9081610b29565b82525050565b5f73ffffffffffffffffffffffffffffffffffffffff82169050919050565b5f610bbf82610b96565b9050919050565b610bcf81610bb5565b82525050565b5f81519050919050565b5f82825260208201905092915050565b5f5b83811015610c0c578082015181840152602081019050610bf1565b5f8484015250505050565b5f601f19601f8301169050919050565b5f610c3182610bd5565b610c3b8185610bdf565b9350610c4b818560208601610bef565b610c5481610c17565b840191505092915050565b5f8115159050919050565b610c7381610c5f565b82525050565b5f61010082019050610c8d5f83018b610b87565b610c9a602083018a610bc6565b8181036040830152610cac8189610c27565b90508181036060830152610cc08188610c27565b9050610ccf6080830187610b87565b610cdc60a0830186610b87565b610ce960c0830185610b87565b610cf660e0830184610c6a565b9998505050505050505050565b5f602082019050610d165f830184610b87565b92915050565b5f610d2682610b96565b9050919050565b610d3681610d1c565b8114610d40575f80fd5b50565b5f81359050610d5181610d2d565b92915050565b5f8060408385031215610d6d57610d6c610b21565b5b5f610d7a85828601610b48565b9250506020610d8b85828601610d43565b9150509250929050565b5f80fd5b5f80fd5b7f4e487b71000000000000000000000000000000000000000000000000000000005f52604160045260245ffd5b610dd382610c17565b810181811067ffffffffffffffff82111715610df257610df1610d9d565b5b80604052505050565b5f610e04610b18565b9050610e108282610dca565b919050565b5f67ffffffffffffffff821115610e2f57610e2e610d9d565b5b610e3882610c17565b9050602081019050919050565b828183375f83830152505050565b5f610e65610e6084610e15565b610dfb565b905082815260208101848484011115610e8157610e80610d99565b5b610e8c848285610e45565b509392505050565b5f82601f830112610ea857610ea7610d95565b5b8135610eb8848260208601610e53565b91505092915050565b5f805f8060808587031215610ed957610ed8610b21565b5b5f85013567ffffffffffffffff811115610ef657610ef5610b25565b5b610f0287828801610e94565b945050602085013567ffffffffffffffff811115610f2357610f22610b25565b5b610f2f87828801610e94565b9350506040610f4087828801610b48565b9250506060610f5187828801610b48565b91505092959194509250565b7f4e487b71000000000000000000000000000000000000000000000000000000005f52602260045260245ffd5b5f6002820490506001821680610fa157607f821691505b602082108103610fb457610fb3610f5d565b5b50919050565b7f50726f6a65637420646561646c696e6520686173206e6f7420796574207061735f8201527f7365642e00000000000000000000000000000000000000000000000000000000602082015250565b5f611014602483610bdf565b915061101f82610fba565b604082019050919050565b5f6020820190508181035f83015261104181611008565b9050919050565b7f46756e64696e6720676f616c2077617320726561636865643b206e6f207265665f8201527f756e647320617661696c61626c652e0000000000000000000000000000000000602082015250565b5f6110a2602f83610bdf565b91506110ad82611048565b604082019050919050565b5f6020820190508181035f8301526110cf81611096565b9050919050565b7f4e6f20636f6e747269627574696f6e7320666f756e6420666f7220726566756e5f8201527f642e000000000000000000000000000000000000000000000000000000000000602082015250565b5f611130602283610bdf565b915061113b826110d6565b604082019050919050565b5f6020820190508181035f83015261115d81611124565b9050919050565b7f4f6e6c79207468652070726f6a656374206f776e65722063616e2072656c65615f8201527f73652066756e64732e0000000000000000000000000000000000000000000000602082015250565b5f6111be602983610bdf565b91506111c982611164565b604082019050919050565b5f6020820190508181035f8301526111eb816111b2565b9050919050565b7f46756e64696e6720676f616c20686173206e6f74206265656e207265616368655f8201527f642e000000000000000000000000000000000000000000000000000000000000602082015250565b5f61124c602283610bdf565b9150611257826111f2565b604082019050919050565b5f6020820190508181035f83015261127981611240565b9050919050565b7f46756e6473206861766520616c7265616479206265656e2072656c65617365645f8201527f206f722070726f6a65637420697320636c6f7365642e00000000000000000000602082015250565b5f6112da603683610bdf565b91506112e582611280565b604082019050919050565b5f6020820190508181035f830152611307816112ce565b9050919050565b7f4e487b71000000000000000000000000000000000000000000000000000000005f52601160045260245ffd5b5f61134582610b29565b91507fffffffffffffffffffffffffffffffffffffffffffffffffffffffffffffffff82036113775761137661130e565b5b600182019050919050565b5f61138c82610b29565b915061139783610b29565b92508282019050808211156113af576113ae61130e565b5b92915050565b5f819050815f5260205f209050919050565b5f6020601f8301049050919050565b5f82821b905092915050565b5f600883026114117fffffffffffffffffffffffffffffffffffffffffffffffffffffffffffffffff826113d6565b61141b86836113d6565b95508019841693508086168417925050509392505050565b5f819050919050565b5f61145661145161144c84610b29565b611433565b610b29565b9050919050565b5f819050919050565b61146f8361143c565b61148361147b8261145d565b8484546113e2565b825550505050565b5f90565b61149761148b565b6114a2818484611466565b505050565b5b818110156114c5576114ba5f8261148f565b6001810190506114a8565b5050565b601f82111561150a576114db816113b5565b6114e4846113c7565b810160208510156114f3578190505b6115076114ff856113c7565b8301826114a7565b50505b505050565b5f82821c905092915050565b5f61152a5f198460080261150f565b1980831691505092915050565b5f611542838361151b565b9150826002028217905092915050565b61155b82610bd5565b67ffffffffffffffff81111561157457611573610d9d565b5b61157e8254610f8a565b6115898282856114c9565b5f60209050601f8311600181146115ba575f84156115a8578287015190505b6115b28582611537565b865550611619565b601f1984166115c8866113b5565b5f5b828110156115ef578489015182556001820191506020850194506020810190506115ca565b8683101561160c5784890151611608601f89168261151b565b8355505b6001600288020188555050505b505050505050565b5f6060820190508181035f8301526116398186610c27565b90506116486020830185610b87565b6116556040830184610b87565b949350505050565b7f50726f6a656374206973206e6f74206f70656e20666f7220636f6e74726962755f8201527f74696f6e732e0000000000000000000000000000000000000000000000000000602082015250565b5f6116b7602683610bdf565b91506116c28261165d565b604082019050919050565b5f6020820190508181035f8301526116e4816116ab565b9050919050565b7f5468652066756e64696e6720706572696f6420666f7220746869732070726f6a5f8201527f6563742068617320656e6465642e000000000000000000000000000000000000602082015250565b5f611745602e83610bdf565b9150611750826116eb565b604082019050919050565b5f6020820190508181035f83015261177281611739565b9050919050565b7f436f6e747269627574696f6e20616d6f756e74206d75737420626520677265615f8201527f746572207468616e207a65726f2e000000000000000000000000000000000000602082015250565b5f6117d3602e83610bdf565b91506117de82611779565b604082019050919050565b5f6020820190508181035f830152611800816117c7565b905091905056fea26469706673582212206675a8897240ef278c54f5c9a12f46a194dff3c35b7d559f17613953c2c9aa9164736f6c63430008150033",
  "immutableReferences": {},
  "source": "// SPDX-License-Identifier: MIT\r\npragma solidity ^0.8.0;\r\n\r\n/**\r\n * @title Crowdfunding Contract\r\n * @dev This contract manages a decentralized crowdfunding platform using Ethereum blockchain. It allows users to create, fund, and manage crowdfunding projects with smart contracts to ensure transparency and security.\r\n */\r\ncontract Crowdfunding {\r\n    // Struct for project details\r\n    struct Project {\r\n        uint id;                // Unique project identifier\r\n        address payable owner;  // Address of the project creator, who will receive the funds\r\n        string name;            // Name of the project\r\n        string description;     // Detailed description of the project\r\n        uint goal;              // Funding goal that needs to be reached\r\n        uint amountRaised;      // Total amount raised by the project so far\r\n        uint deadline;          // Timestamp of when the project funding period will end\r\n        bool isOpen;            // Flag to check if the project is still open for funding\r\n    }\r\n\r\n    // Mapping from project ID to project details\r\n    mapping(uint => Project) public projects;\r\n    // Mapping from project ID to a mapping of addresses and their contributions\r\n    mapping(uint => mapping(address => uint)) public contributions;\r\n\r\n    // Total number of projects (used to generate unique IDs)\r\n    uint public projectCount;\r\n\r\n    // Event to emit when a new project is created\r\n    event ProjectCreated(\r\n        uint indexed projectId,\r\n        address indexed owner,\r\n        string name,\r\n        uint goal,\r\n        uint deadline\r\n    );\r\n\r\n    // Event to emit when a contribution is made\r\n    event ContributionMade(\r\n        uint indexed projectId,\r\n        address indexed contributor,\r\n        uint amount\r\n    );\r\n\r\n    // Event to emit when funds are released to the project owner\r\n    event FundsReleased(\r\n        uint indexed projectId,\r\n        uint amount\r\n    );\r\n\r\n    // Event to emit when a refund is made to a contributor\r\n    event RefundIssued(\r\n        uint indexed projectId,\r\n        address indexed contributor,\r\n        uint amount\r\n    );\r\n\r\n    /**\r\n     * @dev Creates a new project with the specified details. Only callable by registered users.\r\n     * @param name Name of the new project.\r\n     * @param description Description of the new project.\r\n     * @param goal The funding goal to be reached.\r\n     * @param duration Duration in seconds for which the project will accept contributions.\r\n     */\r\n    function createProject(string memory name, string memory description, uint goal, uint duration) public {\r\n        uint projectId = ++projectCount;  // Increment project count to get new project ID\r\n        uint deadline = block.timestamp + duration;\r\n\r\n        projects[projectId] = Project({\r\n            id: projectId,\r\n            owner: payable(msg.sender),\r\n            name: name,\r\n            description: description,\r\n            goal: goal,\r\n            amountRaised: 0,\r\n            deadline: deadline,\r\n            isOpen: true\r\n        });\r\n\r\n        emit ProjectCreated(projectId, msg.sender, name, goal, deadline);\r\n    }\r\n\r\n    /**\r\n     * @dev Allows users to contribute to a project. Contributions can only be made if the project is open and not yet expired.\r\n     * @param projectId The ID of the project to contribute to.\r\n     */\r\n    function contribute(uint projectId) public payable {\r\n        Project storage project = projects[projectId];\r\n\r\n        require(project.isOpen, \"Project is not open for contributions.\");\r\n        require(block.timestamp <= project.deadline, \"The funding period for this project has ended.\");\r\n        require(msg.value > 0, \"Contribution amount must be greater than zero.\");\r\n\r\n        project.amountRaised += msg.value;\r\n        contributions[projectId][msg.sender] += msg.value;\r\n\r\n        emit ContributionMade(projectId, msg.sender, msg.value);\r\n    }\r\n\r\n    /**\r\n     * @dev Releases funds to the project owner if the funding goal is met. Can only be called by the project owner or contract admin.\r\n     * @param projectId The ID of the project for which funds are to be released.\r\n     */\r\n    function releaseFunds(uint projectId) public {\r\n        Project storage project = projects[projectId];\r\n\r\n        require(msg.sender == project.owner, \"Only the project owner can release funds.\");\r\n        require(project.amountRaised >= project.goal, \"Funding goal has not been reached.\");\r\n        require(project.isOpen, \"Funds have already been released or project is closed.\");\r\n\r\n        project.owner.transfer(project.amountRaised);\r\n        project.isOpen = false;  // Close the project after releasing funds\r\n\r\n        emit FundsReleased(projectId, project.amountRaised);\r\n    }\r\n\r\n    /**\r\n     * @dev Issues refunds to contributors if the project does not meet its funding goal by the deadline. Can be called by contributors.\r\n     * @param projectId The ID of the project from which to claim a refund.\r\n     */\r\n    function refund(uint projectId) public {\r\n        Project storage project = projects[projectId];\r\n\r\n        require(block.timestamp > project.deadline, \"Project deadline has not yet passed.\");\r\n        require(project.amountRaised < project.goal, \"Funding goal was reached; no refunds available.\");\r\n        require(contributions[projectId][msg.sender] > 0, \"No contributions found for refund.\");\r\n\r\n        uint refundAmount = contributions[projectId][msg.sender];\r\n        contributions[projectId][msg.sender] = 0;  // Reset contribution to zero after refund\r\n        payable(msg.sender).transfer(refundAmount);\r\n\r\n        emit RefundIssued(projectId, msg.sender, refundAmount);\r\n    }\r\n}\r\n",
  "sourcePath": "C:\\Users\\y509100\\OneDrive - Software AG\\Desktop\\unsw\\blockchain application\\pro2\\crowdfunding_dApp\\backend\\contracts\\Crowdfunding.sol",
  "compiler": {
    "name": "solc",
    "version": "0.8.21+commit.d9974bed.Emscripten.clang"
  },
  "schemaVersion": "3.4.16",
  "updatedAt": "2024-07-09T11:50:19.229Z",
  "devdoc": {
    "details": "This contract manages a decentralized crowdfunding platform using Ethereum blockchain. It allows users to create, fund, and manage crowdfunding projects with smart contracts to ensure transparency and security.",
    "kind": "dev",
    "methods": {
      "contribute(uint256)": {
        "details": "Allows users to contribute to a project. Contributions can only be made if the project is open and not yet expired.",
        "params": {
          "projectId": "The ID of the project to contribute to."
        }
      },
      "createProject(string,string,uint256,uint256)": {
        "details": "Creates a new project with the specified details. Only callable by registered users.",
        "params": {
          "description": "Description of the new project.",
          "duration": "Duration in seconds for which the project will accept contributions.",
          "goal": "The funding goal to be reached.",
          "name": "Name of the new project."
        }
      },
      "refund(uint256)": {
        "details": "Issues refunds to contributors if the project does not meet its funding goal by the deadline. Can be called by contributors.",
        "params": {
          "projectId": "The ID of the project from which to claim a refund."
        }
      },
      "releaseFunds(uint256)": {
        "details": "Releases funds to the project owner if the funding goal is met. Can only be called by the project owner or contract admin.",
        "params": {
          "projectId": "The ID of the project for which funds are to be released."
        }
      }
    },
    "title": "Crowdfunding Contract",
    "version": 1
  },
  "userdoc": {
    "kind": "user",
    "methods": {},
    "version": 1
  }
}