{
  "contractName": "MyContract",
  "abi": [
    {
      "inputs": [],
      "name": "getNumber",
      "outputs": [
        {
          "internalType": "int256",
          "name": "",
          "type": "int256"
        }
      ],
      "stateMutability": "view",
      "type": "function",
      "constant": true
    },
    {
      "inputs": [
        {
          "internalType": "int256",
          "name": "_number",
          "type": "int256"
        }
      ],
      "name": "setNumber",
      "outputs": [],
      "stateMutability": "nonpayable",
      "type": "function"
    }
  ],
  "bytecode": "0x6080604052600a5f55348015610013575f80fd5b50610143806100215f395ff3fe608060405234801561000f575f80fd5b5060043610610034575f3560e01c80639cf27f3714610038578063f2c9ecd814610054575b5f80fd5b610052600480360381019061004d91906100ba565b610072565b005b61005c61007b565b60405161006991906100f4565b60405180910390f35b805f8190555050565b5f8054905090565b5f80fd5b5f819050919050565b61009981610087565b81146100a3575f80fd5b50565b5f813590506100b481610090565b92915050565b5f602082840312156100cf576100ce610083565b5b5f6100dc848285016100a6565b91505092915050565b6100ee81610087565b82525050565b5f6020820190506101075f8301846100e5565b9291505056fea26469706673582212206dad010514af0005d9cf46d0c7be745b3bd2bff8e61f3eab3d6141b2093fb31c64736f6c63430008150033",
  "immutableReferences": {},
  "source": "// SPDX-License-Identifier: MIT \r\npragma solidity ^0.8.0; \r\n//creating smart contract \r\ncontract MyContract { \r\n    int private myNumber = 10; \r\n//defining function \r\n    function getNumber() public view returns (int) { \r\n        return myNumber; \r\n    } \r\n  \r\n    function setNumber(int _number) public { \r\n        myNumber = _number; \r\n    } \r\n}",
  "sourcePath": "C:\\Users\\y509100\\OneDrive - Software AG\\Desktop\\unsw\\blockchain application\\pro2\\crowdfunding_dApp\\backend\\contracts\\MyContract.sol",
  "compiler": {
    "name": "solc",
    "version": "0.8.21+commit.d9974bed.Emscripten.clang"
  },
  "schemaVersion": "3.4.16",
  "updatedAt": "2024-07-02T03:49:53.948Z",
  "networkType": "ethereum",
  "devdoc": {
    "kind": "dev",
    "methods": {},
    "version": 1
  },
  "userdoc": {
    "kind": "user",
    "methods": {},
    "version": 1
  }
}