{
  "contractName": "Project",
  "abi": [
    {
      "inputs": [
        {
          "internalType": "uint256",
          "name": "projectId",
          "type": "uint256"
        },
        {
          "internalType": "string",
          "name": "name",
          "type": "string"
        },
        {
          "internalType": "string",
          "name": "description",
          "type": "string"
        },
        {
          "internalType": "uint256",
          "name": "goal",
          "type": "uint256"
        },
        {
          "internalType": "uint256",
          "name": "duration",
          "type": "uint256"
        },
        {
          "internalType": "address payable",
          "name": "owner",
          "type": "address"
        }
      ],
      "stateMutability": "nonpayable",
      "type": "constructor"
    },
    {
      "anonymous": false,
      "inputs": [
        {
          "indexed": true,
          "internalType": "uint256",
          "name": "projectId",
          "type": "uint256"
        },
        {
          "indexed": true,
          "internalType": "address",
          "name": "contributor",
          "type": "address"
        },
        {
          "indexed": false,
          "internalType": "uint256",
          "name": "amount",
          "type": "uint256"
        }
      ],
      "name": "ContributionMade",
      "type": "event"
    },
    {
      "anonymous": false,
      "inputs": [
        {
          "indexed": true,
          "internalType": "uint256",
          "name": "projectId",
          "type": "uint256"
        },
        {
          "indexed": false,
          "internalType": "uint256",
          "name": "amount",
          "type": "uint256"
        }
      ],
      "name": "FundsReleased",
      "type": "event"
    },
    {
      "anonymous": false,
      "inputs": [
        {
          "indexed": true,
          "internalType": "uint256",
          "name": "projectId",
          "type": "uint256"
        },
        {
          "indexed": true,
          "internalType": "address",
          "name": "contributor",
          "type": "address"
        },
        {
          "indexed": false,
          "internalType": "uint256",
          "name": "amount",
          "type": "uint256"
        }
      ],
      "name": "RefundIssued",
      "type": "event"
    },
    {
      "inputs": [
        {
          "internalType": "address",
          "name": "",
          "type": "address"
        }
      ],
      "name": "contributions",
      "outputs": [
        {
          "internalType": "uint256",
          "name": "",
          "type": "uint256"
        }
      ],
      "stateMutability": "view",
      "type": "function"
    },
    {
      "inputs": [],
      "name": "project",
      "outputs": [
        {
          "internalType": "uint256",
          "name": "id",
          "type": "uint256"
        },
        {
          "internalType": "address payable",
          "name": "owner",
          "type": "address"
        },
        {
          "internalType": "string",
          "name": "name",
          "type": "string"
        },
        {
          "internalType": "string",
          "name": "description",
          "type": "string"
        },
        {
          "internalType": "uint256",
          "name": "goal",
          "type": "uint256"
        },
        {
          "internalType": "uint256",
          "name": "amountRaised",
          "type": "uint256"
        },
        {
          "internalType": "uint256",
          "name": "deadline",
          "type": "uint256"
        },
        {
          "internalType": "bool",
          "name": "isOpen",
          "type": "bool"
        }
      ],
      "stateMutability": "view",
      "type": "function"
    },
    {
      "inputs": [],
      "name": "contribute",
      "outputs": [],
      "stateMutability": "payable",
      "type": "function"
    },
    {
      "inputs": [],
      "name": "releaseFunds",
      "outputs": [],
      "stateMutability": "nonpayable",
      "type": "function"
    },
    {
      "inputs": [],
      "name": "refund",
      "outputs": [],
      "stateMutability": "nonpayable",
      "type": "function"
    }
  ],
  "bytecode": "0x608060405234801562000010575f80fd5b50604051620017fd380380620017fd83398181016040528101906200003691906200037f565b6040518061010001604052808781526020018273ffffffffffffffffffffffffffffffffffffffff1681526020018681526020018581526020018481526020015f815260200183426200008a919062000482565b8152602001600115158152505f80820151815f01556020820151816001015f6101000a81548173ffffffffffffffffffffffffffffffffffffffff021916908373ffffffffffffffffffffffffffffffffffffffff1602179055506040820151816002019081620000fc9190620006ea565b506060820151816003019081620001149190620006ea565b506080820151816004015560a0820151816005015560c0820151816006015560e0820151816007015f6101000a81548160ff021916908315150217905550905050505050505050620007ce565b5f604051905090565b5f80fd5b5f80fd5b5f819050919050565b620001868162000172565b811462000191575f80fd5b50565b5f81519050620001a4816200017b565b92915050565b5f80fd5b5f80fd5b5f601f19601f8301169050919050565b7f4e487b71000000000000000000000000000000000000000000000000000000005f52604160045260245ffd5b620001fa82620001b2565b810181811067ffffffffffffffff821117156200021c576200021b620001c2565b5b80604052505050565b5f6200023062000161565b90506200023e8282620001ef565b919050565b5f67ffffffffffffffff82111562000260576200025f620001c2565b5b6200026b82620001b2565b9050602081019050919050565b5f5b83811015620002975780820151818401526020810190506200027a565b5f8484015250505050565b5f620002b8620002b28462000243565b62000225565b905082815260208101848484011115620002d757620002d6620001ae565b5b620002e484828562000278565b509392505050565b5f82601f830112620003035762000302620001aa565b5b815162000315848260208601620002a2565b91505092915050565b5f73ffffffffffffffffffffffffffffffffffffffff82169050919050565b5f62000349826200031e565b9050919050565b6200035b816200033d565b811462000366575f80fd5b50565b5f81519050620003798162000350565b92915050565b5f805f805f8060c087890312156200039c576200039b6200016a565b5b5f620003ab89828a0162000194565b965050602087015167ffffffffffffffff811115620003cf57620003ce6200016e565b5b620003dd89828a01620002ec565b955050604087015167ffffffffffffffff8111156200040157620004006200016e565b5b6200040f89828a01620002ec565b94505060606200042289828a0162000194565b93505060806200043589828a0162000194565b92505060a06200044889828a0162000369565b9150509295509295509295565b7f4e487b71000000000000000000000000000000000000000000000000000000005f52601160045260245ffd5b5f6200048e8262000172565b91506200049b8362000172565b9250828201905080821115620004b657620004b562000455565b5b92915050565b5f81519050919050565b7f4e487b71000000000000000000000000000000000000000000000000000000005f52602260045260245ffd5b5f60028204905060018216806200050b57607f821691505b602082108103620005215762000520620004c6565b5b50919050565b5f819050815f5260205f209050919050565b5f6020601f8301049050919050565b5f82821b905092915050565b5f60088302620005857fffffffffffffffffffffffffffffffffffffffffffffffffffffffffffffffff8262000548565b62000591868362000548565b95508019841693508086168417925050509392505050565b5f819050919050565b5f620005d2620005cc620005c68462000172565b620005a9565b62000172565b9050919050565b5f819050919050565b620005ed83620005b2565b62000605620005fc82620005d9565b84845462000554565b825550505050565b5f90565b6200061b6200060d565b62000628818484620005e2565b505050565b5b818110156200064f57620006435f8262000611565b6001810190506200062e565b5050565b601f8211156200069e57620006688162000527565b620006738462000539565b8101602085101562000683578190505b6200069b620006928562000539565b8301826200062d565b50505b505050565b5f82821c905092915050565b5f620006c05f1984600802620006a3565b1980831691505092915050565b5f620006da8383620006af565b9150826002028217905092915050565b620006f582620004bc565b67ffffffffffffffff811115620007115762000710620001c2565b5b6200071d8254620004f3565b6200072a82828562000653565b5f60209050601f83116001811462000760575f84156200074b578287015190505b620007578582620006cd565b865550620007c6565b601f198416620007708662000527565b5f5b82811015620007995784890151825560018201915060208501945060208101905062000772565b86831015620007b95784890151620007b5601f891682620006af565b8355505b6001600288020188555050505b505050505050565b61102180620007dc5f395ff3fe608060405260043610610049575f3560e01c806342e94c901461004d578063590e1ae31461008957806369d895751461009f578063d7bb99ba146100b5578063f60ca60d146100bf575b5f80fd5b348015610058575f80fd5b50610073600480360381019061006e9190610886565b6100f0565b60405161008091906108c9565b60405180910390f35b348015610094575f80fd5b5061009d610105565b005b3480156100aa575f80fd5b506100b3610330565b005b6100bd610523565b005b3480156100ca575f80fd5b506100d36106bd565b6040516100e79897969594939291906109a6565b60405180910390f35b6008602052805f5260405f205f915090505481565b5f60060154421161014b576040517f08c379a000000000000000000000000000000000000000000000000000000000815260040161014290610aa0565b60405180910390fd5b5f600401545f6005015410610195576040517f08c379a000000000000000000000000000000000000000000000000000000000815260040161018c90610b2e565b60405180910390fd5b5f60085f3373ffffffffffffffffffffffffffffffffffffffff1673ffffffffffffffffffffffffffffffffffffffff1681526020019081526020015f205411610214576040517f08c379a000000000000000000000000000000000000000000000000000000000815260040161020b90610bbc565b60405180910390fd5b5f60085f3373ffffffffffffffffffffffffffffffffffffffff1673ffffffffffffffffffffffffffffffffffffffff1681526020019081526020015f205490505f60085f3373ffffffffffffffffffffffffffffffffffffffff1673ffffffffffffffffffffffffffffffffffffffff1681526020019081526020015f20819055503373ffffffffffffffffffffffffffffffffffffffff166108fc8290811502906040515f60405180830381858888f193505050501580156102da573d5f803e3d5ffd5b503373ffffffffffffffffffffffffffffffffffffffff165f8001547f7a482fdeb6bc9a1376f597068a214a7a39472bb2eff1b8cad21ba04f49ddca1b8360405161032591906108c9565b60405180910390a350565b5f6001015f9054906101000a900473ffffffffffffffffffffffffffffffffffffffff1673ffffffffffffffffffffffffffffffffffffffff163373ffffffffffffffffffffffffffffffffffffffff16146103c1576040517f08c379a00000000000000000000000000000000000000000000000000000000081526004016103b890610c4a565b60405180910390fd5b5f600401545f60050154101561040c576040517f08c379a000000000000000000000000000000000000000000000000000000000815260040161040390610cd8565b60405180910390fd5b5f6007015f9054906101000a900460ff1661045c576040517f08c379a000000000000000000000000000000000000000000000000000000000815260040161045390610d66565b60405180910390fd5b5f6001015f9054906101000a900473ffffffffffffffffffffffffffffffffffffffff1673ffffffffffffffffffffffffffffffffffffffff166108fc5f6005015490811502906040515f60405180830381858888f193505050501580156104c6573d5f803e3d5ffd5b505f806007015f6101000a81548160ff0219169083151502179055505f8001547f80230996023d69b50793fa73f1919127c9d8e741d3989743c479169f22e7a2885f6005015460405161051991906108c9565b60405180910390a2565b5f6007015f9054906101000a900460ff16610573576040517f08c379a000000000000000000000000000000000000000000000000000000000815260040161056a90610df4565b60405180910390fd5b5f600601544211156105ba576040517f08c379a00000000000000000000000000000000000000000000000000000000081526004016105b190610e82565b60405180910390fd5b5f34116105fc576040517f08c379a00000000000000000000000000000000000000000000000000000000081526004016105f390610f10565b60405180910390fd5b345f6005015f82825461060f9190610f5b565b925050819055503460085f3373ffffffffffffffffffffffffffffffffffffffff1673ffffffffffffffffffffffffffffffffffffffff1681526020019081526020015f205f8282546106629190610f5b565b925050819055503373ffffffffffffffffffffffffffffffffffffffff165f8001547f0a4a91237423e0a1766a761c7cb029311d8b95d6b1b81db1b949a70c98b4e08e346040516106b391906108c9565b60405180910390a3565b5f805f015490806001015f9054906101000a900473ffffffffffffffffffffffffffffffffffffffff16908060020180546106f790610fbb565b80601f016020809104026020016040519081016040528092919081815260200182805461072390610fbb565b801561076e5780601f106107455761010080835404028352916020019161076e565b820191905f5260205f20905b81548152906001019060200180831161075157829003601f168201915b50505050509080600301805461078390610fbb565b80601f01602080910402602001604051908101604052809291908181526020018280546107af90610fbb565b80156107fa5780601f106107d1576101008083540402835291602001916107fa565b820191905f5260205f20905b8154815290600101906020018083116107dd57829003601f168201915b505050505090806004015490806005015490806006015490806007015f9054906101000a900460ff16905088565b5f80fd5b5f73ffffffffffffffffffffffffffffffffffffffff82169050919050565b5f6108558261082c565b9050919050565b6108658161084b565b811461086f575f80fd5b50565b5f813590506108808161085c565b92915050565b5f6020828403121561089b5761089a610828565b5b5f6108a884828501610872565b91505092915050565b5f819050919050565b6108c3816108b1565b82525050565b5f6020820190506108dc5f8301846108ba565b92915050565b5f6108ec8261082c565b9050919050565b6108fc816108e2565b82525050565b5f81519050919050565b5f82825260208201905092915050565b5f5b8381101561093957808201518184015260208101905061091e565b5f8484015250505050565b5f601f19601f8301169050919050565b5f61095e82610902565b610968818561090c565b935061097881856020860161091c565b61098181610944565b840191505092915050565b5f8115159050919050565b6109a08161098c565b82525050565b5f610100820190506109ba5f83018b6108ba565b6109c7602083018a6108f3565b81810360408301526109d98189610954565b905081810360608301526109ed8188610954565b90506109fc60808301876108ba565b610a0960a08301866108ba565b610a1660c08301856108ba565b610a2360e0830184610997565b9998505050505050505050565b7f50726f6a65637420646561646c696e6520686173206e6f7420796574207061735f8201527f7365642e00000000000000000000000000000000000000000000000000000000602082015250565b5f610a8a60248361090c565b9150610a9582610a30565b604082019050919050565b5f6020820190508181035f830152610ab781610a7e565b9050919050565b7f46756e64696e6720676f616c2077617320726561636865643b206e6f207265665f8201527f756e647320617661696c61626c652e0000000000000000000000000000000000602082015250565b5f610b18602f8361090c565b9150610b2382610abe565b604082019050919050565b5f6020820190508181035f830152610b4581610b0c565b9050919050565b7f4e6f20636f6e747269627574696f6e7320666f756e6420666f7220726566756e5f8201527f642e000000000000000000000000000000000000000000000000000000000000602082015250565b5f610ba660228361090c565b9150610bb182610b4c565b604082019050919050565b5f6020820190508181035f830152610bd381610b9a565b9050919050565b7f4f6e6c79207468652070726f6a656374206f776e65722063616e2072656c65615f8201527f73652066756e64732e0000000000000000000000000000000000000000000000602082015250565b5f610c3460298361090c565b9150610c3f82610bda565b604082019050919050565b5f6020820190508181035f830152610c6181610c28565b9050919050565b7f46756e64696e6720676f616c20686173206e6f74206265656e207265616368655f8201527f642e000000000000000000000000000000000000000000000000000000000000602082015250565b5f610cc260228361090c565b9150610ccd82610c68565b604082019050919050565b5f6020820190508181035f830152610cef81610cb6565b9050919050565b7f46756e6473206861766520616c7265616479206265656e2072656c65617365645f8201527f206f722070726f6a65637420697320636c6f7365642e00000000000000000000602082015250565b5f610d5060368361090c565b9150610d5b82610cf6565b604082019050919050565b5f6020820190508181035f830152610d7d81610d44565b9050919050565b7f50726f6a656374206973206e6f74206f70656e20666f7220636f6e74726962755f8201527f74696f6e732e0000000000000000000000000000000000000000000000000000602082015250565b5f610dde60268361090c565b9150610de982610d84565b604082019050919050565b5f6020820190508181035f830152610e0b81610dd2565b9050919050565b7f5468652066756e64696e6720706572696f6420666f7220746869732070726f6a5f8201527f6563742068617320656e6465642e000000000000000000000000000000000000602082015250565b5f610e6c602e8361090c565b9150610e7782610e12565b604082019050919050565b5f6020820190508181035f830152610e9981610e60565b9050919050565b7f436f6e747269627574696f6e20616d6f756e74206d75737420626520677265615f8201527f746572207468616e207a65726f2e000000000000000000000000000000000000602082015250565b5f610efa602e8361090c565b9150610f0582610ea0565b604082019050919050565b5f6020820190508181035f830152610f2781610eee565b9050919050565b7f4e487b71000000000000000000000000000000000000000000000000000000005f52601160045260245ffd5b5f610f65826108b1565b9150610f70836108b1565b9250828201905080821115610f8857610f87610f2e565b5b92915050565b7f4e487b71000000000000000000000000000000000000000000000000000000005f52602260045260245ffd5b5f6002820490506001821680610fd257607f821691505b602082108103610fe557610fe4610f8e565b5b5091905056fea2646970667358221220a5da98a4a0fe8e80e7aa73f9b960d71efbdc3efa470c4252591448bcc7e53cf564736f6c63430008150033",
  "immutableReferences": {},
  "source": "// SPDX-License-Identifier: MIT\r\npragma solidity ^0.8.0;\r\n\r\ncontract Project {\r\n    struct ProjectDetails {\r\n        uint id;\r\n        address payable owner;\r\n        string name;\r\n        string description;\r\n        uint goal;\r\n        uint amountRaised;\r\n        uint deadline;\r\n        bool isOpen;\r\n    }\r\n\r\n    ProjectDetails public project;\r\n    mapping(address => uint) public contributions;\r\n\r\n    event ContributionMade(uint indexed projectId, address indexed contributor, uint amount);\r\n    event FundsReleased(uint indexed projectId, uint amount);\r\n    event RefundIssued(uint indexed projectId, address indexed contributor, uint amount);\r\n\r\n    constructor(uint projectId, string memory name, string memory description, uint goal, uint duration, address payable owner) {\r\n        project = ProjectDetails({\r\n            id: projectId,\r\n            owner: owner,\r\n            name: name,\r\n            description: description,\r\n            goal: goal,\r\n            amountRaised: 0,\r\n            deadline: block.timestamp + duration,\r\n            isOpen: true\r\n        });\r\n    }\r\n\r\n    function contribute() public payable {\r\n        require(project.isOpen, \"Project is not open for contributions.\");\r\n        require(block.timestamp <= project.deadline, \"The funding period for this project has ended.\");\r\n        require(msg.value > 0, \"Contribution amount must be greater than zero.\");\r\n\r\n        project.amountRaised += msg.value;\r\n        contributions[msg.sender] += msg.value;\r\n\r\n        emit ContributionMade(project.id, msg.sender, msg.value);\r\n    }\r\n\r\n    function releaseFunds() public {\r\n        require(msg.sender == project.owner, \"Only the project owner can release funds.\");\r\n        require(project.amountRaised >= project.goal, \"Funding goal has not been reached.\");\r\n        require(project.isOpen, \"Funds have already been released or project is closed.\");\r\n\r\n        project.owner.transfer(project.amountRaised);\r\n        project.isOpen = false;\r\n\r\n        emit FundsReleased(project.id, project.amountRaised);\r\n    }\r\n\r\n    function refund() public {\r\n        require(block.timestamp > project.deadline, \"Project deadline has not yet passed.\");\r\n        require(project.amountRaised < project.goal, \"Funding goal was reached; no refunds available.\");\r\n        require(contributions[msg.sender] > 0, \"No contributions found for refund.\");\r\n\r\n        uint refundAmount = contributions[msg.sender];\r\n        contributions[msg.sender] = 0;\r\n        payable(msg.sender).transfer(refundAmount);\r\n\r\n        emit RefundIssued(project.id, msg.sender, refundAmount);\r\n    }\r\n}\r\n",
  "sourcePath": "C:\\Users\\y509100\\OneDrive - Software AG\\Desktop\\unsw\\blockchain application\\pro2\\crowdfunding_dApp\\backend\\contracts\\Project.sol",
  "compiler": {
    "name": "solc",
    "version": "0.8.21+commit.d9974bed.Emscripten.clang"
  },
  "schemaVersion": "3.4.16",
  "updatedAt": "2024-07-09T12:57:24.629Z",
  "devdoc": {
    "kind": "dev",
    "methods": {},
    "version": 1
  },
  "userdoc": {
    "kind": "user",
    "methods": {},
    "version": 1
  }
}