{
  "contractName": "Project",
  "abi": [
    {
      "inputs": [
        {
          "internalType": "uint256",
          "name": "projectId",
          "type": "uint256"
        },
        {
          "internalType": "string",
          "name": "ipfsURL",
          "type": "string"
        },
        {
          "internalType": "uint256",
          "name": "goal",
          "type": "uint256"
        },
        {
          "internalType": "uint256",
          "name": "durationInMinutes",
          "type": "uint256"
        },
        {
          "internalType": "address payable",
          "name": "owner",
          "type": "address"
        }
      ],
      "stateMutability": "nonpayable",
      "type": "constructor"
    },
    {
      "anonymous": false,
      "inputs": [
        {
          "indexed": true,
          "internalType": "uint256",
          "name": "projectId",
          "type": "uint256"
        },
        {
          "indexed": true,
          "internalType": "address",
          "name": "contributor",
          "type": "address"
        },
        {
          "indexed": false,
          "internalType": "uint256",
          "name": "amount",
          "type": "uint256"
        }
      ],
      "name": "ContributionMade",
      "type": "event"
    },
    {
      "anonymous": false,
      "inputs": [
        {
          "indexed": true,
          "internalType": "uint256",
          "name": "projectId",
          "type": "uint256"
        },
        {
          "indexed": false,
          "internalType": "uint256",
          "name": "amount",
          "type": "uint256"
        }
      ],
      "name": "FundsReleased",
      "type": "event"
    },
    {
      "anonymous": false,
      "inputs": [
        {
          "indexed": true,
          "internalType": "uint256",
          "name": "projectId",
          "type": "uint256"
        }
      ],
      "name": "ProjectClosed",
      "type": "event"
    },
    {
      "anonymous": false,
      "inputs": [
        {
          "indexed": true,
          "internalType": "uint256",
          "name": "projectId",
          "type": "uint256"
        },
        {
          "indexed": true,
          "internalType": "address",
          "name": "contributor",
          "type": "address"
        },
        {
          "indexed": false,
          "internalType": "uint256",
          "name": "amount",
          "type": "uint256"
        }
      ],
      "name": "RefundIssued",
      "type": "event"
    },
    {
      "inputs": [
        {
          "internalType": "address",
          "name": "",
          "type": "address"
        }
      ],
      "name": "contributions",
      "outputs": [
        {
          "internalType": "uint256",
          "name": "",
          "type": "uint256"
        }
      ],
      "stateMutability": "view",
      "type": "function"
    },
    {
      "inputs": [
        {
          "internalType": "uint256",
          "name": "",
          "type": "uint256"
        }
      ],
      "name": "contributors",
      "outputs": [
        {
          "internalType": "address",
          "name": "",
          "type": "address"
        }
      ],
      "stateMutability": "view",
      "type": "function"
    },
    {
      "inputs": [],
      "name": "project",
      "outputs": [
        {
          "internalType": "uint256",
          "name": "id",
          "type": "uint256"
        },
        {
          "internalType": "address payable",
          "name": "owner",
          "type": "address"
        },
        {
          "internalType": "string",
          "name": "ipfsURL",
          "type": "string"
        },
        {
          "internalType": "uint256",
          "name": "goal",
          "type": "uint256"
        },
        {
          "internalType": "uint256",
          "name": "amountRaised",
          "type": "uint256"
        },
        {
          "internalType": "uint256",
          "name": "deadline",
          "type": "uint256"
        },
        {
          "internalType": "bool",
          "name": "isOpen",
          "type": "bool"
        }
      ],
      "stateMutability": "view",
      "type": "function"
    },
    {
      "inputs": [],
      "name": "contribute",
      "outputs": [],
      "stateMutability": "payable",
      "type": "function"
    },
    {
      "inputs": [],
      "name": "releaseFunds",
      "outputs": [],
      "stateMutability": "nonpayable",
      "type": "function"
    },
    {
      "inputs": [],
      "name": "claimRefund",
      "outputs": [],
      "stateMutability": "nonpayable",
      "type": "function"
    },
    {
      "inputs": [],
      "name": "closeProject",
      "outputs": [],
      "stateMutability": "nonpayable",
      "type": "function"
    },
    {
      "inputs": [],
      "name": "getProjectDetails",
      "outputs": [
        {
          "components": [
            {
              "internalType": "uint256",
              "name": "id",
              "type": "uint256"
            },
            {
              "internalType": "address payable",
              "name": "owner",
              "type": "address"
            },
            {
              "internalType": "string",
              "name": "ipfsURL",
              "type": "string"
            },
            {
              "internalType": "uint256",
              "name": "goal",
              "type": "uint256"
            },
            {
              "internalType": "uint256",
              "name": "amountRaised",
              "type": "uint256"
            },
            {
              "internalType": "uint256",
              "name": "deadline",
              "type": "uint256"
            },
            {
              "internalType": "bool",
              "name": "isOpen",
              "type": "bool"
            }
          ],
          "internalType": "struct Project.ProjectDetails",
          "name": "",
          "type": "tuple"
        }
      ],
      "stateMutability": "view",
      "type": "function"
    }
  ],
  "bytecode": "0x608060405234801562000010575f80fd5b5060405162001bd338038062001bd383398181016040528101906200003691906200036d565b6040518060e001604052808681526020018273ffffffffffffffffffffffffffffffffffffffff1681526020018581526020018481526020015f8152602001603c846200008491906200043d565b4262000091919062000487565b8152602001600115158152505f80820151815f01556020820151816001015f6101000a81548173ffffffffffffffffffffffffffffffffffffffff021916908373ffffffffffffffffffffffffffffffffffffffff1602179055506040820151816002019081620001039190620006ef565b50606082015181600301556080820151816004015560a0820151816005015560c0820151816006015f6101000a81548160ff0219169083151502179055509050505050505050620007d3565b5f604051905090565b5f80fd5b5f80fd5b5f819050919050565b620001748162000160565b81146200017f575f80fd5b50565b5f81519050620001928162000169565b92915050565b5f80fd5b5f80fd5b5f601f19601f8301169050919050565b7f4e487b71000000000000000000000000000000000000000000000000000000005f52604160045260245ffd5b620001e882620001a0565b810181811067ffffffffffffffff821117156200020a5762000209620001b0565b5b80604052505050565b5f6200021e6200014f565b90506200022c8282620001dd565b919050565b5f67ffffffffffffffff8211156200024e576200024d620001b0565b5b6200025982620001a0565b9050602081019050919050565b5f5b838110156200028557808201518184015260208101905062000268565b5f8484015250505050565b5f620002a6620002a08462000231565b62000213565b905082815260208101848484011115620002c557620002c46200019c565b5b620002d284828562000266565b509392505050565b5f82601f830112620002f157620002f062000198565b5b81516200030384826020860162000290565b91505092915050565b5f73ffffffffffffffffffffffffffffffffffffffff82169050919050565b5f62000337826200030c565b9050919050565b62000349816200032b565b811462000354575f80fd5b50565b5f8151905062000367816200033e565b92915050565b5f805f805f60a0868803121562000389576200038862000158565b5b5f620003988882890162000182565b955050602086015167ffffffffffffffff811115620003bc57620003bb6200015c565b5b620003ca88828901620002da565b9450506040620003dd8882890162000182565b9350506060620003f08882890162000182565b9250506080620004038882890162000357565b9150509295509295909350565b7f4e487b71000000000000000000000000000000000000000000000000000000005f52601160045260245ffd5b5f620004498262000160565b9150620004568362000160565b9250828202620004668162000160565b9150828204841483151762000480576200047f62000410565b5b5092915050565b5f620004938262000160565b9150620004a08362000160565b9250828201905080821115620004bb57620004ba62000410565b5b92915050565b5f81519050919050565b7f4e487b71000000000000000000000000000000000000000000000000000000005f52602260045260245ffd5b5f60028204905060018216806200051057607f821691505b602082108103620005265762000525620004cb565b5b50919050565b5f819050815f5260205f209050919050565b5f6020601f8301049050919050565b5f82821b905092915050565b5f600883026200058a7fffffffffffffffffffffffffffffffffffffffffffffffffffffffffffffffff826200054d565b6200059686836200054d565b95508019841693508086168417925050509392505050565b5f819050919050565b5f620005d7620005d1620005cb8462000160565b620005ae565b62000160565b9050919050565b5f819050919050565b620005f283620005b7565b6200060a6200060182620005de565b84845462000559565b825550505050565b5f90565b6200062062000612565b6200062d818484620005e7565b505050565b5b818110156200065457620006485f8262000616565b60018101905062000633565b5050565b601f821115620006a3576200066d816200052c565b62000678846200053e565b8101602085101562000688578190505b620006a062000697856200053e565b83018262000632565b50505b505050565b5f82821c905092915050565b5f620006c55f1984600802620006a8565b1980831691505092915050565b5f620006df8383620006b4565b9150826002028217905092915050565b620006fa82620004c1565b67ffffffffffffffff811115620007165762000715620001b0565b5b620007228254620004f8565b6200072f82828562000658565b5f60209050601f83116001811462000765575f841562000750578287015190505b6200075c8582620006d2565b865550620007cb565b601f19841662000775866200052c565b5f5b828110156200079e5784890151825560018201915060208501945060208101905062000777565b86831015620007be5784890151620007ba601f891682620006b4565b8355505b6001600288020188555050505b505050505050565b6113f280620007e15f395ff3fe60806040526004361061007a575f3560e01c8063d7bb99ba1161004d578063d7bb99ba14610122578063d8b9182b1461012c578063f60ca60d14610142578063ff3a9c7e146101725761007a565b80633cb5d1001461007e57806342e94c90146100ba57806369d89575146100f6578063b5545a3c1461010c575b5f80fd5b348015610089575f80fd5b506100a4600480360381019061009f9190610b0d565b61019c565b6040516100b19190610b77565b60405180910390f35b3480156100c5575f80fd5b506100e060048036038101906100db9190610bba565b6101d7565b6040516100ed9190610bf4565b60405180910390f35b348015610101575f80fd5b5061010a6101ec565b005b348015610117575f80fd5b506101206103df565b005b61012a6105dd565b005b348015610137575f80fd5b5061014061081c565b005b34801561014d575f80fd5b50610156610869565b6040516101699796959493929190610cd1565b60405180910390f35b34801561017d575f80fd5b50610186610948565b6040516101939190610e53565b60405180910390f35b600881815481106101ab575f80fd5b905f5260205f20015f915054906101000a900473ffffffffffffffffffffffffffffffffffffffff1681565b6007602052805f5260405f205f915090505481565b5f6001015f9054906101000a900473ffffffffffffffffffffffffffffffffffffffff1673ffffffffffffffffffffffffffffffffffffffff163373ffffffffffffffffffffffffffffffffffffffff161461027d576040517f08c379a000000000000000000000000000000000000000000000000000000000815260040161027490610ee3565b60405180910390fd5b5f600301545f6004015410156102c8576040517f08c379a00000000000000000000000000000000000000000000000000000000081526004016102bf90610f71565b60405180910390fd5b5f6006015f9054906101000a900460ff16610318576040517f08c379a000000000000000000000000000000000000000000000000000000000815260040161030f90610fff565b60405180910390fd5b5f6001015f9054906101000a900473ffffffffffffffffffffffffffffffffffffffff1673ffffffffffffffffffffffffffffffffffffffff166108fc5f6004015490811502906040515f60405180830381858888f19350505050158015610382573d5f803e3d5ffd5b505f806006015f6101000a81548160ff0219169083151502179055505f8001547f80230996023d69b50793fa73f1919127c9d8e741d3989743c479169f22e7a2885f600401546040516103d59190610bf4565b60405180910390a2565b5f15155f6006015f9054906101000a900460ff16151514610435576040517f08c379a000000000000000000000000000000000000000000000000000000000815260040161042c90611067565b60405180910390fd5b5f600301545f600401541061047f576040517f08c379a0000000000000000000000000000000000000000000000000000000008152600401610476906110cf565b60405180910390fd5b5f60075f3373ffffffffffffffffffffffffffffffffffffffff1673ffffffffffffffffffffffffffffffffffffffff1681526020019081526020015f205490505f8111610502576040517f08c379a00000000000000000000000000000000000000000000000000000000081526004016104f990611137565b60405180910390fd5b5f60075f3373ffffffffffffffffffffffffffffffffffffffff1673ffffffffffffffffffffffffffffffffffffffff1681526020019081526020015f20819055503373ffffffffffffffffffffffffffffffffffffffff166108fc8290811502906040515f60405180830381858888f19350505050158015610587573d5f803e3d5ffd5b503373ffffffffffffffffffffffffffffffffffffffff165f8001547f7a482fdeb6bc9a1376f597068a214a7a39472bb2eff1b8cad21ba04f49ddca1b836040516105d29190610bf4565b60405180910390a350565b5f6006015f9054906101000a900460ff1661062d576040517f08c379a0000000000000000000000000000000000000000000000000000000008152600401610624906111c5565b60405180910390fd5b5f60050154421115610674576040517f08c379a000000000000000000000000000000000000000000000000000000000815260040161066b90611253565b60405180910390fd5b5f34116106b6576040517f08c379a00000000000000000000000000000000000000000000000000000000081526004016106ad906112e1565b60405180910390fd5b5f60075f3373ffffffffffffffffffffffffffffffffffffffff1673ffffffffffffffffffffffffffffffffffffffff1681526020019081526020015f20540361075b57600833908060018154018082558091505060019003905f5260205f20015f9091909190916101000a81548173ffffffffffffffffffffffffffffffffffffffff021916908373ffffffffffffffffffffffffffffffffffffffff1602179055505b345f6004015f82825461076e919061132c565b925050819055503460075f3373ffffffffffffffffffffffffffffffffffffffff1673ffffffffffffffffffffffffffffffffffffffff1681526020019081526020015f205f8282546107c1919061132c565b925050819055503373ffffffffffffffffffffffffffffffffffffffff165f8001547f0a4a91237423e0a1766a761c7cb029311d8b95d6b1b81db1b949a70c98b4e08e346040516108129190610bf4565b60405180910390a3565b5f806006015f6101000a81548160ff0219169083151502179055505f8001547fa10da3bd85a8a7569325abd94177d0bbf25fbded5a3f6622a5588ce2cf1153ba60405160405180910390a2565b5f805f015490806001015f9054906101000a900473ffffffffffffffffffffffffffffffffffffffff16908060020180546108a39061138c565b80601f01602080910402602001604051908101604052809291908181526020018280546108cf9061138c565b801561091a5780601f106108f15761010080835404028352916020019161091a565b820191905f5260205f20905b8154815290600101906020018083116108fd57829003601f168201915b505050505090806003015490806004015490806005015490806006015f9054906101000a900460ff16905087565b610950610a87565b5f6040518060e00160405290815f8201548152602001600182015f9054906101000a900473ffffffffffffffffffffffffffffffffffffffff1673ffffffffffffffffffffffffffffffffffffffff1673ffffffffffffffffffffffffffffffffffffffff1681526020016002820180546109ca9061138c565b80601f01602080910402602001604051908101604052809291908181526020018280546109f69061138c565b8015610a415780601f10610a1857610100808354040283529160200191610a41565b820191905f5260205f20905b815481529060010190602001808311610a2457829003601f168201915b50505050508152602001600382015481526020016004820154815260200160058201548152602001600682015f9054906101000a900460ff161515151581525050905090565b6040518060e001604052805f81526020015f73ffffffffffffffffffffffffffffffffffffffff168152602001606081526020015f81526020015f81526020015f81526020015f151581525090565b5f80fd5b5f819050919050565b610aec81610ada565b8114610af6575f80fd5b50565b5f81359050610b0781610ae3565b92915050565b5f60208284031215610b2257610b21610ad6565b5b5f610b2f84828501610af9565b91505092915050565b5f73ffffffffffffffffffffffffffffffffffffffff82169050919050565b5f610b6182610b38565b9050919050565b610b7181610b57565b82525050565b5f602082019050610b8a5f830184610b68565b92915050565b610b9981610b57565b8114610ba3575f80fd5b50565b5f81359050610bb481610b90565b92915050565b5f60208284031215610bcf57610bce610ad6565b5b5f610bdc84828501610ba6565b91505092915050565b610bee81610ada565b82525050565b5f602082019050610c075f830184610be5565b92915050565b5f610c1782610b38565b9050919050565b610c2781610c0d565b82525050565b5f81519050919050565b5f82825260208201905092915050565b5f5b83811015610c64578082015181840152602081019050610c49565b5f8484015250505050565b5f601f19601f8301169050919050565b5f610c8982610c2d565b610c938185610c37565b9350610ca3818560208601610c47565b610cac81610c6f565b840191505092915050565b5f8115159050919050565b610ccb81610cb7565b82525050565b5f60e082019050610ce45f83018a610be5565b610cf16020830189610c1e565b8181036040830152610d038188610c7f565b9050610d126060830187610be5565b610d1f6080830186610be5565b610d2c60a0830185610be5565b610d3960c0830184610cc2565b98975050505050505050565b610d4e81610ada565b82525050565b610d5d81610c0d565b82525050565b5f82825260208201905092915050565b5f610d7d82610c2d565b610d878185610d63565b9350610d97818560208601610c47565b610da081610c6f565b840191505092915050565b610db481610cb7565b82525050565b5f60e083015f830151610dcf5f860182610d45565b506020830151610de26020860182610d54565b5060408301518482036040860152610dfa8282610d73565b9150506060830151610e0f6060860182610d45565b506080830151610e226080860182610d45565b5060a0830151610e3560a0860182610d45565b5060c0830151610e4860c0860182610dab565b508091505092915050565b5f6020820190508181035f830152610e6b8184610dba565b905092915050565b7f4f6e6c79207468652070726f6a656374206f776e65722063616e2072656c65615f8201527f73652066756e64732e0000000000000000000000000000000000000000000000602082015250565b5f610ecd602983610c37565b9150610ed882610e73565b604082019050919050565b5f6020820190508181035f830152610efa81610ec1565b9050919050565b7f46756e64696e6720676f616c20686173206e6f74206265656e207265616368655f8201527f642e000000000000000000000000000000000000000000000000000000000000602082015250565b5f610f5b602283610c37565b9150610f6682610f01565b604082019050919050565b5f6020820190508181035f830152610f8881610f4f565b9050919050565b7f46756e6473206861766520616c7265616479206265656e2072656c65617365645f8201527f206f722070726f6a65637420697320636c6f7365642e00000000000000000000602082015250565b5f610fe9603683610c37565b9150610ff482610f8f565b604082019050919050565b5f6020820190508181035f83015261101681610fdd565b9050919050565b7f50726f6a656374206973207374696c6c206f70656e2e000000000000000000005f82015250565b5f611051601683610c37565b915061105c8261101d565b602082019050919050565b5f6020820190508181035f83015261107e81611045565b9050919050565b7f46756e64696e6720676f616c20686173206265656e20726561636865642e00005f82015250565b5f6110b9601e83610c37565b91506110c482611085565b602082019050919050565b5f6020820190508181035f8301526110e6816110ad565b9050919050565b7f4e6f20636f6e747269627574696f6e7320746f20726566756e642e00000000005f82015250565b5f611121601b83610c37565b915061112c826110ed565b602082019050919050565b5f6020820190508181035f83015261114e81611115565b9050919050565b7f50726f6a656374206973206e6f74206f70656e20666f7220636f6e74726962755f8201527f74696f6e732e0000000000000000000000000000000000000000000000000000602082015250565b5f6111af602683610c37565b91506111ba82611155565b604082019050919050565b5f6020820190508181035f8301526111dc816111a3565b9050919050565b7f5468652066756e64696e6720706572696f6420666f7220746869732070726f6a5f8201527f6563742068617320656e6465642e000000000000000000000000000000000000602082015250565b5f61123d602e83610c37565b9150611248826111e3565b604082019050919050565b5f6020820190508181035f83015261126a81611231565b9050919050565b7f436f6e747269627574696f6e20616d6f756e74206d75737420626520677265615f8201527f746572207468616e207a65726f2e000000000000000000000000000000000000602082015250565b5f6112cb602e83610c37565b91506112d682611271565b604082019050919050565b5f6020820190508181035f8301526112f8816112bf565b9050919050565b7f4e487b71000000000000000000000000000000000000000000000000000000005f52601160045260245ffd5b5f61133682610ada565b915061134183610ada565b9250828201905080821115611359576113586112ff565b5b92915050565b7f4e487b71000000000000000000000000000000000000000000000000000000005f52602260045260245ffd5b5f60028204905060018216806113a357607f821691505b6020821081036113b6576113b561135f565b5b5091905056fea26469706673582212202ea1d6268dcd7c68f7ea26b486e38dc182870fb89038610694b404b064d3675c64736f6c63430008150033",
  "immutableReferences": {},
  "source": "// SPDX-License-Identifier: MIT\r\npragma solidity ^0.8.0;\r\n\r\ncontract Project {\r\n    struct ProjectDetails {\r\n        uint id;\r\n        address payable owner;\r\n        string ipfsURL;\r\n        uint goal;\r\n        uint amountRaised;\r\n        uint deadline;\r\n        bool isOpen;\r\n    }\r\n\r\n    ProjectDetails public project;\r\n    mapping(address => uint) public contributions;\r\n    address[] public contributors;\r\n\r\n    event ContributionMade(uint indexed projectId, address indexed contributor, uint amount);\r\n    event FundsReleased(uint indexed projectId, uint amount);\r\n    event RefundIssued(uint indexed projectId, address indexed contributor, uint amount);\r\n    event ProjectClosed(uint indexed projectId);\r\n\r\n    constructor(\r\n        uint projectId,\r\n        string memory ipfsURL,\r\n        uint goal,\r\n        uint durationInMinutes,\r\n        address payable owner) {\r\n        project = ProjectDetails({\r\n            id: projectId,\r\n            owner: owner,\r\n            ipfsURL: ipfsURL,\r\n            goal: goal,\r\n            amountRaised: 0,\r\n            deadline: block.timestamp + (durationInMinutes * 1 minutes),\r\n            isOpen: true\r\n        });\r\n    }\r\n\r\n    function contribute() public payable {\r\n        require(project.isOpen, \"Project is not open for contributions.\");\r\n        require(block.timestamp <= project.deadline, \"The funding period for this project has ended.\");\r\n        require(msg.value > 0, \"Contribution amount must be greater than zero.\");\r\n\r\n        if (contributions[msg.sender] == 0) {\r\n            contributors.push(msg.sender);\r\n        }\r\n\r\n        project.amountRaised += msg.value;\r\n        contributions[msg.sender] += msg.value;\r\n\r\n        emit ContributionMade(project.id, msg.sender, msg.value);\r\n    }\r\n\r\n    function releaseFunds() public {\r\n        require(msg.sender == project.owner, \"Only the project owner can release funds.\");\r\n        require(project.amountRaised >= project.goal, \"Funding goal has not been reached.\");\r\n        require(project.isOpen, \"Funds have already been released or project is closed.\");\r\n\r\n        project.owner.transfer(project.amountRaised);\r\n        project.isOpen = false;\r\n\r\n        emit FundsReleased(project.id, project.amountRaised);\r\n    }\r\n\r\n    function claimRefund() public {\r\n        require(project.isOpen == false, \"Project is still open.\");\r\n        require(project.amountRaised < project.goal, \"Funding goal has been reached.\");\r\n\r\n        uint amount = contributions[msg.sender];\r\n        require(amount > 0, \"No contributions to refund.\");\r\n\r\n        contributions[msg.sender] = 0;\r\n        payable(msg.sender).transfer(amount);\r\n\r\n        emit RefundIssued(project.id, msg.sender, amount);\r\n    }\r\n\r\n    function closeProject() public {\r\n        project.isOpen = false;\r\n        emit ProjectClosed(project.id);\r\n    }\r\n\r\n    function getProjectDetails() public view returns (ProjectDetails memory) {\r\n        return project;\r\n    }\r\n}",
  "sourcePath": "C:\\Users\\y509100\\OneDrive - Software AG\\Desktop\\unsw\\blockchain application\\pro2\\crowdfunding_dApp\\backend\\contracts\\Project.sol",
  "compiler": {
    "name": "solc",
    "version": "0.8.21+commit.d9974bed.Emscripten.clang"
  },
  "schemaVersion": "3.4.16",
  "updatedAt": "2024-07-31T02:12:16.531Z",
  "devdoc": {
    "kind": "dev",
    "methods": {},
    "version": 1
  },
  "userdoc": {
    "kind": "user",
    "methods": {},
    "version": 1
  }
}