{
  "contractName": "ProjectFactory",
  "abi": [
    {
      "inputs": [
        {
          "internalType": "address",
          "name": "_userFactory",
          "type": "address"
        }
      ],
      "stateMutability": "nonpayable",
      "type": "constructor"
    },
    {
      "anonymous": false,
      "inputs": [
        {
          "indexed": true,
          "internalType": "uint256",
          "name": "projectId",
          "type": "uint256"
        },
        {
          "indexed": false,
          "internalType": "address",
          "name": "projectAddress",
          "type": "address"
        },
        {
          "indexed": false,
          "internalType": "address",
          "name": "owner",
          "type": "address"
        },
        {
          "indexed": false,
          "internalType": "string",
          "name": "ipfsURL",
          "type": "string"
        },
        {
          "indexed": false,
          "internalType": "uint256",
          "name": "goal",
          "type": "uint256"
        },
        {
          "indexed": false,
          "internalType": "uint256",
          "name": "deadline",
          "type": "uint256"
        }
      ],
      "name": "ProjectCreated",
      "type": "event"
    },
    {
      "inputs": [],
      "name": "projectCount",
      "outputs": [
        {
          "internalType": "uint256",
          "name": "",
          "type": "uint256"
        }
      ],
      "stateMutability": "view",
      "type": "function"
    },
    {
      "inputs": [
        {
          "internalType": "uint256",
          "name": "",
          "type": "uint256"
        }
      ],
      "name": "projects",
      "outputs": [
        {
          "internalType": "contract Project",
          "name": "",
          "type": "address"
        }
      ],
      "stateMutability": "view",
      "type": "function"
    },
    {
      "inputs": [],
      "name": "userFactory",
      "outputs": [
        {
          "internalType": "contract UserFactory",
          "name": "",
          "type": "address"
        }
      ],
      "stateMutability": "view",
      "type": "function"
    },
    {
      "inputs": [
        {
          "internalType": "string",
          "name": "ipfsURL",
          "type": "string"
        },
        {
          "internalType": "uint256",
          "name": "goal",
          "type": "uint256"
        },
        {
          "internalType": "uint256",
          "name": "duration",
          "type": "uint256"
        }
      ],
      "name": "createProject",
      "outputs": [],
      "stateMutability": "nonpayable",
      "type": "function"
    },
    {
      "inputs": [],
      "name": "getProjects",
      "outputs": [
        {
          "internalType": "contract Project[]",
          "name": "",
          "type": "address[]"
        }
      ],
      "stateMutability": "view",
      "type": "function"
    }
  ],
  "bytecode": "0x608060405234801561001057600080fd5b506040516123883803806123888339818101604052810190610032919061008e565b80600260006101000a81548173ffffffffffffffffffffffffffffffffffffffff021916908373ffffffffffffffffffffffffffffffffffffffff16021790555050610100565b600081519050610088816100e9565b92915050565b6000602082840312156100a057600080fd5b60006100ae84828501610079565b91505092915050565b60006100c2826100c9565b9050919050565b600073ffffffffffffffffffffffffffffffffffffffff82169050919050565b6100f2816100b7565b81146100fd57600080fd5b50565b6122798061010f6000396000f3fe60806040523480156200001157600080fd5b50600436106200005e5760003560e01c8063107046bd1462000063578063283097ab146200009957806336fbad2614620000bb578063dcc6012814620000dd578063f3a6ac5f14620000ff575b600080fd5b6200008160048036038101906200007b91906200042f565b6200011f565b6040516200009091906200060e565b60405180910390f35b620000a36200015f565b604051620000b291906200062b565b60405180910390f35b620000c562000185565b604051620000d4919062000648565b60405180910390f35b620000e76200018b565b604051620000f69190620005ea565b60405180910390f35b6200011d6004803603810190620001179190620003c0565b6200021b565b005b600081815481106200013057600080fd5b906000526020600020016000915054906101000a900473ffffffffffffffffffffffffffffffffffffffff1681565b600260009054906101000a900473ffffffffffffffffffffffffffffffffffffffff1681565b60015481565b606060008054806020026020016040519081016040528092919081815260200182805480156200021157602002820191906000526020600020905b8160009054906101000a900473ffffffffffffffffffffffffffffffffffffffff1673ffffffffffffffffffffffffffffffffffffffff1681526020019060010190808311620001c6575b5050505050905090565b6001600081548092919062000230906200086c565b91905055506000600154848484336040516200024c9062000329565b6200025c95949392919062000665565b604051809103906000f08015801562000279573d6000803e3d6000fd5b5090506000819080600181540180825580915050600190039060005260206000200160009091909190916101000a81548173ffffffffffffffffffffffffffffffffffffffff021916908373ffffffffffffffffffffffffffffffffffffffff1602179055506001547f49a3f53cddf4d3883291c8aed22f133a1a2e56aefa286170b9bde9796d9ac7f982338787876040516200031b95949392919062000586565b60405180910390a250505050565b611900806200094483390190565b60006200034e6200034884620006fd565b620006c9565b9050828152602081018484840111156200036757600080fd5b6200037484828562000827565b509392505050565b600082601f8301126200038e57600080fd5b8135620003a084826020860162000337565b91505092915050565b600081359050620003ba8162000929565b92915050565b600080600060608486031215620003d657600080fd5b600084013567ffffffffffffffff811115620003f157600080fd5b620003ff868287016200037c565b93505060206200041286828701620003a9565b92505060406200042586828701620003a9565b9150509250925092565b6000602082840312156200044257600080fd5b60006200045284828501620003a9565b91505092915050565b600062000469838362000501565b60208301905092915050565b620004808162000799565b82525050565b620004918162000785565b82525050565b6000620004a48262000740565b620004b0818562000763565b9350620004bd8362000730565b8060005b83811015620004f4578151620004d888826200045b565b9750620004e58362000756565b925050600181019050620004c1565b5085935050505092915050565b6200050c81620007d7565b82525050565b6200051d81620007d7565b82525050565b6200052e81620007ff565b82525050565b600062000541826200074b565b6200054d818562000774565b93506200055f81856020860162000836565b6200056a8162000918565b840191505092915050565b6200058081620007cd565b82525050565b600060a0820190506200059d600083018862000486565b620005ac602083018762000486565b8181036040830152620005c0818662000534565b9050620005d1606083018562000575565b620005e0608083018462000575565b9695505050505050565b6000602082019050818103600083015262000606818462000497565b905092915050565b600060208201905062000625600083018462000512565b92915050565b600060208201905062000642600083018462000523565b92915050565b60006020820190506200065f600083018462000575565b92915050565b600060a0820190506200067c600083018862000575565b818103602083015262000690818762000534565b9050620006a1604083018662000575565b620006b0606083018562000575565b620006bf608083018462000475565b9695505050505050565b6000604051905081810181811067ffffffffffffffff82111715620006f357620006f2620008e9565b5b8060405250919050565b600067ffffffffffffffff8211156200071b576200071a620008e9565b5b601f19601f8301169050602081019050919050565b6000819050602082019050919050565b600081519050919050565b600081519050919050565b6000602082019050919050565b600082825260208201905092915050565b600082825260208201905092915050565b60006200079282620007ad565b9050919050565b6000620007a682620007ad565b9050919050565b600073ffffffffffffffffffffffffffffffffffffffff82169050919050565b6000819050919050565b6000620007e482620007eb565b9050919050565b6000620007f882620007ad565b9050919050565b60006200080c8262000813565b9050919050565b60006200082082620007ad565b9050919050565b82818337600083830152505050565b60005b838110156200085657808201518184015260208101905062000839565b8381111562000866576000848401525b50505050565b60006200087982620007cd565b91507fffffffffffffffffffffffffffffffffffffffffffffffffffffffffffffffff821415620008af57620008ae620008ba565b5b600182019050919050565b7f4e487b7100000000000000000000000000000000000000000000000000000000600052601160045260246000fd5b7f4e487b7100000000000000000000000000000000000000000000000000000000600052604160045260246000fd5b6000601f19601f8301169050919050565b6200093481620007cd565b81146200094057600080fd5b5056fe60806040523480156200001157600080fd5b5060405162001900380380620019008339818101604052810190620000379190620002ac565b6040518060e001604052808681526020018273ffffffffffffffffffffffffffffffffffffffff16815260200185815260200184815260200160008152602001603c846200008691906200040b565b42620000939190620003ae565b815260200160011515815250600080820151816000015560208201518160010160006101000a81548173ffffffffffffffffffffffffffffffffffffffff021916908373ffffffffffffffffffffffffffffffffffffffff16021790555060408201518160020190805190602001906200010f9291906200015c565b50606082015181600301556080820151816004015560a0820151816005015560c08201518160060160006101000a81548160ff0219169083151502179055509050505050505050620005d7565b8280546200016a90620004e0565b90600052602060002090601f0160209004810192826200018e5760008555620001da565b82601f10620001a957805160ff1916838001178555620001da565b82800160010185558215620001da579182015b82811115620001d9578251825591602001919060010190620001bc565b5b509050620001e99190620001ed565b5090565b5b8082111562000208576000816000905550600101620001ee565b5090565b6000620002236200021d846200037b565b62000347565b9050828152602081018484840111156200023c57600080fd5b62000249848285620004aa565b509392505050565b6000815190506200026281620005a3565b92915050565b600082601f8301126200027a57600080fd5b81516200028c8482602086016200020c565b91505092915050565b600081519050620002a681620005bd565b92915050565b600080600080600060a08688031215620002c557600080fd5b6000620002d58882890162000295565b955050602086015167ffffffffffffffff811115620002f357600080fd5b620003018882890162000268565b9450506040620003148882890162000295565b9350506060620003278882890162000295565b92505060806200033a8882890162000251565b9150509295509295909350565b6000604051905081810181811067ffffffffffffffff8211171562000371576200037062000574565b5b8060405250919050565b600067ffffffffffffffff82111562000399576200039862000574565b5b601f19601f8301169050602081019050919050565b6000620003bb82620004a0565b9150620003c883620004a0565b9250827fffffffffffffffffffffffffffffffffffffffffffffffffffffffffffffffff038211156200040057620003ff62000516565b5b828201905092915050565b60006200041882620004a0565b91506200042583620004a0565b9250817fffffffffffffffffffffffffffffffffffffffffffffffffffffffffffffffff048311821515161562000461576200046062000516565b5b828202905092915050565b6000620004798262000480565b9050919050565b600073ffffffffffffffffffffffffffffffffffffffff82169050919050565b6000819050919050565b60005b83811015620004ca578082015181840152602081019050620004ad565b83811115620004da576000848401525b50505050565b60006002820490506001821680620004f957607f821691505b6020821081141562000510576200050f62000545565b5b50919050565b7f4e487b7100000000000000000000000000000000000000000000000000000000600052601160045260246000fd5b7f4e487b7100000000000000000000000000000000000000000000000000000000600052602260045260246000fd5b7f4e487b7100000000000000000000000000000000000000000000000000000000600052604160045260246000fd5b620005ae816200046c565b8114620005ba57600080fd5b50565b620005c881620004a0565b8114620005d457600080fd5b50565b61131980620005e76000396000f3fe6080604052600436106100705760003560e01c8063d7bb99ba1161004e578063d7bb99ba14610106578063d8b9182b14610110578063f60ca60d14610127578063ff3a9c7e1461015857610070565b80633cb5d1001461007557806342e94c90146100b257806369d89575146100ef575b600080fd5b34801561008157600080fd5b5061009c60048036038101906100979190610b29565b610183565b6040516100a99190610f2d565b60405180910390f35b3480156100be57600080fd5b506100d960048036038101906100d49190610b00565b6101c2565b6040516100e6919061102a565b60405180910390f35b3480156100fb57600080fd5b506101046101da565b005b61010e6103dd565b005b34801561011c57600080fd5b5061012561062d565b005b34801561013357600080fd5b5061013c610685565b60405161014f9796959493929190611045565b60405180910390f35b34801561016457600080fd5b5061016d61076a565b60405161017a9190611008565b60405180910390f35b6008818154811061019357600080fd5b906000526020600020016000915054906101000a900473ffffffffffffffffffffffffffffffffffffffff1681565b60076020528060005260406000206000915090505481565b600060010160009054906101000a900473ffffffffffffffffffffffffffffffffffffffff1673ffffffffffffffffffffffffffffffffffffffff163373ffffffffffffffffffffffffffffffffffffffff161461026d576040517f08c379a000000000000000000000000000000000000000000000000000000000815260040161026490610fc8565b60405180910390fd5b60006003015460006004015410156102ba576040517f08c379a00000000000000000000000000000000000000000000000000000000081526004016102b190610f88565b60405180910390fd5b600060060160009054906101000a900460ff1661030c576040517f08c379a000000000000000000000000000000000000000000000000000000000815260040161030390610fe8565b60405180910390fd5b600060010160009054906101000a900473ffffffffffffffffffffffffffffffffffffffff1673ffffffffffffffffffffffffffffffffffffffff166108fc6000600401549081150290604051600060405180830381858888f1935050505015801561037c573d6000803e3d6000fd5b5060008060060160006101000a81548160ff02191690831515021790555060008001547f80230996023d69b50793fa73f1919127c9d8e741d3989743c479169f22e7a2886000600401546040516103d3919061102a565b60405180910390a2565b600060060160009054906101000a900460ff1661042f576040517f08c379a000000000000000000000000000000000000000000000000000000000815260040161042690610fa8565b60405180910390fd5b600060050154421115610477576040517f08c379a000000000000000000000000000000000000000000000000000000000815260040161046e90610f68565b60405180910390fd5b600034116104ba576040517f08c379a00000000000000000000000000000000000000000000000000000000081526004016104b190610f48565b60405180910390fd5b6000600760003373ffffffffffffffffffffffffffffffffffffffff1673ffffffffffffffffffffffffffffffffffffffff168152602001908152602001600020541415610566576008339080600181540180825580915050600190039060005260206000200160009091909190916101000a81548173ffffffffffffffffffffffffffffffffffffffff021916908373ffffffffffffffffffffffffffffffffffffffff1602179055505b346000600401600082825461057b91906110e8565b9250508190555034600760003373ffffffffffffffffffffffffffffffffffffffff1673ffffffffffffffffffffffffffffffffffffffff16815260200190815260200160002060008282546105d191906110e8565b925050819055503373ffffffffffffffffffffffffffffffffffffffff1660008001547f0a4a91237423e0a1766a761c7cb029311d8b95d6b1b81db1b949a70c98b4e08e34604051610623919061102a565b60405180910390a3565b6106356108af565b60008060060160006101000a81548160ff02191690831515021790555060008001547fa10da3bd85a8a7569325abd94177d0bbf25fbded5a3f6622a5588ce2cf1153ba60405160405180910390a2565b60008060000154908060010160009054906101000a900473ffffffffffffffffffffffffffffffffffffffff16908060020180546106c2906111cb565b80601f01602080910402602001604051908101604052809291908181526020018280546106ee906111cb565b801561073b5780601f106107105761010080835404028352916020019161073b565b820191906000526020600020905b81548152906001019060200180831161071e57829003601f168201915b5050505050908060030154908060040154908060050154908060060160009054906101000a900460ff16905087565b610772610a81565b60006040518060e0016040529081600082015481526020016001820160009054906101000a900473ffffffffffffffffffffffffffffffffffffffff1673ffffffffffffffffffffffffffffffffffffffff1673ffffffffffffffffffffffffffffffffffffffff1681526020016002820180546107ef906111cb565b80601f016020809104026020016040519081016040528092919081815260200182805461081b906111cb565b80156108685780601f1061083d57610100808354040283529160200191610868565b820191906000526020600020905b81548152906001019060200180831161084b57829003601f168201915b505050505081526020016003820154815260200160048201548152602001600582015481526020016006820160009054906101000a900460ff161515151581525050905090565b600060088054905014156108c257610a7f565b60005b600880549050811015610a7d5760006008828154811061090e577f4e487b7100000000000000000000000000000000000000000000000000000000600052603260045260246000fd5b9060005260206000200160009054906101000a900473ffffffffffffffffffffffffffffffffffffffff1690506000600760008373ffffffffffffffffffffffffffffffffffffffff1673ffffffffffffffffffffffffffffffffffffffff1681526020019081526020016000205490506000811115610a68576000600760008473ffffffffffffffffffffffffffffffffffffffff1673ffffffffffffffffffffffffffffffffffffffff168152602001908152602001600020819055508173ffffffffffffffffffffffffffffffffffffffff166108fc829081150290604051600060405180830381858888f19350505050158015610a13573d6000803e3d6000fd5b508173ffffffffffffffffffffffffffffffffffffffff1660008001547f7a482fdeb6bc9a1376f597068a214a7a39472bb2eff1b8cad21ba04f49ddca1b83604051610a5f919061102a565b60405180910390a35b50508080610a75906111fd565b9150506108c5565b505b565b6040518060e0016040528060008152602001600073ffffffffffffffffffffffffffffffffffffffff168152602001606081526020016000815260200160008152602001600081526020016000151581525090565b600081359050610ae5816112b5565b92915050565b600081359050610afa816112cc565b92915050565b600060208284031215610b1257600080fd5b6000610b2084828501610ad6565b91505092915050565b600060208284031215610b3b57600080fd5b6000610b4984828501610aeb565b91505092915050565b610b5b81611150565b82525050565b610b6a81611150565b82525050565b610b798161113e565b82525050565b610b8881611162565b82525050565b610b9781611162565b82525050565b6000610ba8826110bb565b610bb281856110c6565b9350610bc2818560208601611198565b610bcb816112a4565b840191505092915050565b6000610be1826110bb565b610beb81856110d7565b9350610bfb818560208601611198565b610c04816112a4565b840191505092915050565b6000610c1c602e836110d7565b91507f436f6e747269627574696f6e20616d6f756e74206d757374206265206772656160008301527f746572207468616e207a65726f2e0000000000000000000000000000000000006020830152604082019050919050565b6000610c82602e836110d7565b91507f5468652066756e64696e6720706572696f6420666f7220746869732070726f6a60008301527f6563742068617320656e6465642e0000000000000000000000000000000000006020830152604082019050919050565b6000610ce86022836110d7565b91507f46756e64696e6720676f616c20686173206e6f74206265656e2072656163686560008301527f642e0000000000000000000000000000000000000000000000000000000000006020830152604082019050919050565b6000610d4e6026836110d7565b91507f50726f6a656374206973206e6f74206f70656e20666f7220636f6e747269627560008301527f74696f6e732e00000000000000000000000000000000000000000000000000006020830152604082019050919050565b6000610db46029836110d7565b91507f4f6e6c79207468652070726f6a656374206f776e65722063616e2072656c656160008301527f73652066756e64732e00000000000000000000000000000000000000000000006020830152604082019050919050565b6000610e1a6036836110d7565b91507f46756e6473206861766520616c7265616479206265656e2072656c656173656460008301527f206f722070726f6a65637420697320636c6f7365642e000000000000000000006020830152604082019050919050565b600060e083016000830151610e8b6000860182610f0f565b506020830151610e9e6020860182610b52565b5060408301518482036040860152610eb68282610b9d565b9150506060830151610ecb6060860182610f0f565b506080830151610ede6080860182610f0f565b5060a0830151610ef160a0860182610f0f565b5060c0830151610f0460c0860182610b7f565b508091505092915050565b610f188161118e565b82525050565b610f278161118e565b82525050565b6000602082019050610f426000830184610b70565b92915050565b60006020820190508181036000830152610f6181610c0f565b9050919050565b60006020820190508181036000830152610f8181610c75565b9050919050565b60006020820190508181036000830152610fa181610cdb565b9050919050565b60006020820190508181036000830152610fc181610d41565b9050919050565b60006020820190508181036000830152610fe181610da7565b9050919050565b6000602082019050818103600083015261100181610e0d565b9050919050565b600060208201905081810360008301526110228184610e73565b905092915050565b600060208201905061103f6000830184610f1e565b92915050565b600060e08201905061105a600083018a610f1e565b6110676020830189610b61565b81810360408301526110798188610bd6565b90506110886060830187610f1e565b6110956080830186610f1e565b6110a260a0830185610f1e565b6110af60c0830184610b8e565b98975050505050505050565b600081519050919050565b600082825260208201905092915050565b600082825260208201905092915050565b60006110f38261118e565b91506110fe8361118e565b9250827fffffffffffffffffffffffffffffffffffffffffffffffffffffffffffffffff0382111561113357611132611246565b5b828201905092915050565b60006111498261116e565b9050919050565b600061115b8261116e565b9050919050565b60008115159050919050565b600073ffffffffffffffffffffffffffffffffffffffff82169050919050565b6000819050919050565b60005b838110156111b657808201518184015260208101905061119b565b838111156111c5576000848401525b50505050565b600060028204905060018216806111e357607f821691505b602082108114156111f7576111f6611275565b5b50919050565b60006112088261118e565b91507fffffffffffffffffffffffffffffffffffffffffffffffffffffffffffffffff82141561123b5761123a611246565b5b600182019050919050565b7f4e487b7100000000000000000000000000000000000000000000000000000000600052601160045260246000fd5b7f4e487b7100000000000000000000000000000000000000000000000000000000600052602260045260246000fd5b6000601f19601f8301169050919050565b6112be8161113e565b81146112c957600080fd5b50565b6112d58161118e565b81146112e057600080fd5b5056fea2646970667358221220ae998a922e8bc0e885f4cfd5871549580c65d19a00d897d8789738a7fb2cf10e64736f6c63430008000033a2646970667358221220c7cfe744e5831a4d8e546c1566319ba0ff2ac5ca831ed36e4e2a4e6ed1ee938664736f6c63430008000033",
  "immutableReferences": {},
  "source": "// SPDX-License-Identifier: MIT\r\npragma solidity ^0.8.0;\r\n\r\nimport \"./Project.sol\";\r\nimport \"./UserFactory.sol\";\r\n\r\ncontract ProjectFactory {\r\n    Project[] public projects;\r\n    uint public projectCount;\r\n    UserFactory public userFactory;\r\n\r\n    event ProjectCreated(\r\n        uint indexed projectId,\r\n        address projectAddress,\r\n        address owner,\r\n        string ipfsURL,\r\n        uint goal,\r\n        uint deadline\r\n    );\r\n\r\n    constructor(address _userFactory) {\r\n        userFactory = UserFactory(_userFactory);\r\n    }\r\n\r\n    function createProject(string memory ipfsURL, uint goal, uint duration) public {\r\n        projectCount++;\r\n        Project newProject = new Project(projectCount, ipfsURL, goal, duration, payable(msg.sender));\r\n        projects.push(newProject);\r\n        emit ProjectCreated(projectCount, address(newProject), msg.sender, ipfsURL, goal, duration);\r\n    }\r\n\r\n    function getProjects() public view returns (Project[] memory) {\r\n        return projects;\r\n    }\r\n}\r\n",
  "sourcePath": "E:\\vscodeproject\\Comp6452\\crowdfunding_dApp\\backend\\contracts\\ProjectFactory.sol",
  "compiler": {
    "name": "solc",
    "version": "0.8.0+commit.c7dfd78e.Emscripten.clang"
  },
  "schemaVersion": "3.4.16",
  "updatedAt": "2024-07-26T03:06:22.805Z",
  "devdoc": {
    "kind": "dev",
    "methods": {},
    "version": 1
  },
  "userdoc": {
    "kind": "user",
    "methods": {},
    "version": 1
  }
}