{
  "contractName": "Project",
  "abi": [
    {
      "inputs": [
        {
          "internalType": "uint256",
          "name": "projectId",
          "type": "uint256"
        },
        {
          "internalType": "string",
          "name": "ipfsURL",
          "type": "string"
        },
        {
          "internalType": "uint256",
          "name": "goal",
          "type": "uint256"
        },
        {
          "internalType": "uint256",
          "name": "durationInMinutes",
          "type": "uint256"
        },
        {
          "internalType": "address payable",
          "name": "owner",
          "type": "address"
        }
      ],
      "stateMutability": "nonpayable",
      "type": "constructor"
    },
    {
      "anonymous": false,
      "inputs": [
        {
          "indexed": true,
          "internalType": "uint256",
          "name": "projectId",
          "type": "uint256"
        },
        {
          "indexed": true,
          "internalType": "address",
          "name": "contributor",
          "type": "address"
        },
        {
          "indexed": false,
          "internalType": "uint256",
          "name": "amount",
          "type": "uint256"
        }
      ],
      "name": "ContributionMade",
      "type": "event"
    },
    {
      "anonymous": false,
      "inputs": [
        {
          "indexed": true,
          "internalType": "uint256",
          "name": "projectId",
          "type": "uint256"
        },
        {
          "indexed": false,
          "internalType": "uint256",
          "name": "amount",
          "type": "uint256"
        }
      ],
      "name": "FundsReleased",
      "type": "event"
    },
    {
      "anonymous": false,
      "inputs": [
        {
          "indexed": true,
          "internalType": "uint256",
          "name": "projectId",
          "type": "uint256"
        }
      ],
      "name": "ProjectClosed",
      "type": "event"
    },
    {
      "anonymous": false,
      "inputs": [
        {
          "indexed": true,
          "internalType": "uint256",
          "name": "projectId",
          "type": "uint256"
        },
        {
          "indexed": true,
          "internalType": "address",
          "name": "contributor",
          "type": "address"
        },
        {
          "indexed": false,
          "internalType": "uint256",
          "name": "amount",
          "type": "uint256"
        }
      ],
      "name": "RefundIssued",
      "type": "event"
    },
    {
      "inputs": [
        {
          "internalType": "address",
          "name": "",
          "type": "address"
        }
      ],
      "name": "contributions",
      "outputs": [
        {
          "internalType": "uint256",
          "name": "",
          "type": "uint256"
        }
      ],
      "stateMutability": "view",
      "type": "function"
    },
    {
      "inputs": [
        {
          "internalType": "uint256",
          "name": "",
          "type": "uint256"
        }
      ],
      "name": "contributors",
      "outputs": [
        {
          "internalType": "address",
          "name": "",
          "type": "address"
        }
      ],
      "stateMutability": "view",
      "type": "function"
    },
    {
      "inputs": [],
      "name": "project",
      "outputs": [
        {
          "internalType": "uint256",
          "name": "id",
          "type": "uint256"
        },
        {
          "internalType": "address payable",
          "name": "owner",
          "type": "address"
        },
        {
          "internalType": "string",
          "name": "ipfsURL",
          "type": "string"
        },
        {
          "internalType": "uint256",
          "name": "goal",
          "type": "uint256"
        },
        {
          "internalType": "uint256",
          "name": "amountRaised",
          "type": "uint256"
        },
        {
          "internalType": "uint256",
          "name": "deadline",
          "type": "uint256"
        },
        {
          "internalType": "bool",
          "name": "isOpen",
          "type": "bool"
        }
      ],
      "stateMutability": "view",
      "type": "function"
    },
    {
      "inputs": [],
      "name": "contribute",
      "outputs": [],
      "stateMutability": "payable",
      "type": "function"
    },
    {
      "inputs": [],
      "name": "releaseFunds",
      "outputs": [],
      "stateMutability": "nonpayable",
      "type": "function"
    },
    {
      "inputs": [],
      "name": "closeProject",
      "outputs": [],
      "stateMutability": "nonpayable",
      "type": "function"
    },
    {
      "inputs": [],
      "name": "getProjectDetails",
      "outputs": [
        {
          "components": [
            {
              "internalType": "uint256",
              "name": "id",
              "type": "uint256"
            },
            {
              "internalType": "address payable",
              "name": "owner",
              "type": "address"
            },
            {
              "internalType": "string",
              "name": "ipfsURL",
              "type": "string"
            },
            {
              "internalType": "uint256",
              "name": "goal",
              "type": "uint256"
            },
            {
              "internalType": "uint256",
              "name": "amountRaised",
              "type": "uint256"
            },
            {
              "internalType": "uint256",
              "name": "deadline",
              "type": "uint256"
            },
            {
              "internalType": "bool",
              "name": "isOpen",
              "type": "bool"
            }
          ],
          "internalType": "struct Project.ProjectDetails",
          "name": "",
          "type": "tuple"
        }
      ],
      "stateMutability": "view",
      "type": "function"
    }
  ],
  "bytecode": "0x608060405234801562000010575f80fd5b5060405162001a8e38038062001a8e83398181016040528101906200003691906200036d565b6040518060e001604052808681526020018273ffffffffffffffffffffffffffffffffffffffff1681526020018581526020018481526020015f8152602001603c846200008491906200043d565b4262000091919062000487565b8152602001600115158152505f80820151815f01556020820151816001015f6101000a81548173ffffffffffffffffffffffffffffffffffffffff021916908373ffffffffffffffffffffffffffffffffffffffff1602179055506040820151816002019081620001039190620006ef565b50606082015181600301556080820151816004015560a0820151816005015560c0820151816006015f6101000a81548160ff0219169083151502179055509050505050505050620007d3565b5f604051905090565b5f80fd5b5f80fd5b5f819050919050565b620001748162000160565b81146200017f575f80fd5b50565b5f81519050620001928162000169565b92915050565b5f80fd5b5f80fd5b5f601f19601f8301169050919050565b7f4e487b71000000000000000000000000000000000000000000000000000000005f52604160045260245ffd5b620001e882620001a0565b810181811067ffffffffffffffff821117156200020a5762000209620001b0565b5b80604052505050565b5f6200021e6200014f565b90506200022c8282620001dd565b919050565b5f67ffffffffffffffff8211156200024e576200024d620001b0565b5b6200025982620001a0565b9050602081019050919050565b5f5b838110156200028557808201518184015260208101905062000268565b5f8484015250505050565b5f620002a6620002a08462000231565b62000213565b905082815260208101848484011115620002c557620002c46200019c565b5b620002d284828562000266565b509392505050565b5f82601f830112620002f157620002f062000198565b5b81516200030384826020860162000290565b91505092915050565b5f73ffffffffffffffffffffffffffffffffffffffff82169050919050565b5f62000337826200030c565b9050919050565b62000349816200032b565b811462000354575f80fd5b50565b5f8151905062000367816200033e565b92915050565b5f805f805f60a0868803121562000389576200038862000158565b5b5f620003988882890162000182565b955050602086015167ffffffffffffffff811115620003bc57620003bb6200015c565b5b620003ca88828901620002da565b9450506040620003dd8882890162000182565b9350506060620003f08882890162000182565b9250506080620004038882890162000357565b9150509295509295909350565b7f4e487b71000000000000000000000000000000000000000000000000000000005f52601160045260245ffd5b5f620004498262000160565b9150620004568362000160565b9250828202620004668162000160565b9150828204841483151762000480576200047f62000410565b5b5092915050565b5f620004938262000160565b9150620004a08362000160565b9250828201905080821115620004bb57620004ba62000410565b5b92915050565b5f81519050919050565b7f4e487b71000000000000000000000000000000000000000000000000000000005f52602260045260245ffd5b5f60028204905060018216806200051057607f821691505b602082108103620005265762000525620004cb565b5b50919050565b5f819050815f5260205f209050919050565b5f6020601f8301049050919050565b5f82821b905092915050565b5f600883026200058a7fffffffffffffffffffffffffffffffffffffffffffffffffffffffffffffffff826200054d565b6200059686836200054d565b95508019841693508086168417925050509392505050565b5f819050919050565b5f620005d7620005d1620005cb8462000160565b620005ae565b62000160565b9050919050565b5f819050919050565b620005f283620005b7565b6200060a6200060182620005de565b84845462000559565b825550505050565b5f90565b6200062062000612565b6200062d818484620005e7565b505050565b5b818110156200065457620006485f8262000616565b60018101905062000633565b5050565b601f821115620006a3576200066d816200052c565b62000678846200053e565b8101602085101562000688578190505b620006a062000697856200053e565b83018262000632565b50505b505050565b5f82821c905092915050565b5f620006c55f1984600802620006a8565b1980831691505092915050565b5f620006df8383620006b4565b9150826002028217905092915050565b620006fa82620004c1565b67ffffffffffffffff811115620007165762000715620001b0565b5b620007228254620004f8565b6200072f82828562000658565b5f60209050601f83116001811462000765575f841562000750578287015190505b6200075c8582620006d2565b865550620007cb565b601f19841662000775866200052c565b5f5b828110156200079e5784890151825560018201915060208501945060208101905062000777565b86831015620007be5784890151620007ba601f891682620006b4565b8355505b6001600288020188555050505b505050505050565b6112ad80620007e15f395ff3fe60806040526004361061006f575f3560e01c8063d7bb99ba1161004d578063d7bb99ba14610101578063d8b9182b1461010b578063f60ca60d14610121578063ff3a9c7e146101515761006f565b80633cb5d1001461007357806342e94c90146100af57806369d89575146100eb575b5f80fd5b34801561007e575f80fd5b5061009960048036038101906100949190610a8c565b61017b565b6040516100a69190610af6565b60405180910390f35b3480156100ba575f80fd5b506100d560048036038101906100d09190610b39565b6101b6565b6040516100e29190610b73565b60405180910390f35b3480156100f6575f80fd5b506100ff6101cb565b005b6101096103be565b005b348015610116575f80fd5b5061011f6105fd565b005b34801561012c575f80fd5b50610135610652565b6040516101489796959493929190610c50565b60405180910390f35b34801561015c575f80fd5b50610165610731565b6040516101729190610dd2565b60405180910390f35b6008818154811061018a575f80fd5b905f5260205f20015f915054906101000a900473ffffffffffffffffffffffffffffffffffffffff1681565b6007602052805f5260405f205f915090505481565b5f6001015f9054906101000a900473ffffffffffffffffffffffffffffffffffffffff1673ffffffffffffffffffffffffffffffffffffffff163373ffffffffffffffffffffffffffffffffffffffff161461025c576040517f08c379a000000000000000000000000000000000000000000000000000000000815260040161025390610e62565b60405180910390fd5b5f600301545f6004015410156102a7576040517f08c379a000000000000000000000000000000000000000000000000000000000815260040161029e90610ef0565b60405180910390fd5b5f6006015f9054906101000a900460ff166102f7576040517f08c379a00000000000000000000000000000000000000000000000000000000081526004016102ee90610f7e565b60405180910390fd5b5f6001015f9054906101000a900473ffffffffffffffffffffffffffffffffffffffff1673ffffffffffffffffffffffffffffffffffffffff166108fc5f6004015490811502906040515f60405180830381858888f19350505050158015610361573d5f803e3d5ffd5b505f806006015f6101000a81548160ff0219169083151502179055505f8001547f80230996023d69b50793fa73f1919127c9d8e741d3989743c479169f22e7a2885f600401546040516103b49190610b73565b60405180910390a2565b5f6006015f9054906101000a900460ff1661040e576040517f08c379a00000000000000000000000000000000000000000000000000000000081526004016104059061100c565b60405180910390fd5b5f60050154421115610455576040517f08c379a000000000000000000000000000000000000000000000000000000000815260040161044c9061109a565b60405180910390fd5b5f3411610497576040517f08c379a000000000000000000000000000000000000000000000000000000000815260040161048e90611128565b60405180910390fd5b5f60075f3373ffffffffffffffffffffffffffffffffffffffff1673ffffffffffffffffffffffffffffffffffffffff1681526020019081526020015f20540361053c57600833908060018154018082558091505060019003905f5260205f20015f9091909190916101000a81548173ffffffffffffffffffffffffffffffffffffffff021916908373ffffffffffffffffffffffffffffffffffffffff1602179055505b345f6004015f82825461054f9190611173565b925050819055503460075f3373ffffffffffffffffffffffffffffffffffffffff1673ffffffffffffffffffffffffffffffffffffffff1681526020019081526020015f205f8282546105a29190611173565b925050819055503373ffffffffffffffffffffffffffffffffffffffff165f8001547f0a4a91237423e0a1766a761c7cb029311d8b95d6b1b81db1b949a70c98b4e08e346040516105f39190610b73565b60405180910390a3565b610605610870565b5f806006015f6101000a81548160ff0219169083151502179055505f8001547fa10da3bd85a8a7569325abd94177d0bbf25fbded5a3f6622a5588ce2cf1153ba60405160405180910390a2565b5f805f015490806001015f9054906101000a900473ffffffffffffffffffffffffffffffffffffffff169080600201805461068c906111d3565b80601f01602080910402602001604051908101604052809291908181526020018280546106b8906111d3565b80156107035780601f106106da57610100808354040283529160200191610703565b820191905f5260205f20905b8154815290600101906020018083116106e657829003601f168201915b505050505090806003015490806004015490806005015490806006015f9054906101000a900460ff16905087565b610739610a06565b5f6040518060e00160405290815f8201548152602001600182015f9054906101000a900473ffffffffffffffffffffffffffffffffffffffff1673ffffffffffffffffffffffffffffffffffffffff1673ffffffffffffffffffffffffffffffffffffffff1681526020016002820180546107b3906111d3565b80601f01602080910402602001604051908101604052809291908181526020018280546107df906111d3565b801561082a5780601f106108015761010080835404028352916020019161082a565b820191905f5260205f20905b81548152906001019060200180831161080d57829003601f168201915b50505050508152602001600382015481526020016004820154815260200160058201548152602001600682015f9054906101000a900460ff161515151581525050905090565b5f6008805490500315610a04575f5b600880549050811015610a02575f600882815481106108a1576108a0611203565b5b905f5260205f20015f9054906101000a900473ffffffffffffffffffffffffffffffffffffffff1690505f60075f8373ffffffffffffffffffffffffffffffffffffffff1673ffffffffffffffffffffffffffffffffffffffff1681526020019081526020015f205490505f8111156109ed575f60075f8473ffffffffffffffffffffffffffffffffffffffff1673ffffffffffffffffffffffffffffffffffffffff1681526020019081526020015f20819055508173ffffffffffffffffffffffffffffffffffffffff166108fc8290811502906040515f60405180830381858888f19350505050158015610999573d5f803e3d5ffd5b508173ffffffffffffffffffffffffffffffffffffffff165f8001547f7a482fdeb6bc9a1376f597068a214a7a39472bb2eff1b8cad21ba04f49ddca1b836040516109e49190610b73565b60405180910390a35b505080806109fa90611230565b91505061087f565b505b565b6040518060e001604052805f81526020015f73ffffffffffffffffffffffffffffffffffffffff168152602001606081526020015f81526020015f81526020015f81526020015f151581525090565b5f80fd5b5f819050919050565b610a6b81610a59565b8114610a75575f80fd5b50565b5f81359050610a8681610a62565b92915050565b5f60208284031215610aa157610aa0610a55565b5b5f610aae84828501610a78565b91505092915050565b5f73ffffffffffffffffffffffffffffffffffffffff82169050919050565b5f610ae082610ab7565b9050919050565b610af081610ad6565b82525050565b5f602082019050610b095f830184610ae7565b92915050565b610b1881610ad6565b8114610b22575f80fd5b50565b5f81359050610b3381610b0f565b92915050565b5f60208284031215610b4e57610b4d610a55565b5b5f610b5b84828501610b25565b91505092915050565b610b6d81610a59565b82525050565b5f602082019050610b865f830184610b64565b92915050565b5f610b9682610ab7565b9050919050565b610ba681610b8c565b82525050565b5f81519050919050565b5f82825260208201905092915050565b5f5b83811015610be3578082015181840152602081019050610bc8565b5f8484015250505050565b5f601f19601f8301169050919050565b5f610c0882610bac565b610c128185610bb6565b9350610c22818560208601610bc6565b610c2b81610bee565b840191505092915050565b5f8115159050919050565b610c4a81610c36565b82525050565b5f60e082019050610c635f83018a610b64565b610c706020830189610b9d565b8181036040830152610c828188610bfe565b9050610c916060830187610b64565b610c9e6080830186610b64565b610cab60a0830185610b64565b610cb860c0830184610c41565b98975050505050505050565b610ccd81610a59565b82525050565b610cdc81610b8c565b82525050565b5f82825260208201905092915050565b5f610cfc82610bac565b610d068185610ce2565b9350610d16818560208601610bc6565b610d1f81610bee565b840191505092915050565b610d3381610c36565b82525050565b5f60e083015f830151610d4e5f860182610cc4565b506020830151610d616020860182610cd3565b5060408301518482036040860152610d798282610cf2565b9150506060830151610d8e6060860182610cc4565b506080830151610da16080860182610cc4565b5060a0830151610db460a0860182610cc4565b5060c0830151610dc760c0860182610d2a565b508091505092915050565b5f6020820190508181035f830152610dea8184610d39565b905092915050565b7f4f6e6c79207468652070726f6a656374206f776e65722063616e2072656c65615f8201527f73652066756e64732e0000000000000000000000000000000000000000000000602082015250565b5f610e4c602983610bb6565b9150610e5782610df2565b604082019050919050565b5f6020820190508181035f830152610e7981610e40565b9050919050565b7f46756e64696e6720676f616c20686173206e6f74206265656e207265616368655f8201527f642e000000000000000000000000000000000000000000000000000000000000602082015250565b5f610eda602283610bb6565b9150610ee582610e80565b604082019050919050565b5f6020820190508181035f830152610f0781610ece565b9050919050565b7f46756e6473206861766520616c7265616479206265656e2072656c65617365645f8201527f206f722070726f6a65637420697320636c6f7365642e00000000000000000000602082015250565b5f610f68603683610bb6565b9150610f7382610f0e565b604082019050919050565b5f6020820190508181035f830152610f9581610f5c565b9050919050565b7f50726f6a656374206973206e6f74206f70656e20666f7220636f6e74726962755f8201527f74696f6e732e0000000000000000000000000000000000000000000000000000602082015250565b5f610ff6602683610bb6565b915061100182610f9c565b604082019050919050565b5f6020820190508181035f83015261102381610fea565b9050919050565b7f5468652066756e64696e6720706572696f6420666f7220746869732070726f6a5f8201527f6563742068617320656e6465642e000000000000000000000000000000000000602082015250565b5f611084602e83610bb6565b915061108f8261102a565b604082019050919050565b5f6020820190508181035f8301526110b181611078565b9050919050565b7f436f6e747269627574696f6e20616d6f756e74206d75737420626520677265615f8201527f746572207468616e207a65726f2e000000000000000000000000000000000000602082015250565b5f611112602e83610bb6565b915061111d826110b8565b604082019050919050565b5f6020820190508181035f83015261113f81611106565b9050919050565b7f4e487b71000000000000000000000000000000000000000000000000000000005f52601160045260245ffd5b5f61117d82610a59565b915061118883610a59565b92508282019050808211156111a05761119f611146565b5b92915050565b7f4e487b71000000000000000000000000000000000000000000000000000000005f52602260045260245ffd5b5f60028204905060018216806111ea57607f821691505b6020821081036111fd576111fc6111a6565b5b50919050565b7f4e487b71000000000000000000000000000000000000000000000000000000005f52603260045260245ffd5b5f61123a82610a59565b91507fffffffffffffffffffffffffffffffffffffffffffffffffffffffffffffffff820361126c5761126b611146565b5b60018201905091905056fea2646970667358221220be22202d68d99d277c70b04b94f0c2bb9a1d32f035275bc57864c07884672b4364736f6c63430008150033",
  "immutableReferences": {},
  "source": "// SPDX-License-Identifier: MIT\r\npragma solidity ^0.8.0;\r\n\r\ncontract Project {\r\n    struct ProjectDetails {\r\n        uint id;\r\n        address payable owner;\r\n        string ipfsURL;\r\n        uint goal;\r\n        uint amountRaised;\r\n        uint deadline;\r\n        bool isOpen;\r\n    }\r\n\r\n    ProjectDetails public project;\r\n    mapping(address => uint) public contributions;\r\n    address[] public contributors;\r\n\r\n    event ContributionMade(uint indexed projectId, address indexed contributor, uint amount);\r\n    event FundsReleased(uint indexed projectId, uint amount);\r\n    event RefundIssued(uint indexed projectId, address indexed contributor, uint amount);\r\n    event ProjectClosed(uint indexed projectId);\r\n\r\n    constructor(\r\n        uint projectId,\r\n        string memory ipfsURL,\r\n        uint goal,\r\n        uint durationInMinutes,\r\n        address payable owner) {\r\n        project = ProjectDetails({\r\n            id: projectId,\r\n            owner: owner,\r\n            ipfsURL: ipfsURL,\r\n            goal: goal,\r\n            amountRaised: 0,\r\n            deadline: block.timestamp + (durationInMinutes * 1 minutes),\r\n            isOpen: true\r\n        });\r\n    }\r\n\r\n    function contribute() public payable {\r\n        require(project.isOpen, \"Project is not open for contributions.\");\r\n        require(block.timestamp <= project.deadline, \"The funding period for this project has ended.\");\r\n        require(msg.value > 0, \"Contribution amount must be greater than zero.\");\r\n\r\n        if (contributions[msg.sender] == 0) {\r\n            contributors.push(msg.sender);\r\n        }\r\n\r\n        project.amountRaised += msg.value;\r\n        contributions[msg.sender] += msg.value;\r\n\r\n        emit ContributionMade(project.id, msg.sender, msg.value);\r\n    }\r\n\r\n    function releaseFunds() public {\r\n        require(msg.sender == project.owner, \"Only the project owner can release funds.\");\r\n        require(project.amountRaised >= project.goal, \"Funding goal has not been reached.\");\r\n        require(project.isOpen, \"Funds have already been released or project is closed.\");\r\n\r\n        project.owner.transfer(project.amountRaised);\r\n        project.isOpen = false;\r\n\r\n        emit FundsReleased(project.id, project.amountRaised);\r\n    }\r\n\r\n    function refundAll() internal {\r\n        if (contributors.length == 0) {\r\n            return;\r\n        }\r\n\r\n        for (uint i = 0; i < contributors.length; i++) {\r\n            address contributor = contributors[i];\r\n            uint amount = contributions[contributor];\r\n            if (amount > 0) {\r\n                contributions[contributor] = 0;\r\n                payable(contributor).transfer(amount);\r\n                emit RefundIssued(project.id, contributor, amount);\r\n            }\r\n        }\r\n    }\r\n\r\n    function closeProject() public {\r\n        refundAll();\r\n        project.isOpen = false;\r\n        emit ProjectClosed(project.id);\r\n    }\r\n\r\n    function getProjectDetails() public view returns (ProjectDetails memory) {\r\n        return project;\r\n    }\r\n}",
  "sourcePath": "C:\\Users\\wjjm5\\Documents\\UNSW\\Third term (term 2 24)\\COMP6452dApp\\crowdfunding_dApp\\backend\\contracts\\Project.sol",
  "compiler": {
    "name": "solc",
    "version": "0.8.21+commit.d9974bed.Emscripten.clang"
  },
  "schemaVersion": "3.4.16",
  "updatedAt": "2024-07-21T11:35:45.715Z",
  "devdoc": {
    "kind": "dev",
    "methods": {},
    "version": 1
  },
  "userdoc": {
    "kind": "user",
    "methods": {},
    "version": 1
  }
}