{
  "contractName": "ProjectFactory",
  "abi": [
    {
      "inputs": [
        {
          "internalType": "address",
          "name": "_userFactory",
          "type": "address"
        }
      ],
      "stateMutability": "nonpayable",
      "type": "constructor"
    },
    {
      "anonymous": false,
      "inputs": [
        {
          "indexed": true,
          "internalType": "uint256",
          "name": "projectId",
          "type": "uint256"
        },
        {
          "indexed": false,
          "internalType": "address",
          "name": "projectAddress",
          "type": "address"
        },
        {
          "indexed": false,
          "internalType": "address",
          "name": "owner",
          "type": "address"
        },
        {
          "indexed": false,
          "internalType": "string",
          "name": "name",
          "type": "string"
        },
        {
          "indexed": false,
          "internalType": "uint256",
          "name": "goal",
          "type": "uint256"
        },
        {
          "indexed": false,
          "internalType": "uint256",
          "name": "deadline",
          "type": "uint256"
        }
      ],
      "name": "ProjectCreated",
      "type": "event"
    },
    {
      "inputs": [],
      "name": "projectCount",
      "outputs": [
        {
          "internalType": "uint256",
          "name": "",
          "type": "uint256"
        }
      ],
      "stateMutability": "view",
      "type": "function"
    },
    {
      "inputs": [
        {
          "internalType": "uint256",
          "name": "",
          "type": "uint256"
        }
      ],
      "name": "projects",
      "outputs": [
        {
          "internalType": "contract Project",
          "name": "",
          "type": "address"
        }
      ],
      "stateMutability": "view",
      "type": "function"
    },
    {
      "inputs": [],
      "name": "userFactory",
      "outputs": [
        {
          "internalType": "contract UserFactory",
          "name": "",
          "type": "address"
        }
      ],
      "stateMutability": "view",
      "type": "function"
    },
    {
      "inputs": [
        {
          "internalType": "string",
          "name": "name",
          "type": "string"
        },
        {
          "internalType": "string",
          "name": "description",
          "type": "string"
        },
        {
          "internalType": "uint256",
          "name": "goal",
          "type": "uint256"
        },
        {
          "internalType": "uint256",
          "name": "duration",
          "type": "uint256"
        }
      ],
      "name": "createProject",
      "outputs": [],
      "stateMutability": "nonpayable",
      "type": "function"
    },
    {
      "inputs": [],
      "name": "getProjects",
      "outputs": [
        {
          "internalType": "contract Project[]",
          "name": "",
          "type": "address[]"
        }
      ],
      "stateMutability": "view",
      "type": "function"
    }
  ],
  "bytecode": "0x608060405234801561001057600080fd5b506040516125803803806125808339818101604052810190610032919061008e565b80600260006101000a81548173ffffffffffffffffffffffffffffffffffffffff021916908373ffffffffffffffffffffffffffffffffffffffff16021790555050610100565b600081519050610088816100e9565b92915050565b6000602082840312156100a057600080fd5b60006100ae84828501610079565b91505092915050565b60006100c2826100c9565b9050919050565b600073ffffffffffffffffffffffffffffffffffffffff82169050919050565b6100f2816100b7565b81146100fd57600080fd5b50565b6124718061010f6000396000f3fe60806040523480156200001157600080fd5b50600436106200005e5760003560e01c8063107046bd1462000063578063283097ab146200009957806336fbad2614620000bb57806394ba970914620000dd578063dcc6012814620000fd575b600080fd5b6200008160048036038101906200007b919062000461565b6200011f565b60405162000090919062000640565b60405180910390f35b620000a36200015f565b604051620000b291906200065d565b60405180910390f35b620000c562000185565b604051620000d491906200067a565b60405180910390f35b620000fb6004803603810190620000f59190620003c3565b6200018b565b005b620001076200029c565b6040516200011691906200061c565b60405180910390f35b600081815481106200013057600080fd5b906000526020600020016000915054906101000a900473ffffffffffffffffffffffffffffffffffffffff1681565b600260009054906101000a900473ffffffffffffffffffffffffffffffffffffffff1681565b60015481565b60016000815480929190620001a090620008b5565b919050555060006001548585858533604051620001bd906200032c565b620001ce9695949392919062000697565b604051809103906000f080158015620001eb573d6000803e3d6000fd5b5090506000819080600181540180825580915050600190039060005260206000200160009091909190916101000a81548173ffffffffffffffffffffffffffffffffffffffff021916908373ffffffffffffffffffffffffffffffffffffffff1602179055506001547f49a3f53cddf4d3883291c8aed22f133a1a2e56aefa286170b9bde9796d9ac7f982338887876040516200028d959493929190620005b8565b60405180910390a25050505050565b606060008054806020026020016040519081016040528092919081815260200182805480156200032257602002820191906000526020600020905b8160009054906101000a900473ffffffffffffffffffffffffffffffffffffffff1673ffffffffffffffffffffffffffffffffffffffff1681526020019060010190808311620002d7575b5050505050905090565b611aaf806200098d83390190565b6000620003516200034b8462000746565b62000712565b9050828152602081018484840111156200036a57600080fd5b6200037784828562000870565b509392505050565b600082601f8301126200039157600080fd5b8135620003a38482602086016200033a565b91505092915050565b600081359050620003bd8162000972565b92915050565b60008060008060808587031215620003da57600080fd5b600085013567ffffffffffffffff811115620003f557600080fd5b62000403878288016200037f565b945050602085013567ffffffffffffffff8111156200042157600080fd5b6200042f878288016200037f565b93505060406200044287828801620003ac565b92505060606200045587828801620003ac565b91505092959194509250565b6000602082840312156200047457600080fd5b60006200048484828501620003ac565b91505092915050565b60006200049b838362000533565b60208301905092915050565b620004b281620007e2565b82525050565b620004c381620007ce565b82525050565b6000620004d68262000789565b620004e28185620007ac565b9350620004ef8362000779565b8060005b83811015620005265781516200050a88826200048d565b975062000517836200079f565b925050600181019050620004f3565b5085935050505092915050565b6200053e8162000820565b82525050565b6200054f8162000820565b82525050565b620005608162000848565b82525050565b6000620005738262000794565b6200057f8185620007bd565b9350620005918185602086016200087f565b6200059c8162000961565b840191505092915050565b620005b28162000816565b82525050565b600060a082019050620005cf6000830188620004b8565b620005de6020830187620004b8565b8181036040830152620005f2818662000566565b9050620006036060830185620005a7565b620006126080830184620005a7565b9695505050505050565b60006020820190508181036000830152620006388184620004c9565b905092915050565b600060208201905062000657600083018462000544565b92915050565b600060208201905062000674600083018462000555565b92915050565b6000602082019050620006916000830184620005a7565b92915050565b600060c082019050620006ae6000830189620005a7565b8181036020830152620006c2818862000566565b90508181036040830152620006d8818762000566565b9050620006e96060830186620005a7565b620006f86080830185620005a7565b6200070760a0830184620004a7565b979650505050505050565b6000604051905081810181811067ffffffffffffffff821117156200073c576200073b62000932565b5b8060405250919050565b600067ffffffffffffffff82111562000764576200076362000932565b5b601f19601f8301169050602081019050919050565b6000819050602082019050919050565b600081519050919050565b600081519050919050565b6000602082019050919050565b600082825260208201905092915050565b600082825260208201905092915050565b6000620007db82620007f6565b9050919050565b6000620007ef82620007f6565b9050919050565b600073ffffffffffffffffffffffffffffffffffffffff82169050919050565b6000819050919050565b60006200082d8262000834565b9050919050565b60006200084182620007f6565b9050919050565b600062000855826200085c565b9050919050565b60006200086982620007f6565b9050919050565b82818337600083830152505050565b60005b838110156200089f57808201518184015260208101905062000882565b83811115620008af576000848401525b50505050565b6000620008c28262000816565b91507fffffffffffffffffffffffffffffffffffffffffffffffffffffffffffffffff821415620008f857620008f762000903565b5b600182019050919050565b7f4e487b7100000000000000000000000000000000000000000000000000000000600052601160045260246000fd5b7f4e487b7100000000000000000000000000000000000000000000000000000000600052604160045260246000fd5b6000601f19601f8301169050919050565b6200097d8162000816565b81146200098957600080fd5b5056fe60806040523480156200001157600080fd5b5060405162001aaf38038062001aaf8339818101604052810190620000379190620002d3565b6040518061010001604052808781526020018273ffffffffffffffffffffffffffffffffffffffff16815260200186815260200185815260200184815260200160008152602001603c846200008d91906200045f565b426200009a919062000402565b815260200160011515815250600080820151816000015560208201518160010160006101000a81548173ffffffffffffffffffffffffffffffffffffffff021916908373ffffffffffffffffffffffffffffffffffffffff16021790555060408201518160020190805190602001906200011692919062000183565b5060608201518160030190805190602001906200013592919062000183565b506080820151816004015560a0820151816005015560c0820151816006015560e08201518160070160006101000a81548160ff0219169083151502179055509050505050505050506200062b565b828054620001919062000534565b90600052602060002090601f016020900481019282620001b5576000855562000201565b82601f10620001d057805160ff191683800117855562000201565b8280016001018555821562000201579182015b8281111562000200578251825591602001919060010190620001e3565b5b50905062000210919062000214565b5090565b5b808211156200022f57600081600090555060010162000215565b5090565b60006200024a6200024484620003cf565b6200039b565b9050828152602081018484840111156200026357600080fd5b62000270848285620004fe565b509392505050565b6000815190506200028981620005f7565b92915050565b600082601f830112620002a157600080fd5b8151620002b384826020860162000233565b91505092915050565b600081519050620002cd8162000611565b92915050565b60008060008060008060c08789031215620002ed57600080fd5b6000620002fd89828a01620002bc565b965050602087015167ffffffffffffffff8111156200031b57600080fd5b6200032989828a016200028f565b955050604087015167ffffffffffffffff8111156200034757600080fd5b6200035589828a016200028f565b94505060606200036889828a01620002bc565b93505060806200037b89828a01620002bc565b92505060a06200038e89828a0162000278565b9150509295509295509295565b6000604051905081810181811067ffffffffffffffff82111715620003c557620003c4620005c8565b5b8060405250919050565b600067ffffffffffffffff821115620003ed57620003ec620005c8565b5b601f19601f8301169050602081019050919050565b60006200040f82620004f4565b91506200041c83620004f4565b9250827fffffffffffffffffffffffffffffffffffffffffffffffffffffffffffffffff038211156200045457620004536200056a565b5b828201905092915050565b60006200046c82620004f4565b91506200047983620004f4565b9250817fffffffffffffffffffffffffffffffffffffffffffffffffffffffffffffffff0483118215151615620004b557620004b46200056a565b5b828202905092915050565b6000620004cd82620004d4565b9050919050565b600073ffffffffffffffffffffffffffffffffffffffff82169050919050565b6000819050919050565b60005b838110156200051e57808201518184015260208101905062000501565b838111156200052e576000848401525b50505050565b600060028204905060018216806200054d57607f821691505b6020821081141562000564576200056362000599565b5b50919050565b7f4e487b7100000000000000000000000000000000000000000000000000000000600052601160045260246000fd5b7f4e487b7100000000000000000000000000000000000000000000000000000000600052602260045260246000fd5b7f4e487b7100000000000000000000000000000000000000000000000000000000600052604160045260246000fd5b6200060281620004c0565b81146200060e57600080fd5b50565b6200061c81620004f4565b81146200062857600080fd5b50565b611474806200063b6000396000f3fe6080604052600436106100705760003560e01c8063d7bb99ba1161004e578063d7bb99ba14610106578063d8b9182b14610110578063f60ca60d14610127578063ff3a9c7e1461015957610070565b80633cb5d1001461007557806342e94c90146100b257806369d89575146100ef575b600080fd5b34801561008157600080fd5b5061009c60048036038101906100979190610c53565b610184565b6040516100a99190611072565b60405180910390f35b3480156100be57600080fd5b506100d960048036038101906100d49190610c2a565b6101c3565b6040516100e6919061116f565b60405180910390f35b3480156100fb57600080fd5b506101046101db565b005b61010e6103de565b005b34801561011c57600080fd5b5061012561062e565b005b34801561013357600080fd5b5061013c610686565b60405161015098979695949392919061118a565b60405180910390f35b34801561016557600080fd5b5061016e6107f9565b60405161017b919061114d565b60405180910390f35b6009818154811061019457600080fd5b906000526020600020016000915054906101000a900473ffffffffffffffffffffffffffffffffffffffff1681565b60086020528060005260406000206000915090505481565b600060010160009054906101000a900473ffffffffffffffffffffffffffffffffffffffff1673ffffffffffffffffffffffffffffffffffffffff163373ffffffffffffffffffffffffffffffffffffffff161461026e576040517f08c379a00000000000000000000000000000000000000000000000000000000081526004016102659061110d565b60405180910390fd5b60006004015460006005015410156102bb576040517f08c379a00000000000000000000000000000000000000000000000000000000081526004016102b2906110cd565b60405180910390fd5b600060070160009054906101000a900460ff1661030d576040517f08c379a00000000000000000000000000000000000000000000000000000000081526004016103049061112d565b60405180910390fd5b600060010160009054906101000a900473ffffffffffffffffffffffffffffffffffffffff1673ffffffffffffffffffffffffffffffffffffffff166108fc6000600501549081150290604051600060405180830381858888f1935050505015801561037d573d6000803e3d6000fd5b5060008060070160006101000a81548160ff02191690831515021790555060008001547f80230996023d69b50793fa73f1919127c9d8e741d3989743c479169f22e7a2886000600501546040516103d4919061116f565b60405180910390a2565b600060070160009054906101000a900460ff16610430576040517f08c379a0000000000000000000000000000000000000000000000000000000008152600401610427906110ed565b60405180910390fd5b600060060154421115610478576040517f08c379a000000000000000000000000000000000000000000000000000000000815260040161046f906110ad565b60405180910390fd5b600034116104bb576040517f08c379a00000000000000000000000000000000000000000000000000000000081526004016104b29061108d565b60405180910390fd5b6000600860003373ffffffffffffffffffffffffffffffffffffffff1673ffffffffffffffffffffffffffffffffffffffff168152602001908152602001600020541415610567576009339080600181540180825580915050600190039060005260206000200160009091909190916101000a81548173ffffffffffffffffffffffffffffffffffffffff021916908373ffffffffffffffffffffffffffffffffffffffff1602179055505b346000600501600082825461057c9190611243565b9250508190555034600860003373ffffffffffffffffffffffffffffffffffffffff1673ffffffffffffffffffffffffffffffffffffffff16815260200190815260200160002060008282546105d29190611243565b925050819055503373ffffffffffffffffffffffffffffffffffffffff1660008001547f0a4a91237423e0a1766a761c7cb029311d8b95d6b1b81db1b949a70c98b4e08e34604051610624919061116f565b60405180910390a3565b6106366109d1565b60008060070160006101000a81548160ff02191690831515021790555060008001547fa10da3bd85a8a7569325abd94177d0bbf25fbded5a3f6622a5588ce2cf1153ba60405160405180910390a2565b60008060000154908060010160009054906101000a900473ffffffffffffffffffffffffffffffffffffffff16908060020180546106c390611326565b80601f01602080910402602001604051908101604052809291908181526020018280546106ef90611326565b801561073c5780601f106107115761010080835404028352916020019161073c565b820191906000526020600020905b81548152906001019060200180831161071f57829003601f168201915b50505050509080600301805461075190611326565b80601f016020809104026020016040519081016040528092919081815260200182805461077d90611326565b80156107ca5780601f1061079f576101008083540402835291602001916107ca565b820191906000526020600020905b8154815290600101906020018083116107ad57829003601f168201915b5050505050908060040154908060050154908060060154908060070160009054906101000a900460ff16905088565b610801610ba3565b600060405180610100016040529081600082015481526020016001820160009054906101000a900473ffffffffffffffffffffffffffffffffffffffff1673ffffffffffffffffffffffffffffffffffffffff1673ffffffffffffffffffffffffffffffffffffffff16815260200160028201805461087f90611326565b80601f01602080910402602001604051908101604052809291908181526020018280546108ab90611326565b80156108f85780601f106108cd576101008083540402835291602001916108f8565b820191906000526020600020905b8154815290600101906020018083116108db57829003601f168201915b5050505050815260200160038201805461091190611326565b80601f016020809104026020016040519081016040528092919081815260200182805461093d90611326565b801561098a5780601f1061095f5761010080835404028352916020019161098a565b820191906000526020600020905b81548152906001019060200180831161096d57829003601f168201915b505050505081526020016004820154815260200160058201548152602001600682015481526020016007820160009054906101000a900460ff161515151581525050905090565b600060098054905014156109e457610ba1565b60005b600980549050811015610b9f57600060098281548110610a30577f4e487b7100000000000000000000000000000000000000000000000000000000600052603260045260246000fd5b9060005260206000200160009054906101000a900473ffffffffffffffffffffffffffffffffffffffff1690506000600860008373ffffffffffffffffffffffffffffffffffffffff1673ffffffffffffffffffffffffffffffffffffffff1681526020019081526020016000205490506000811115610b8a576000600860008473ffffffffffffffffffffffffffffffffffffffff1673ffffffffffffffffffffffffffffffffffffffff168152602001908152602001600020819055508173ffffffffffffffffffffffffffffffffffffffff166108fc829081150290604051600060405180830381858888f19350505050158015610b35573d6000803e3d6000fd5b508173ffffffffffffffffffffffffffffffffffffffff1660008001547f7a482fdeb6bc9a1376f597068a214a7a39472bb2eff1b8cad21ba04f49ddca1b83604051610b81919061116f565b60405180910390a35b50508080610b9790611358565b9150506109e7565b505b565b60405180610100016040528060008152602001600073ffffffffffffffffffffffffffffffffffffffff16815260200160608152602001606081526020016000815260200160008152602001600081526020016000151581525090565b600081359050610c0f81611410565b92915050565b600081359050610c2481611427565b92915050565b600060208284031215610c3c57600080fd5b6000610c4a84828501610c00565b91505092915050565b600060208284031215610c6557600080fd5b6000610c7384828501610c15565b91505092915050565b610c85816112ab565b82525050565b610c94816112ab565b82525050565b610ca381611299565b82525050565b610cb2816112bd565b82525050565b610cc1816112bd565b82525050565b6000610cd282611216565b610cdc8185611221565b9350610cec8185602086016112f3565b610cf5816113ff565b840191505092915050565b6000610d0b82611216565b610d158185611232565b9350610d258185602086016112f3565b610d2e816113ff565b840191505092915050565b6000610d46602e83611232565b91507f436f6e747269627574696f6e20616d6f756e74206d757374206265206772656160008301527f746572207468616e207a65726f2e0000000000000000000000000000000000006020830152604082019050919050565b6000610dac602e83611232565b91507f5468652066756e64696e6720706572696f6420666f7220746869732070726f6a60008301527f6563742068617320656e6465642e0000000000000000000000000000000000006020830152604082019050919050565b6000610e12602283611232565b91507f46756e64696e6720676f616c20686173206e6f74206265656e2072656163686560008301527f642e0000000000000000000000000000000000000000000000000000000000006020830152604082019050919050565b6000610e78602683611232565b91507f50726f6a656374206973206e6f74206f70656e20666f7220636f6e747269627560008301527f74696f6e732e00000000000000000000000000000000000000000000000000006020830152604082019050919050565b6000610ede602983611232565b91507f4f6e6c79207468652070726f6a656374206f776e65722063616e2072656c656160008301527f73652066756e64732e00000000000000000000000000000000000000000000006020830152604082019050919050565b6000610f44603683611232565b91507f46756e6473206861766520616c7265616479206265656e2072656c656173656460008301527f206f722070726f6a65637420697320636c6f7365642e000000000000000000006020830152604082019050919050565b600061010083016000830151610fb66000860182611054565b506020830151610fc96020860182610c7c565b5060408301518482036040860152610fe18282610cc7565b91505060608301518482036060860152610ffb8282610cc7565b91505060808301516110106080860182611054565b5060a083015161102360a0860182611054565b5060c083015161103660c0860182611054565b5060e083015161104960e0860182610ca9565b508091505092915050565b61105d816112e9565b82525050565b61106c816112e9565b82525050565b60006020820190506110876000830184610c9a565b92915050565b600060208201905081810360008301526110a681610d39565b9050919050565b600060208201905081810360008301526110c681610d9f565b9050919050565b600060208201905081810360008301526110e681610e05565b9050919050565b6000602082019050818103600083015261110681610e6b565b9050919050565b6000602082019050818103600083015261112681610ed1565b9050919050565b6000602082019050818103600083015261114681610f37565b9050919050565b600060208201905081810360008301526111678184610f9d565b905092915050565b60006020820190506111846000830184611063565b92915050565b6000610100820190506111a0600083018b611063565b6111ad602083018a610c8b565b81810360408301526111bf8189610d00565b905081810360608301526111d38188610d00565b90506111e26080830187611063565b6111ef60a0830186611063565b6111fc60c0830185611063565b61120960e0830184610cb8565b9998505050505050505050565b600081519050919050565b600082825260208201905092915050565b600082825260208201905092915050565b600061124e826112e9565b9150611259836112e9565b9250827fffffffffffffffffffffffffffffffffffffffffffffffffffffffffffffffff0382111561128e5761128d6113a1565b5b828201905092915050565b60006112a4826112c9565b9050919050565b60006112b6826112c9565b9050919050565b60008115159050919050565b600073ffffffffffffffffffffffffffffffffffffffff82169050919050565b6000819050919050565b60005b838110156113115780820151818401526020810190506112f6565b83811115611320576000848401525b50505050565b6000600282049050600182168061133e57607f821691505b60208210811415611352576113516113d0565b5b50919050565b6000611363826112e9565b91507fffffffffffffffffffffffffffffffffffffffffffffffffffffffffffffffff821415611396576113956113a1565b5b600182019050919050565b7f4e487b7100000000000000000000000000000000000000000000000000000000600052601160045260246000fd5b7f4e487b7100000000000000000000000000000000000000000000000000000000600052602260045260246000fd5b6000601f19601f8301169050919050565b61141981611299565b811461142457600080fd5b50565b611430816112e9565b811461143b57600080fd5b5056fea26469706673582212208b5374f26928b309820e199fe51a0d78af92a0d923cbba32cb6b1bb1f08eded664736f6c63430008000033a2646970667358221220e1b7a7cd4f14b0b3e3378364e4be40346c0b647a738a75bbd29e007a6ac08dcc64736f6c63430008000033",
  "immutableReferences": {},
  "source": "// SPDX-License-Identifier: MIT\r\npragma solidity ^0.8.0;\r\n\r\nimport \"./Project.sol\";\r\nimport \"./UserFactory.sol\";\r\n\r\ncontract ProjectFactory {\r\n    Project[] public projects;\r\n    uint public projectCount;\r\n    UserFactory public userFactory;\r\n\r\n    event ProjectCreated(\r\n        uint indexed projectId,\r\n        address projectAddress,\r\n        address owner,\r\n        string name,\r\n        uint goal,\r\n        uint deadline\r\n    );\r\n\r\n    constructor(address _userFactory) {\r\n        userFactory = UserFactory(_userFactory);\r\n    }\r\n\r\n    function createProject(string memory name, string memory description, uint goal, uint duration) public {\r\n        projectCount++;\r\n        Project newProject = new Project(projectCount, name, description, goal, duration, payable(msg.sender));\r\n        projects.push(newProject);\r\n        emit ProjectCreated(projectCount, address(newProject), msg.sender, name, goal, duration);\r\n    }\r\n\r\n    function getProjects() public view returns (Project[] memory) {\r\n        return projects;\r\n    }\r\n}\r\n",
  "sourcePath": "E:\\vscodeproject\\Comp6452\\crowdfunding_dApp\\backend\\contracts\\ProjectFactory.sol",
  "compiler": {
    "name": "solc",
    "version": "0.8.0+commit.c7dfd78e.Emscripten.clang"
  },
  "schemaVersion": "3.4.16",
  "updatedAt": "2024-07-23T09:41:43.452Z",
  "devdoc": {
    "kind": "dev",
    "methods": {},
    "version": 1
  },
  "userdoc": {
    "kind": "user",
    "methods": {},
    "version": 1
  }
}