{
  "contractName": "ProjectFactory",
  "abi": [
    {
      "anonymous": false,
      "inputs": [
        {
          "indexed": true,
          "internalType": "uint256",
          "name": "projectId",
          "type": "uint256"
        },
        {
          "indexed": false,
          "internalType": "address",
          "name": "projectAddress",
          "type": "address"
        },
        {
          "indexed": false,
          "internalType": "address",
          "name": "owner",
          "type": "address"
        },
        {
          "indexed": false,
          "internalType": "string",
          "name": "name",
          "type": "string"
        },
        {
          "indexed": false,
          "internalType": "uint256",
          "name": "goal",
          "type": "uint256"
        },
        {
          "indexed": false,
          "internalType": "uint256",
          "name": "deadline",
          "type": "uint256"
        }
      ],
      "name": "ProjectCreated",
      "type": "event"
    },
    {
      "inputs": [],
      "name": "projectCount",
      "outputs": [
        {
          "internalType": "uint256",
          "name": "",
          "type": "uint256"
        }
      ],
      "stateMutability": "view",
      "type": "function",
      "constant": true
    },
    {
      "inputs": [
        {
          "internalType": "uint256",
          "name": "",
          "type": "uint256"
        }
      ],
      "name": "projects",
      "outputs": [
        {
          "internalType": "contract Project",
          "name": "",
          "type": "address"
        }
      ],
      "stateMutability": "view",
      "type": "function",
      "constant": true
    },
    {
      "inputs": [
        {
          "internalType": "string",
          "name": "name",
          "type": "string"
        },
        {
          "internalType": "string",
          "name": "description",
          "type": "string"
        },
        {
          "internalType": "uint256",
          "name": "goal",
          "type": "uint256"
        },
        {
          "internalType": "uint256",
          "name": "duration",
          "type": "uint256"
        }
      ],
      "name": "createProject",
      "outputs": [],
      "stateMutability": "nonpayable",
      "type": "function"
    },
    {
      "inputs": [],
      "name": "getProjects",
      "outputs": [
        {
          "internalType": "contract Project[]",
          "name": "",
          "type": "address[]"
        }
      ],
      "stateMutability": "view",
      "type": "function",
      "constant": true
    }
  ],
  "bytecode": "0x608060405234801561000f575f80fd5b506121588061001d5f395ff3fe608060405234801562000010575f80fd5b506004361062000050575f3560e01c8063107046bd146200005457806336fbad26146200008a57806394ba970914620000ac578063dcc6012814620000cc575b5f80fd5b6200007260048036038101906200006c91906200031a565b620000ee565b604051620000819190620003d0565b60405180910390f35b6200009462000129565b604051620000a39190620003fc565b60405180910390f35b620000ca6004803603810190620000c491906200056f565b6200012f565b005b620000d662000237565b604051620000e59190620006e3565b60405180910390f35b5f8181548110620000fd575f80fd5b905f5260205f20015f915054906101000a900473ffffffffffffffffffffffffffffffffffffffff1681565b60015481565b60015f815480929190620001439062000732565b91905055505f60015485858585336040516200015f90620002c3565b620001709695949392919062000826565b604051809103905ff0801580156200018a573d5f803e3d5ffd5b5090505f81908060018154018082558091505060019003905f5260205f20015f9091909190916101000a81548173ffffffffffffffffffffffffffffffffffffffff021916908373ffffffffffffffffffffffffffffffffffffffff1602179055506001547f49a3f53cddf4d3883291c8aed22f133a1a2e56aefa286170b9bde9796d9ac7f9823388878760405162000228959493929190620008c3565b60405180910390a25050505050565b60605f805480602002602001604051908101604052809291908181526020018280548015620002b957602002820191905f5260205f20905b815f9054906101000a900473ffffffffffffffffffffffffffffffffffffffff1673ffffffffffffffffffffffffffffffffffffffff16815260200190600101908083116200026f575b5050505050905090565b6117fd806200092683390190565b5f604051905090565b5f80fd5b5f80fd5b5f819050919050565b620002f681620002e2565b811462000301575f80fd5b50565b5f813590506200031481620002eb565b92915050565b5f60208284031215620003325762000331620002da565b5b5f620003418482850162000304565b91505092915050565b5f73ffffffffffffffffffffffffffffffffffffffff82169050919050565b5f819050919050565b5f620003926200038c62000386846200034a565b62000369565b6200034a565b9050919050565b5f620003a58262000372565b9050919050565b5f620003b88262000399565b9050919050565b620003ca81620003ac565b82525050565b5f602082019050620003e55f830184620003bf565b92915050565b620003f681620002e2565b82525050565b5f602082019050620004115f830184620003eb565b92915050565b5f80fd5b5f80fd5b5f601f19601f8301169050919050565b7f4e487b71000000000000000000000000000000000000000000000000000000005f52604160045260245ffd5b62000467826200041f565b810181811067ffffffffffffffff821117156200048957620004886200042f565b5b80604052505050565b5f6200049d620002d1565b9050620004ab82826200045c565b919050565b5f67ffffffffffffffff821115620004cd57620004cc6200042f565b5b620004d8826200041f565b9050602081019050919050565b828183375f83830152505050565b5f620005096200050384620004b0565b62000492565b9050828152602081018484840111156200052857620005276200041b565b5b62000535848285620004e5565b509392505050565b5f82601f83011262000554576200055362000417565b5b813562000566848260208601620004f3565b91505092915050565b5f805f80608085870312156200058a5762000589620002da565b5b5f85013567ffffffffffffffff811115620005aa57620005a9620002de565b5b620005b8878288016200053d565b945050602085013567ffffffffffffffff811115620005dc57620005db620002de565b5b620005ea878288016200053d565b9350506040620005fd8782880162000304565b9250506060620006108782880162000304565b91505092959194509250565b5f81519050919050565b5f82825260208201905092915050565b5f819050602082019050919050565b6200065081620003ac565b82525050565b5f62000663838362000645565b60208301905092915050565b5f602082019050919050565b5f62000687826200061c565b62000693818562000626565b9350620006a08362000636565b805f5b83811015620006d6578151620006ba888262000656565b9750620006c7836200066f565b925050600181019050620006a3565b5085935050505092915050565b5f6020820190508181035f830152620006fd81846200067b565b905092915050565b7f4e487b71000000000000000000000000000000000000000000000000000000005f52601160045260245ffd5b5f6200073e82620002e2565b91507fffffffffffffffffffffffffffffffffffffffffffffffffffffffffffffffff820362000773576200077262000705565b5b600182019050919050565b5f81519050919050565b5f82825260208201905092915050565b5f5b83811015620007b75780820151818401526020810190506200079a565b5f8484015250505050565b5f620007ce826200077e565b620007da818562000788565b9350620007ec81856020860162000798565b620007f7816200041f565b840191505092915050565b5f6200080e826200034a565b9050919050565b620008208162000802565b82525050565b5f60c0820190506200083b5f830189620003eb565b81810360208301526200084f8188620007c2565b90508181036040830152620008658187620007c2565b9050620008766060830186620003eb565b620008856080830185620003eb565b6200089460a083018462000815565b979650505050505050565b5f620008ab826200034a565b9050919050565b620008bd816200089f565b82525050565b5f60a082019050620008d85f830188620008b2565b620008e76020830187620008b2565b8181036040830152620008fb8186620007c2565b90506200090c6060830185620003eb565b6200091b6080830184620003eb565b969550505050505056fe608060405234801562000010575f80fd5b50604051620017fd380380620017fd83398181016040528101906200003691906200037f565b6040518061010001604052808781526020018273ffffffffffffffffffffffffffffffffffffffff1681526020018681526020018581526020018481526020015f815260200183426200008a919062000482565b8152602001600115158152505f80820151815f01556020820151816001015f6101000a81548173ffffffffffffffffffffffffffffffffffffffff021916908373ffffffffffffffffffffffffffffffffffffffff1602179055506040820151816002019081620000fc9190620006ea565b506060820151816003019081620001149190620006ea565b506080820151816004015560a0820151816005015560c0820151816006015560e0820151816007015f6101000a81548160ff021916908315150217905550905050505050505050620007ce565b5f604051905090565b5f80fd5b5f80fd5b5f819050919050565b620001868162000172565b811462000191575f80fd5b50565b5f81519050620001a4816200017b565b92915050565b5f80fd5b5f80fd5b5f601f19601f8301169050919050565b7f4e487b71000000000000000000000000000000000000000000000000000000005f52604160045260245ffd5b620001fa82620001b2565b810181811067ffffffffffffffff821117156200021c576200021b620001c2565b5b80604052505050565b5f6200023062000161565b90506200023e8282620001ef565b919050565b5f67ffffffffffffffff82111562000260576200025f620001c2565b5b6200026b82620001b2565b9050602081019050919050565b5f5b83811015620002975780820151818401526020810190506200027a565b5f8484015250505050565b5f620002b8620002b28462000243565b62000225565b905082815260208101848484011115620002d757620002d6620001ae565b5b620002e484828562000278565b509392505050565b5f82601f830112620003035762000302620001aa565b5b815162000315848260208601620002a2565b91505092915050565b5f73ffffffffffffffffffffffffffffffffffffffff82169050919050565b5f62000349826200031e565b9050919050565b6200035b816200033d565b811462000366575f80fd5b50565b5f81519050620003798162000350565b92915050565b5f805f805f8060c087890312156200039c576200039b6200016a565b5b5f620003ab89828a0162000194565b965050602087015167ffffffffffffffff811115620003cf57620003ce6200016e565b5b620003dd89828a01620002ec565b955050604087015167ffffffffffffffff8111156200040157620004006200016e565b5b6200040f89828a01620002ec565b94505060606200042289828a0162000194565b93505060806200043589828a0162000194565b92505060a06200044889828a0162000369565b9150509295509295509295565b7f4e487b71000000000000000000000000000000000000000000000000000000005f52601160045260245ffd5b5f6200048e8262000172565b91506200049b8362000172565b9250828201905080821115620004b657620004b562000455565b5b92915050565b5f81519050919050565b7f4e487b71000000000000000000000000000000000000000000000000000000005f52602260045260245ffd5b5f60028204905060018216806200050b57607f821691505b602082108103620005215762000520620004c6565b5b50919050565b5f819050815f5260205f209050919050565b5f6020601f8301049050919050565b5f82821b905092915050565b5f60088302620005857fffffffffffffffffffffffffffffffffffffffffffffffffffffffffffffffff8262000548565b62000591868362000548565b95508019841693508086168417925050509392505050565b5f819050919050565b5f620005d2620005cc620005c68462000172565b620005a9565b62000172565b9050919050565b5f819050919050565b620005ed83620005b2565b62000605620005fc82620005d9565b84845462000554565b825550505050565b5f90565b6200061b6200060d565b62000628818484620005e2565b505050565b5b818110156200064f57620006435f8262000611565b6001810190506200062e565b5050565b601f8211156200069e57620006688162000527565b620006738462000539565b8101602085101562000683578190505b6200069b620006928562000539565b8301826200062d565b50505b505050565b5f82821c905092915050565b5f620006c05f1984600802620006a3565b1980831691505092915050565b5f620006da8383620006af565b9150826002028217905092915050565b620006f582620004bc565b67ffffffffffffffff811115620007115762000710620001c2565b5b6200071d8254620004f3565b6200072a82828562000653565b5f60209050601f83116001811462000760575f84156200074b578287015190505b620007578582620006cd565b865550620007c6565b601f198416620007708662000527565b5f5b82811015620007995784890151825560018201915060208501945060208101905062000772565b86831015620007b95784890151620007b5601f891682620006af565b8355505b6001600288020188555050505b505050505050565b61102180620007dc5f395ff3fe608060405260043610610049575f3560e01c806342e94c901461004d578063590e1ae31461008957806369d895751461009f578063d7bb99ba146100b5578063f60ca60d146100bf575b5f80fd5b348015610058575f80fd5b50610073600480360381019061006e9190610886565b6100f0565b60405161008091906108c9565b60405180910390f35b348015610094575f80fd5b5061009d610105565b005b3480156100aa575f80fd5b506100b3610330565b005b6100bd610523565b005b3480156100ca575f80fd5b506100d36106bd565b6040516100e79897969594939291906109a6565b60405180910390f35b6008602052805f5260405f205f915090505481565b5f60060154421161014b576040517f08c379a000000000000000000000000000000000000000000000000000000000815260040161014290610aa0565b60405180910390fd5b5f600401545f6005015410610195576040517f08c379a000000000000000000000000000000000000000000000000000000000815260040161018c90610b2e565b60405180910390fd5b5f60085f3373ffffffffffffffffffffffffffffffffffffffff1673ffffffffffffffffffffffffffffffffffffffff1681526020019081526020015f205411610214576040517f08c379a000000000000000000000000000000000000000000000000000000000815260040161020b90610bbc565b60405180910390fd5b5f60085f3373ffffffffffffffffffffffffffffffffffffffff1673ffffffffffffffffffffffffffffffffffffffff1681526020019081526020015f205490505f60085f3373ffffffffffffffffffffffffffffffffffffffff1673ffffffffffffffffffffffffffffffffffffffff1681526020019081526020015f20819055503373ffffffffffffffffffffffffffffffffffffffff166108fc8290811502906040515f60405180830381858888f193505050501580156102da573d5f803e3d5ffd5b503373ffffffffffffffffffffffffffffffffffffffff165f8001547f7a482fdeb6bc9a1376f597068a214a7a39472bb2eff1b8cad21ba04f49ddca1b8360405161032591906108c9565b60405180910390a350565b5f6001015f9054906101000a900473ffffffffffffffffffffffffffffffffffffffff1673ffffffffffffffffffffffffffffffffffffffff163373ffffffffffffffffffffffffffffffffffffffff16146103c1576040517f08c379a00000000000000000000000000000000000000000000000000000000081526004016103b890610c4a565b60405180910390fd5b5f600401545f60050154101561040c576040517f08c379a000000000000000000000000000000000000000000000000000000000815260040161040390610cd8565b60405180910390fd5b5f6007015f9054906101000a900460ff1661045c576040517f08c379a000000000000000000000000000000000000000000000000000000000815260040161045390610d66565b60405180910390fd5b5f6001015f9054906101000a900473ffffffffffffffffffffffffffffffffffffffff1673ffffffffffffffffffffffffffffffffffffffff166108fc5f6005015490811502906040515f60405180830381858888f193505050501580156104c6573d5f803e3d5ffd5b505f806007015f6101000a81548160ff0219169083151502179055505f8001547f80230996023d69b50793fa73f1919127c9d8e741d3989743c479169f22e7a2885f6005015460405161051991906108c9565b60405180910390a2565b5f6007015f9054906101000a900460ff16610573576040517f08c379a000000000000000000000000000000000000000000000000000000000815260040161056a90610df4565b60405180910390fd5b5f600601544211156105ba576040517f08c379a00000000000000000000000000000000000000000000000000000000081526004016105b190610e82565b60405180910390fd5b5f34116105fc576040517f08c379a00000000000000000000000000000000000000000000000000000000081526004016105f390610f10565b60405180910390fd5b345f6005015f82825461060f9190610f5b565b925050819055503460085f3373ffffffffffffffffffffffffffffffffffffffff1673ffffffffffffffffffffffffffffffffffffffff1681526020019081526020015f205f8282546106629190610f5b565b925050819055503373ffffffffffffffffffffffffffffffffffffffff165f8001547f0a4a91237423e0a1766a761c7cb029311d8b95d6b1b81db1b949a70c98b4e08e346040516106b391906108c9565b60405180910390a3565b5f805f015490806001015f9054906101000a900473ffffffffffffffffffffffffffffffffffffffff16908060020180546106f790610fbb565b80601f016020809104026020016040519081016040528092919081815260200182805461072390610fbb565b801561076e5780601f106107455761010080835404028352916020019161076e565b820191905f5260205f20905b81548152906001019060200180831161075157829003601f168201915b50505050509080600301805461078390610fbb565b80601f01602080910402602001604051908101604052809291908181526020018280546107af90610fbb565b80156107fa5780601f106107d1576101008083540402835291602001916107fa565b820191905f5260205f20905b8154815290600101906020018083116107dd57829003601f168201915b505050505090806004015490806005015490806006015490806007015f9054906101000a900460ff16905088565b5f80fd5b5f73ffffffffffffffffffffffffffffffffffffffff82169050919050565b5f6108558261082c565b9050919050565b6108658161084b565b811461086f575f80fd5b50565b5f813590506108808161085c565b92915050565b5f6020828403121561089b5761089a610828565b5b5f6108a884828501610872565b91505092915050565b5f819050919050565b6108c3816108b1565b82525050565b5f6020820190506108dc5f8301846108ba565b92915050565b5f6108ec8261082c565b9050919050565b6108fc816108e2565b82525050565b5f81519050919050565b5f82825260208201905092915050565b5f5b8381101561093957808201518184015260208101905061091e565b5f8484015250505050565b5f601f19601f8301169050919050565b5f61095e82610902565b610968818561090c565b935061097881856020860161091c565b61098181610944565b840191505092915050565b5f8115159050919050565b6109a08161098c565b82525050565b5f610100820190506109ba5f83018b6108ba565b6109c7602083018a6108f3565b81810360408301526109d98189610954565b905081810360608301526109ed8188610954565b90506109fc60808301876108ba565b610a0960a08301866108ba565b610a1660c08301856108ba565b610a2360e0830184610997565b9998505050505050505050565b7f50726f6a65637420646561646c696e6520686173206e6f7420796574207061735f8201527f7365642e00000000000000000000000000000000000000000000000000000000602082015250565b5f610a8a60248361090c565b9150610a9582610a30565b604082019050919050565b5f6020820190508181035f830152610ab781610a7e565b9050919050565b7f46756e64696e6720676f616c2077617320726561636865643b206e6f207265665f8201527f756e647320617661696c61626c652e0000000000000000000000000000000000602082015250565b5f610b18602f8361090c565b9150610b2382610abe565b604082019050919050565b5f6020820190508181035f830152610b4581610b0c565b9050919050565b7f4e6f20636f6e747269627574696f6e7320666f756e6420666f7220726566756e5f8201527f642e000000000000000000000000000000000000000000000000000000000000602082015250565b5f610ba660228361090c565b9150610bb182610b4c565b604082019050919050565b5f6020820190508181035f830152610bd381610b9a565b9050919050565b7f4f6e6c79207468652070726f6a656374206f776e65722063616e2072656c65615f8201527f73652066756e64732e0000000000000000000000000000000000000000000000602082015250565b5f610c3460298361090c565b9150610c3f82610bda565b604082019050919050565b5f6020820190508181035f830152610c6181610c28565b9050919050565b7f46756e64696e6720676f616c20686173206e6f74206265656e207265616368655f8201527f642e000000000000000000000000000000000000000000000000000000000000602082015250565b5f610cc260228361090c565b9150610ccd82610c68565b604082019050919050565b5f6020820190508181035f830152610cef81610cb6565b9050919050565b7f46756e6473206861766520616c7265616479206265656e2072656c65617365645f8201527f206f722070726f6a65637420697320636c6f7365642e00000000000000000000602082015250565b5f610d5060368361090c565b9150610d5b82610cf6565b604082019050919050565b5f6020820190508181035f830152610d7d81610d44565b9050919050565b7f50726f6a656374206973206e6f74206f70656e20666f7220636f6e74726962755f8201527f74696f6e732e0000000000000000000000000000000000000000000000000000602082015250565b5f610dde60268361090c565b9150610de982610d84565b604082019050919050565b5f6020820190508181035f830152610e0b81610dd2565b9050919050565b7f5468652066756e64696e6720706572696f6420666f7220746869732070726f6a5f8201527f6563742068617320656e6465642e000000000000000000000000000000000000602082015250565b5f610e6c602e8361090c565b9150610e7782610e12565b604082019050919050565b5f6020820190508181035f830152610e9981610e60565b9050919050565b7f436f6e747269627574696f6e20616d6f756e74206d75737420626520677265615f8201527f746572207468616e207a65726f2e000000000000000000000000000000000000602082015250565b5f610efa602e8361090c565b9150610f0582610ea0565b604082019050919050565b5f6020820190508181035f830152610f2781610eee565b9050919050565b7f4e487b71000000000000000000000000000000000000000000000000000000005f52601160045260245ffd5b5f610f65826108b1565b9150610f70836108b1565b9250828201905080821115610f8857610f87610f2e565b5b92915050565b7f4e487b71000000000000000000000000000000000000000000000000000000005f52602260045260245ffd5b5f6002820490506001821680610fd257607f821691505b602082108103610fe557610fe4610f8e565b5b5091905056fea2646970667358221220a5da98a4a0fe8e80e7aa73f9b960d71efbdc3efa470c4252591448bcc7e53cf564736f6c63430008150033a2646970667358221220714f4dcb7900dcd12b27388aa202e208c839d149f3e2442a280fcaf0e6a33ecb64736f6c63430008150033",
  "immutableReferences": {},
  "source": "// SPDX-License-Identifier: MIT\r\npragma solidity ^0.8.0;\r\n\r\nimport \"./Project.sol\";\r\n\r\ncontract ProjectFactory {\r\n    Project[] public projects;\r\n    uint public projectCount;\r\n\r\n    event ProjectCreated(uint indexed projectId, address projectAddress, address owner, string name, uint goal, uint deadline);\r\n\r\n    function createProject(string memory name, string memory description, uint goal, uint duration) public {\r\n        projectCount++;\r\n        Project newProject = new Project(projectCount, name, description, goal, duration, payable(msg.sender));\r\n        projects.push(newProject);\r\n        emit ProjectCreated(projectCount, address(newProject), msg.sender, name, goal, duration);\r\n    }\r\n\r\n    function getProjects() public view returns (Project[] memory) {\r\n        return projects;\r\n    }\r\n}\r\n",
  "sourcePath": "C:\\Users\\y509100\\OneDrive - Software AG\\Desktop\\unsw\\blockchain application\\pro2\\crowdfunding_dApp\\backend\\contracts\\ProjectFactory.sol",
  "compiler": {
    "name": "solc",
    "version": "0.8.21+commit.d9974bed.Emscripten.clang"
  },
  "schemaVersion": "3.4.16",
  "updatedAt": "2024-07-09T12:57:35.065Z",
  "networkType": "ethereum",
  "devdoc": {
    "kind": "dev",
    "methods": {},
    "version": 1
  },
  "userdoc": {
    "kind": "user",
    "methods": {},
    "version": 1
  }
}