{
  "contractName": "Project",
  "abi": [
    {
      "inputs": [
        {
          "internalType": "uint256",
          "name": "projectId",
          "type": "uint256"
        },
        {
          "internalType": "string",
          "name": "name",
          "type": "string"
        },
        {
          "internalType": "string",
          "name": "description",
          "type": "string"
        },
        {
          "internalType": "uint256",
          "name": "goal",
          "type": "uint256"
        },
        {
          "internalType": "uint256",
          "name": "duration",
          "type": "uint256"
        },
        {
          "internalType": "address payable",
          "name": "owner",
          "type": "address"
        }
      ],
      "stateMutability": "nonpayable",
      "type": "constructor"
    },
    {
      "anonymous": false,
      "inputs": [
        {
          "indexed": true,
          "internalType": "uint256",
          "name": "projectId",
          "type": "uint256"
        },
        {
          "indexed": true,
          "internalType": "address",
          "name": "contributor",
          "type": "address"
        },
        {
          "indexed": false,
          "internalType": "uint256",
          "name": "amount",
          "type": "uint256"
        }
      ],
      "name": "ContributionMade",
      "type": "event"
    },
    {
      "anonymous": false,
      "inputs": [
        {
          "indexed": true,
          "internalType": "uint256",
          "name": "projectId",
          "type": "uint256"
        },
        {
          "indexed": false,
          "internalType": "uint256",
          "name": "amount",
          "type": "uint256"
        }
      ],
      "name": "FundsReleased",
      "type": "event"
    },
    {
      "anonymous": false,
      "inputs": [
        {
          "indexed": true,
          "internalType": "uint256",
          "name": "projectId",
          "type": "uint256"
        },
        {
          "indexed": true,
          "internalType": "address",
          "name": "contributor",
          "type": "address"
        },
        {
          "indexed": false,
          "internalType": "uint256",
          "name": "amount",
          "type": "uint256"
        }
      ],
      "name": "RefundIssued",
      "type": "event"
    },
    {
      "inputs": [
        {
          "internalType": "address",
          "name": "",
          "type": "address"
        }
      ],
      "name": "contributions",
      "outputs": [
        {
          "internalType": "uint256",
          "name": "",
          "type": "uint256"
        }
      ],
      "stateMutability": "view",
      "type": "function"
    },
    {
      "inputs": [
        {
          "internalType": "uint256",
          "name": "",
          "type": "uint256"
        }
      ],
      "name": "contributors",
      "outputs": [
        {
          "internalType": "address",
          "name": "",
          "type": "address"
        }
      ],
      "stateMutability": "view",
      "type": "function"
    },
    {
      "inputs": [],
      "name": "project",
      "outputs": [
        {
          "internalType": "uint256",
          "name": "id",
          "type": "uint256"
        },
        {
          "internalType": "address payable",
          "name": "owner",
          "type": "address"
        },
        {
          "internalType": "string",
          "name": "name",
          "type": "string"
        },
        {
          "internalType": "string",
          "name": "description",
          "type": "string"
        },
        {
          "internalType": "uint256",
          "name": "goal",
          "type": "uint256"
        },
        {
          "internalType": "uint256",
          "name": "amountRaised",
          "type": "uint256"
        },
        {
          "internalType": "uint256",
          "name": "deadline",
          "type": "uint256"
        },
        {
          "internalType": "bool",
          "name": "isOpen",
          "type": "bool"
        }
      ],
      "stateMutability": "view",
      "type": "function"
    },
    {
      "inputs": [],
      "name": "contribute",
      "outputs": [],
      "stateMutability": "payable",
      "type": "function"
    },
    {
      "inputs": [],
      "name": "releaseFunds",
      "outputs": [],
      "stateMutability": "nonpayable",
      "type": "function"
    },
    {
      "inputs": [],
      "name": "refundAll",
      "outputs": [],
      "stateMutability": "nonpayable",
      "type": "function"
    },
    {
      "inputs": [],
      "name": "getProjectDetails",
      "outputs": [
        {
          "components": [
            {
              "internalType": "uint256",
              "name": "id",
              "type": "uint256"
            },
            {
              "internalType": "address payable",
              "name": "owner",
              "type": "address"
            },
            {
              "internalType": "string",
              "name": "name",
              "type": "string"
            },
            {
              "internalType": "string",
              "name": "description",
              "type": "string"
            },
            {
              "internalType": "uint256",
              "name": "goal",
              "type": "uint256"
            },
            {
              "internalType": "uint256",
              "name": "amountRaised",
              "type": "uint256"
            },
            {
              "internalType": "uint256",
              "name": "deadline",
              "type": "uint256"
            },
            {
              "internalType": "bool",
              "name": "isOpen",
              "type": "bool"
            }
          ],
          "internalType": "struct Project.ProjectDetails",
          "name": "",
          "type": "tuple"
        }
      ],
      "stateMutability": "view",
      "type": "function"
    }
  ],
  "bytecode": "0x608060405234801562000010575f80fd5b5060405162001dfc38038062001dfc83398181016040528101906200003691906200037f565b6040518061010001604052808781526020018273ffffffffffffffffffffffffffffffffffffffff1681526020018681526020018581526020018481526020015f815260200183436200008a919062000482565b8152602001600115158152505f80820151815f01556020820151816001015f6101000a81548173ffffffffffffffffffffffffffffffffffffffff021916908373ffffffffffffffffffffffffffffffffffffffff1602179055506040820151816002019081620000fc9190620006ea565b506060820151816003019081620001149190620006ea565b506080820151816004015560a0820151816005015560c0820151816006015560e0820151816007015f6101000a81548160ff021916908315150217905550905050505050505050620007ce565b5f604051905090565b5f80fd5b5f80fd5b5f819050919050565b620001868162000172565b811462000191575f80fd5b50565b5f81519050620001a4816200017b565b92915050565b5f80fd5b5f80fd5b5f601f19601f8301169050919050565b7f4e487b71000000000000000000000000000000000000000000000000000000005f52604160045260245ffd5b620001fa82620001b2565b810181811067ffffffffffffffff821117156200021c576200021b620001c2565b5b80604052505050565b5f6200023062000161565b90506200023e8282620001ef565b919050565b5f67ffffffffffffffff82111562000260576200025f620001c2565b5b6200026b82620001b2565b9050602081019050919050565b5f5b83811015620002975780820151818401526020810190506200027a565b5f8484015250505050565b5f620002b8620002b28462000243565b62000225565b905082815260208101848484011115620002d757620002d6620001ae565b5b620002e484828562000278565b509392505050565b5f82601f830112620003035762000302620001aa565b5b815162000315848260208601620002a2565b91505092915050565b5f73ffffffffffffffffffffffffffffffffffffffff82169050919050565b5f62000349826200031e565b9050919050565b6200035b816200033d565b811462000366575f80fd5b50565b5f81519050620003798162000350565b92915050565b5f805f805f8060c087890312156200039c576200039b6200016a565b5b5f620003ab89828a0162000194565b965050602087015167ffffffffffffffff811115620003cf57620003ce6200016e565b5b620003dd89828a01620002ec565b955050604087015167ffffffffffffffff8111156200040157620004006200016e565b5b6200040f89828a01620002ec565b94505060606200042289828a0162000194565b93505060806200043589828a0162000194565b92505060a06200044889828a0162000369565b9150509295509295509295565b7f4e487b71000000000000000000000000000000000000000000000000000000005f52601160045260245ffd5b5f6200048e8262000172565b91506200049b8362000172565b9250828201905080821115620004b657620004b562000455565b5b92915050565b5f81519050919050565b7f4e487b71000000000000000000000000000000000000000000000000000000005f52602260045260245ffd5b5f60028204905060018216806200050b57607f821691505b602082108103620005215762000520620004c6565b5b50919050565b5f819050815f5260205f209050919050565b5f6020601f8301049050919050565b5f82821b905092915050565b5f60088302620005857fffffffffffffffffffffffffffffffffffffffffffffffffffffffffffffffff8262000548565b62000591868362000548565b95508019841693508086168417925050509392505050565b5f819050919050565b5f620005d2620005cc620005c68462000172565b620005a9565b62000172565b9050919050565b5f819050919050565b620005ed83620005b2565b62000605620005fc82620005d9565b84845462000554565b825550505050565b5f90565b6200061b6200060d565b62000628818484620005e2565b505050565b5b818110156200064f57620006435f8262000611565b6001810190506200062e565b5050565b601f8211156200069e57620006688162000527565b620006738462000539565b8101602085101562000683578190505b6200069b620006928562000539565b8301826200062d565b50505b505050565b5f82821c905092915050565b5f620006c05f1984600802620006a3565b1980831691505092915050565b5f620006da8383620006af565b9150826002028217905092915050565b620006f582620004bc565b67ffffffffffffffff811115620007115762000710620001c2565b5b6200071d8254620004f3565b6200072a82828562000653565b5f60209050601f83116001811462000760575f84156200074b578287015190505b620007578582620006cd565b865550620007c6565b601f198416620007708662000527565b5f5b82811015620007995784890151825560018201915060208501945060208101905062000772565b86831015620007b95784890151620007b5601f891682620006af565b8355505b6001600288020188555050505b505050505050565b61162080620007dc5f395ff3fe60806040526004361061006f575f3560e01c806369d895751161004d57806369d8957514610101578063d7bb99ba14610117578063f60ca60d14610121578063ff3a9c7e146101525761006f565b806338e771ab146100735780633cb5d1001461008957806342e94c90146100c5575b5f80fd5b34801561007e575f80fd5b5061008761017c565b005b348015610094575f80fd5b506100af60048036038101906100aa9190610c4a565b6103ff565b6040516100bc9190610cb4565b60405180910390f35b3480156100d0575f80fd5b506100eb60048036038101906100e69190610cf7565b61043a565b6040516100f89190610d31565b60405180910390f35b34801561010c575f80fd5b5061011561044f565b005b61011f610642565b005b34801561012c575f80fd5b50610135610881565b604051610149989796959493929190610e0e565b60405180910390f35b34801561015d575f80fd5b506101666109ec565b6040516101739190610fc1565b60405180910390f35b5f6006015443116101c2576040517f08c379a00000000000000000000000000000000000000000000000000000000081526004016101b990611051565b60405180910390fd5b5f600401545f600501541061020c576040517f08c379a0000000000000000000000000000000000000000000000000000000008152600401610203906110df565b60405180910390fd5b5f6007015f9054906101000a900460ff1661025c576040517f08c379a000000000000000000000000000000000000000000000000000000000815260040161025390611147565b60405180910390fd5b5f5b6009805490508110156103e1575f600982815481106102805761027f611165565b5b905f5260205f20015f9054906101000a900473ffffffffffffffffffffffffffffffffffffffff1690505f60085f8373ffffffffffffffffffffffffffffffffffffffff1673ffffffffffffffffffffffffffffffffffffffff1681526020019081526020015f205490505f8111156103cc575f60085f8473ffffffffffffffffffffffffffffffffffffffff1673ffffffffffffffffffffffffffffffffffffffff1681526020019081526020015f20819055508173ffffffffffffffffffffffffffffffffffffffff166108fc8290811502906040515f60405180830381858888f19350505050158015610378573d5f803e3d5ffd5b508173ffffffffffffffffffffffffffffffffffffffff165f8001547f7a482fdeb6bc9a1376f597068a214a7a39472bb2eff1b8cad21ba04f49ddca1b836040516103c39190610d31565b60405180910390a35b505080806103d9906111bf565b91505061025e565b505f806007015f6101000a81548160ff021916908315150217905550565b6009818154811061040e575f80fd5b905f5260205f20015f915054906101000a900473ffffffffffffffffffffffffffffffffffffffff1681565b6008602052805f5260405f205f915090505481565b5f6001015f9054906101000a900473ffffffffffffffffffffffffffffffffffffffff1673ffffffffffffffffffffffffffffffffffffffff163373ffffffffffffffffffffffffffffffffffffffff16146104e0576040517f08c379a00000000000000000000000000000000000000000000000000000000081526004016104d790611276565b60405180910390fd5b5f600401545f60050154101561052b576040517f08c379a000000000000000000000000000000000000000000000000000000000815260040161052290611304565b60405180910390fd5b5f6007015f9054906101000a900460ff1661057b576040517f08c379a000000000000000000000000000000000000000000000000000000000815260040161057290611392565b60405180910390fd5b5f6001015f9054906101000a900473ffffffffffffffffffffffffffffffffffffffff1673ffffffffffffffffffffffffffffffffffffffff166108fc5f6005015490811502906040515f60405180830381858888f193505050501580156105e5573d5f803e3d5ffd5b505f806007015f6101000a81548160ff0219169083151502179055505f8001547f80230996023d69b50793fa73f1919127c9d8e741d3989743c479169f22e7a2885f600501546040516106389190610d31565b60405180910390a2565b5f6007015f9054906101000a900460ff16610692576040517f08c379a000000000000000000000000000000000000000000000000000000000815260040161068990611420565b60405180910390fd5b5f600601544311156106d9576040517f08c379a00000000000000000000000000000000000000000000000000000000081526004016106d0906114ae565b60405180910390fd5b5f341161071b576040517f08c379a00000000000000000000000000000000000000000000000000000000081526004016107129061153c565b60405180910390fd5b5f60085f3373ffffffffffffffffffffffffffffffffffffffff1673ffffffffffffffffffffffffffffffffffffffff1681526020019081526020015f2054036107c057600933908060018154018082558091505060019003905f5260205f20015f9091909190916101000a81548173ffffffffffffffffffffffffffffffffffffffff021916908373ffffffffffffffffffffffffffffffffffffffff1602179055505b345f6005015f8282546107d3919061155a565b925050819055503460085f3373ffffffffffffffffffffffffffffffffffffffff1673ffffffffffffffffffffffffffffffffffffffff1681526020019081526020015f205f828254610826919061155a565b925050819055503373ffffffffffffffffffffffffffffffffffffffff165f8001547f0a4a91237423e0a1766a761c7cb029311d8b95d6b1b81db1b949a70c98b4e08e346040516108779190610d31565b60405180910390a3565b5f805f015490806001015f9054906101000a900473ffffffffffffffffffffffffffffffffffffffff16908060020180546108bb906115ba565b80601f01602080910402602001604051908101604052809291908181526020018280546108e7906115ba565b80156109325780601f1061090957610100808354040283529160200191610932565b820191905f5260205f20905b81548152906001019060200180831161091557829003601f168201915b505050505090806003018054610947906115ba565b80601f0160208091040260200160405190810160405280929190818152602001828054610973906115ba565b80156109be5780601f10610995576101008083540402835291602001916109be565b820191905f5260205f20905b8154815290600101906020018083116109a157829003601f168201915b505050505090806004015490806005015490806006015490806007015f9054906101000a900460ff16905088565b6109f4610bbc565b5f604051806101000160405290815f8201548152602001600182015f9054906101000a900473ffffffffffffffffffffffffffffffffffffffff1673ffffffffffffffffffffffffffffffffffffffff1673ffffffffffffffffffffffffffffffffffffffff168152602001600282018054610a6f906115ba565b80601f0160208091040260200160405190810160405280929190818152602001828054610a9b906115ba565b8015610ae65780601f10610abd57610100808354040283529160200191610ae6565b820191905f5260205f20905b815481529060010190602001808311610ac957829003601f168201915b50505050508152602001600382018054610aff906115ba565b80601f0160208091040260200160405190810160405280929190818152602001828054610b2b906115ba565b8015610b765780601f10610b4d57610100808354040283529160200191610b76565b820191905f5260205f20905b815481529060010190602001808311610b5957829003601f168201915b50505050508152602001600482015481526020016005820154815260200160068201548152602001600782015f9054906101000a900460ff161515151581525050905090565b6040518061010001604052805f81526020015f73ffffffffffffffffffffffffffffffffffffffff16815260200160608152602001606081526020015f81526020015f81526020015f81526020015f151581525090565b5f80fd5b5f819050919050565b610c2981610c17565b8114610c33575f80fd5b50565b5f81359050610c4481610c20565b92915050565b5f60208284031215610c5f57610c5e610c13565b5b5f610c6c84828501610c36565b91505092915050565b5f73ffffffffffffffffffffffffffffffffffffffff82169050919050565b5f610c9e82610c75565b9050919050565b610cae81610c94565b82525050565b5f602082019050610cc75f830184610ca5565b92915050565b610cd681610c94565b8114610ce0575f80fd5b50565b5f81359050610cf181610ccd565b92915050565b5f60208284031215610d0c57610d0b610c13565b5b5f610d1984828501610ce3565b91505092915050565b610d2b81610c17565b82525050565b5f602082019050610d445f830184610d22565b92915050565b5f610d5482610c75565b9050919050565b610d6481610d4a565b82525050565b5f81519050919050565b5f82825260208201905092915050565b5f5b83811015610da1578082015181840152602081019050610d86565b5f8484015250505050565b5f601f19601f8301169050919050565b5f610dc682610d6a565b610dd08185610d74565b9350610de0818560208601610d84565b610de981610dac565b840191505092915050565b5f8115159050919050565b610e0881610df4565b82525050565b5f61010082019050610e225f83018b610d22565b610e2f602083018a610d5b565b8181036040830152610e418189610dbc565b90508181036060830152610e558188610dbc565b9050610e646080830187610d22565b610e7160a0830186610d22565b610e7e60c0830185610d22565b610e8b60e0830184610dff565b9998505050505050505050565b610ea181610c17565b82525050565b610eb081610d4a565b82525050565b5f82825260208201905092915050565b5f610ed082610d6a565b610eda8185610eb6565b9350610eea818560208601610d84565b610ef381610dac565b840191505092915050565b610f0781610df4565b82525050565b5f61010083015f830151610f235f860182610e98565b506020830151610f366020860182610ea7565b5060408301518482036040860152610f4e8282610ec6565b91505060608301518482036060860152610f688282610ec6565b9150506080830151610f7d6080860182610e98565b5060a0830151610f9060a0860182610e98565b5060c0830151610fa360c0860182610e98565b5060e0830151610fb660e0860182610efe565b508091505092915050565b5f6020820190508181035f830152610fd98184610f0d565b905092915050565b7f50726f6a65637420646561646c696e6520686173206e6f7420796574207061735f8201527f7365642e00000000000000000000000000000000000000000000000000000000602082015250565b5f61103b602483610d74565b915061104682610fe1565b604082019050919050565b5f6020820190508181035f8301526110688161102f565b9050919050565b7f46756e64696e6720676f616c2077617320726561636865643b206e6f207265665f8201527f756e647320617661696c61626c652e0000000000000000000000000000000000602082015250565b5f6110c9602f83610d74565b91506110d48261106f565b604082019050919050565b5f6020820190508181035f8301526110f6816110bd565b9050919050565b7f50726f6a65637420697320616c726561647920636c6f7365642e0000000000005f82015250565b5f611131601a83610d74565b915061113c826110fd565b602082019050919050565b5f6020820190508181035f83015261115e81611125565b9050919050565b7f4e487b71000000000000000000000000000000000000000000000000000000005f52603260045260245ffd5b7f4e487b71000000000000000000000000000000000000000000000000000000005f52601160045260245ffd5b5f6111c982610c17565b91507fffffffffffffffffffffffffffffffffffffffffffffffffffffffffffffffff82036111fb576111fa611192565b5b600182019050919050565b7f4f6e6c79207468652070726f6a656374206f776e65722063616e2072656c65615f8201527f73652066756e64732e0000000000000000000000000000000000000000000000602082015250565b5f611260602983610d74565b915061126b82611206565b604082019050919050565b5f6020820190508181035f83015261128d81611254565b9050919050565b7f46756e64696e6720676f616c20686173206e6f74206265656e207265616368655f8201527f642e000000000000000000000000000000000000000000000000000000000000602082015250565b5f6112ee602283610d74565b91506112f982611294565b604082019050919050565b5f6020820190508181035f83015261131b816112e2565b9050919050565b7f46756e6473206861766520616c7265616479206265656e2072656c65617365645f8201527f206f722070726f6a65637420697320636c6f7365642e00000000000000000000602082015250565b5f61137c603683610d74565b915061138782611322565b604082019050919050565b5f6020820190508181035f8301526113a981611370565b9050919050565b7f50726f6a656374206973206e6f74206f70656e20666f7220636f6e74726962755f8201527f74696f6e732e0000000000000000000000000000000000000000000000000000602082015250565b5f61140a602683610d74565b9150611415826113b0565b604082019050919050565b5f6020820190508181035f830152611437816113fe565b9050919050565b7f5468652066756e64696e6720706572696f6420666f7220746869732070726f6a5f8201527f6563742068617320656e6465642e000000000000000000000000000000000000602082015250565b5f611498602e83610d74565b91506114a38261143e565b604082019050919050565b5f6020820190508181035f8301526114c58161148c565b9050919050565b7f436f6e747269627574696f6e20616d6f756e74206d75737420626520677265615f8201527f746572207468616e207a65726f2e000000000000000000000000000000000000602082015250565b5f611526602e83610d74565b9150611531826114cc565b604082019050919050565b5f6020820190508181035f8301526115538161151a565b9050919050565b5f61156482610c17565b915061156f83610c17565b925082820190508082111561158757611586611192565b5b92915050565b7f4e487b71000000000000000000000000000000000000000000000000000000005f52602260045260245ffd5b5f60028204905060018216806115d157607f821691505b6020821081036115e4576115e361158d565b5b5091905056fea264697066735822122065fb83fe90513e4e8a8d21f729f81d5111ebfa38c5748a71ad0bc9cd15983e2c64736f6c63430008150033",
  "immutableReferences": {},
  "source": "// SPDX-License-Identifier: MIT\r\npragma solidity ^0.8.0;\r\n\r\ncontract Project {\r\n    struct ProjectDetails {\r\n        uint id;\r\n        address payable owner;\r\n        string name;\r\n        string description;\r\n        uint goal;\r\n        uint amountRaised;\r\n        uint deadline;\r\n        bool isOpen;\r\n    }\r\n\r\n    ProjectDetails public project;\r\n    mapping(address => uint) public contributions;\r\n    address[] public contributors;\r\n\r\n    event ContributionMade(uint indexed projectId, address indexed contributor, uint amount);\r\n    event FundsReleased(uint indexed projectId, uint amount);\r\n    event RefundIssued(uint indexed projectId, address indexed contributor, uint amount);\r\n\r\n    constructor(\r\n        uint projectId,\r\n        string memory name,\r\n        string memory description,\r\n        uint goal,\r\n        uint duration,\r\n        address payable owner) {\r\n        project = ProjectDetails({\r\n            id: projectId,\r\n            owner: owner,\r\n            name: name,\r\n            description: description,\r\n            goal: goal,\r\n            amountRaised: 0,\r\n            deadline: block.number + duration,\r\n            isOpen: true\r\n        });\r\n    }\r\n\r\n    function contribute() public payable {\r\n        require(project.isOpen, \"Project is not open for contributions.\");\r\n        require(block.number <= project.deadline, \"The funding period for this project has ended.\");\r\n        require(msg.value > 0, \"Contribution amount must be greater than zero.\");\r\n\r\n        if (contributions[msg.sender] == 0) {\r\n            contributors.push(msg.sender);\r\n        }\r\n\r\n        project.amountRaised += msg.value;\r\n        contributions[msg.sender] += msg.value;\r\n\r\n        emit ContributionMade(project.id, msg.sender, msg.value);\r\n    }\r\n\r\n    function releaseFunds() public {\r\n        require(msg.sender == project.owner, \"Only the project owner can release funds.\");\r\n        require(project.amountRaised >= project.goal, \"Funding goal has not been reached.\");\r\n        require(project.isOpen, \"Funds have already been released or project is closed.\");\r\n\r\n        project.owner.transfer(project.amountRaised);\r\n        project.isOpen = false;\r\n\r\n        emit FundsReleased(project.id, project.amountRaised);\r\n    }\r\n\r\n    function refundAll() public {\r\n        require(block.number > project.deadline, \"Project deadline has not yet passed.\");\r\n        require(project.amountRaised < project.goal, \"Funding goal was reached; no refunds available.\");\r\n        require(project.isOpen, \"Project is already closed.\");\r\n\r\n        for (uint i = 0; i < contributors.length; i++) {\r\n            address contributor = contributors[i];\r\n            uint amount = contributions[contributor];\r\n            if (amount > 0) {\r\n                contributions[contributor] = 0;\r\n                payable(contributor).transfer(amount);\r\n                emit RefundIssued(project.id, contributor, amount);\r\n            }\r\n        }\r\n        project.isOpen = false;\r\n    }\r\n\r\n    function getProjectDetails() public view returns (ProjectDetails memory) {\r\n        return project;\r\n    }\r\n}\r\n",
  "sourcePath": "C:\\Users\\y509100\\OneDrive - Software AG\\Desktop\\unsw\\blockchain application\\pro2\\crowdfunding_dApp\\backend\\contracts\\Project.sol",
  "compiler": {
    "name": "solc",
    "version": "0.8.21+commit.d9974bed.Emscripten.clang"
  },
  "schemaVersion": "3.4.16",
  "updatedAt": "2024-07-14T08:40:58.617Z",
  "devdoc": {
    "kind": "dev",
    "methods": {},
    "version": 1
  },
  "userdoc": {
    "kind": "user",
    "methods": {},
    "version": 1
  }
}