{
  "contractName": "Project",
  "abi": [
    {
      "inputs": [
        {
          "internalType": "uint256",
          "name": "projectId",
          "type": "uint256"
        },
        {
          "internalType": "string",
          "name": "name",
          "type": "string"
        },
        {
          "internalType": "string",
          "name": "description",
          "type": "string"
        },
        {
          "internalType": "uint256",
          "name": "goal",
          "type": "uint256"
        },
        {
          "internalType": "uint256",
          "name": "durationInMinutes",
          "type": "uint256"
        },
        {
          "internalType": "address payable",
          "name": "owner",
          "type": "address"
        }
      ],
      "stateMutability": "nonpayable",
      "type": "constructor"
    },
    {
      "anonymous": false,
      "inputs": [
        {
          "indexed": true,
          "internalType": "uint256",
          "name": "projectId",
          "type": "uint256"
        },
        {
          "indexed": true,
          "internalType": "address",
          "name": "contributor",
          "type": "address"
        },
        {
          "indexed": false,
          "internalType": "uint256",
          "name": "amount",
          "type": "uint256"
        }
      ],
      "name": "ContributionMade",
      "type": "event"
    },
    {
      "anonymous": false,
      "inputs": [
        {
          "indexed": true,
          "internalType": "uint256",
          "name": "projectId",
          "type": "uint256"
        },
        {
          "indexed": false,
          "internalType": "uint256",
          "name": "amount",
          "type": "uint256"
        }
      ],
      "name": "FundsReleased",
      "type": "event"
    },
    {
      "anonymous": false,
      "inputs": [
        {
          "indexed": true,
          "internalType": "uint256",
          "name": "projectId",
          "type": "uint256"
        }
      ],
      "name": "ProjectClosed",
      "type": "event"
    },
    {
      "anonymous": false,
      "inputs": [
        {
          "indexed": true,
          "internalType": "uint256",
          "name": "projectId",
          "type": "uint256"
        },
        {
          "indexed": true,
          "internalType": "address",
          "name": "contributor",
          "type": "address"
        },
        {
          "indexed": false,
          "internalType": "uint256",
          "name": "amount",
          "type": "uint256"
        }
      ],
      "name": "RefundIssued",
      "type": "event"
    },
    {
      "inputs": [
        {
          "internalType": "address",
          "name": "",
          "type": "address"
        }
      ],
      "name": "contributions",
      "outputs": [
        {
          "internalType": "uint256",
          "name": "",
          "type": "uint256"
        }
      ],
      "stateMutability": "view",
      "type": "function"
    },
    {
      "inputs": [
        {
          "internalType": "uint256",
          "name": "",
          "type": "uint256"
        }
      ],
      "name": "contributors",
      "outputs": [
        {
          "internalType": "address",
          "name": "",
          "type": "address"
        }
      ],
      "stateMutability": "view",
      "type": "function"
    },
    {
      "inputs": [],
      "name": "project",
      "outputs": [
        {
          "internalType": "uint256",
          "name": "id",
          "type": "uint256"
        },
        {
          "internalType": "address payable",
          "name": "owner",
          "type": "address"
        },
        {
          "internalType": "string",
          "name": "name",
          "type": "string"
        },
        {
          "internalType": "string",
          "name": "description",
          "type": "string"
        },
        {
          "internalType": "uint256",
          "name": "goal",
          "type": "uint256"
        },
        {
          "internalType": "uint256",
          "name": "amountRaised",
          "type": "uint256"
        },
        {
          "internalType": "uint256",
          "name": "deadline",
          "type": "uint256"
        },
        {
          "internalType": "bool",
          "name": "isOpen",
          "type": "bool"
        }
      ],
      "stateMutability": "view",
      "type": "function"
    },
    {
      "inputs": [],
      "name": "contribute",
      "outputs": [],
      "stateMutability": "payable",
      "type": "function"
    },
    {
      "inputs": [],
      "name": "releaseFunds",
      "outputs": [],
      "stateMutability": "nonpayable",
      "type": "function"
    },
    {
      "inputs": [],
      "name": "closeProject",
      "outputs": [],
      "stateMutability": "nonpayable",
      "type": "function"
    },
    {
      "inputs": [],
      "name": "getProjectDetails",
      "outputs": [
        {
          "components": [
            {
              "internalType": "uint256",
              "name": "id",
              "type": "uint256"
            },
            {
              "internalType": "address payable",
              "name": "owner",
              "type": "address"
            },
            {
              "internalType": "string",
              "name": "name",
              "type": "string"
            },
            {
              "internalType": "string",
              "name": "description",
              "type": "string"
            },
            {
              "internalType": "uint256",
              "name": "goal",
              "type": "uint256"
            },
            {
              "internalType": "uint256",
              "name": "amountRaised",
              "type": "uint256"
            },
            {
              "internalType": "uint256",
              "name": "deadline",
              "type": "uint256"
            },
            {
              "internalType": "bool",
              "name": "isOpen",
              "type": "bool"
            }
          ],
          "internalType": "struct Project.ProjectDetails",
          "name": "",
          "type": "tuple"
        }
      ],
      "stateMutability": "view",
      "type": "function"
    }
  ],
  "bytecode": "0x608060405234801562000010575f80fd5b5060405162001c3838038062001c3883398181016040528101906200003691906200038d565b6040518061010001604052808781526020018273ffffffffffffffffffffffffffffffffffffffff1681526020018681526020018581526020018481526020015f8152602001603c846200008b919062000490565b42620000989190620004da565b8152602001600115158152505f80820151815f01556020820151816001015f6101000a81548173ffffffffffffffffffffffffffffffffffffffff021916908373ffffffffffffffffffffffffffffffffffffffff16021790555060408201518160020190816200010a919062000742565b50606082015181600301908162000122919062000742565b506080820151816004015560a0820151816005015560c0820151816006015560e0820151816007015f6101000a81548160ff02191690831515021790555090505050505050505062000826565b5f604051905090565b5f80fd5b5f80fd5b5f819050919050565b620001948162000180565b81146200019f575f80fd5b50565b5f81519050620001b28162000189565b92915050565b5f80fd5b5f80fd5b5f601f19601f8301169050919050565b7f4e487b71000000000000000000000000000000000000000000000000000000005f52604160045260245ffd5b6200020882620001c0565b810181811067ffffffffffffffff821117156200022a5762000229620001d0565b5b80604052505050565b5f6200023e6200016f565b90506200024c8282620001fd565b919050565b5f67ffffffffffffffff8211156200026e576200026d620001d0565b5b6200027982620001c0565b9050602081019050919050565b5f5b83811015620002a557808201518184015260208101905062000288565b5f8484015250505050565b5f620002c6620002c08462000251565b62000233565b905082815260208101848484011115620002e557620002e4620001bc565b5b620002f284828562000286565b509392505050565b5f82601f830112620003115762000310620001b8565b5b815162000323848260208601620002b0565b91505092915050565b5f73ffffffffffffffffffffffffffffffffffffffff82169050919050565b5f62000357826200032c565b9050919050565b62000369816200034b565b811462000374575f80fd5b50565b5f8151905062000387816200035e565b92915050565b5f805f805f8060c08789031215620003aa57620003a962000178565b5b5f620003b989828a01620001a2565b965050602087015167ffffffffffffffff811115620003dd57620003dc6200017c565b5b620003eb89828a01620002fa565b955050604087015167ffffffffffffffff8111156200040f576200040e6200017c565b5b6200041d89828a01620002fa565b94505060606200043089828a01620001a2565b93505060806200044389828a01620001a2565b92505060a06200045689828a0162000377565b9150509295509295509295565b7f4e487b71000000000000000000000000000000000000000000000000000000005f52601160045260245ffd5b5f6200049c8262000180565b9150620004a98362000180565b9250828202620004b98162000180565b91508282048414831517620004d357620004d262000463565b5b5092915050565b5f620004e68262000180565b9150620004f38362000180565b92508282019050808211156200050e576200050d62000463565b5b92915050565b5f81519050919050565b7f4e487b71000000000000000000000000000000000000000000000000000000005f52602260045260245ffd5b5f60028204905060018216806200056357607f821691505b6020821081036200057957620005786200051e565b5b50919050565b5f819050815f5260205f209050919050565b5f6020601f8301049050919050565b5f82821b905092915050565b5f60088302620005dd7fffffffffffffffffffffffffffffffffffffffffffffffffffffffffffffffff82620005a0565b620005e98683620005a0565b95508019841693508086168417925050509392505050565b5f819050919050565b5f6200062a620006246200061e8462000180565b62000601565b62000180565b9050919050565b5f819050919050565b62000645836200060a565b6200065d620006548262000631565b848454620005ac565b825550505050565b5f90565b6200067362000665565b620006808184846200063a565b505050565b5b81811015620006a7576200069b5f8262000669565b60018101905062000686565b5050565b601f821115620006f657620006c0816200057f565b620006cb8462000591565b81016020851015620006db578190505b620006f3620006ea8562000591565b83018262000685565b50505b505050565b5f82821c905092915050565b5f620007185f1984600802620006fb565b1980831691505092915050565b5f62000732838362000707565b9150826002028217905092915050565b6200074d8262000514565b67ffffffffffffffff811115620007695762000768620001d0565b5b6200077582546200054b565b62000782828285620006ab565b5f60209050601f831160018114620007b8575f8415620007a3578287015190505b620007af858262000725565b8655506200081e565b601f198416620007c8866200057f565b5f5b82811015620007f157848901518255600182019150602085019450602081019050620007ca565b868310156200081157848901516200080d601f89168262000707565b8355505b6001600288020188555050505b505050505050565b61140480620008345f395ff3fe60806040526004361061006f575f3560e01c8063d7bb99ba1161004d578063d7bb99ba14610101578063d8b9182b1461010b578063f60ca60d14610121578063ff3a9c7e146101525761006f565b80633cb5d1001461007357806342e94c90146100af57806369d89575146100eb575b5f80fd5b34801561007e575f80fd5b5061009960048036038101906100949190610bb2565b61017c565b6040516100a69190610c1c565b60405180910390f35b3480156100ba575f80fd5b506100d560048036038101906100d09190610c5f565b6101b7565b6040516100e29190610c99565b60405180910390f35b3480156100f6575f80fd5b506100ff6101cc565b005b6101096103bf565b005b348015610116575f80fd5b5061011f6105fe565b005b34801561012c575f80fd5b50610135610653565b604051610149989796959493929190610d76565b60405180910390f35b34801561015d575f80fd5b506101666107be565b6040516101739190610f29565b60405180910390f35b6009818154811061018b575f80fd5b905f5260205f20015f915054906101000a900473ffffffffffffffffffffffffffffffffffffffff1681565b6008602052805f5260405f205f915090505481565b5f6001015f9054906101000a900473ffffffffffffffffffffffffffffffffffffffff1673ffffffffffffffffffffffffffffffffffffffff163373ffffffffffffffffffffffffffffffffffffffff161461025d576040517f08c379a000000000000000000000000000000000000000000000000000000000815260040161025490610fb9565b60405180910390fd5b5f600401545f6005015410156102a8576040517f08c379a000000000000000000000000000000000000000000000000000000000815260040161029f90611047565b60405180910390fd5b5f6007015f9054906101000a900460ff166102f8576040517f08c379a00000000000000000000000000000000000000000000000000000000081526004016102ef906110d5565b60405180910390fd5b5f6001015f9054906101000a900473ffffffffffffffffffffffffffffffffffffffff1673ffffffffffffffffffffffffffffffffffffffff166108fc5f6005015490811502906040515f60405180830381858888f19350505050158015610362573d5f803e3d5ffd5b505f806007015f6101000a81548160ff0219169083151502179055505f8001547f80230996023d69b50793fa73f1919127c9d8e741d3989743c479169f22e7a2885f600501546040516103b59190610c99565b60405180910390a2565b5f6007015f9054906101000a900460ff1661040f576040517f08c379a000000000000000000000000000000000000000000000000000000000815260040161040690611163565b60405180910390fd5b5f60060154421115610456576040517f08c379a000000000000000000000000000000000000000000000000000000000815260040161044d906111f1565b60405180910390fd5b5f3411610498576040517f08c379a000000000000000000000000000000000000000000000000000000000815260040161048f9061127f565b60405180910390fd5b5f60085f3373ffffffffffffffffffffffffffffffffffffffff1673ffffffffffffffffffffffffffffffffffffffff1681526020019081526020015f20540361053d57600933908060018154018082558091505060019003905f5260205f20015f9091909190916101000a81548173ffffffffffffffffffffffffffffffffffffffff021916908373ffffffffffffffffffffffffffffffffffffffff1602179055505b345f6005015f82825461055091906112ca565b925050819055503460085f3373ffffffffffffffffffffffffffffffffffffffff1673ffffffffffffffffffffffffffffffffffffffff1681526020019081526020015f205f8282546105a391906112ca565b925050819055503373ffffffffffffffffffffffffffffffffffffffff165f8001547f0a4a91237423e0a1766a761c7cb029311d8b95d6b1b81db1b949a70c98b4e08e346040516105f49190610c99565b60405180910390a3565b61060661098e565b5f806007015f6101000a81548160ff0219169083151502179055505f8001547fa10da3bd85a8a7569325abd94177d0bbf25fbded5a3f6622a5588ce2cf1153ba60405160405180910390a2565b5f805f015490806001015f9054906101000a900473ffffffffffffffffffffffffffffffffffffffff169080600201805461068d9061132a565b80601f01602080910402602001604051908101604052809291908181526020018280546106b99061132a565b80156107045780601f106106db57610100808354040283529160200191610704565b820191905f5260205f20905b8154815290600101906020018083116106e757829003601f168201915b5050505050908060030180546107199061132a565b80601f01602080910402602001604051908101604052809291908181526020018280546107459061132a565b80156107905780601f1061076757610100808354040283529160200191610790565b820191905f5260205f20905b81548152906001019060200180831161077357829003601f168201915b505050505090806004015490806005015490806006015490806007015f9054906101000a900460ff16905088565b6107c6610b24565b5f604051806101000160405290815f8201548152602001600182015f9054906101000a900473ffffffffffffffffffffffffffffffffffffffff1673ffffffffffffffffffffffffffffffffffffffff1673ffffffffffffffffffffffffffffffffffffffff1681526020016002820180546108419061132a565b80601f016020809104026020016040519081016040528092919081815260200182805461086d9061132a565b80156108b85780601f1061088f576101008083540402835291602001916108b8565b820191905f5260205f20905b81548152906001019060200180831161089b57829003601f168201915b505050505081526020016003820180546108d19061132a565b80601f01602080910402602001604051908101604052809291908181526020018280546108fd9061132a565b80156109485780601f1061091f57610100808354040283529160200191610948565b820191905f5260205f20905b81548152906001019060200180831161092b57829003601f168201915b50505050508152602001600482015481526020016005820154815260200160068201548152602001600782015f9054906101000a900460ff161515151581525050905090565b5f6009805490500315610b22575f5b600980549050811015610b20575f600982815481106109bf576109be61135a565b5b905f5260205f20015f9054906101000a900473ffffffffffffffffffffffffffffffffffffffff1690505f60085f8373ffffffffffffffffffffffffffffffffffffffff1673ffffffffffffffffffffffffffffffffffffffff1681526020019081526020015f205490505f811115610b0b575f60085f8473ffffffffffffffffffffffffffffffffffffffff1673ffffffffffffffffffffffffffffffffffffffff1681526020019081526020015f20819055508173ffffffffffffffffffffffffffffffffffffffff166108fc8290811502906040515f60405180830381858888f19350505050158015610ab7573d5f803e3d5ffd5b508173ffffffffffffffffffffffffffffffffffffffff165f8001547f7a482fdeb6bc9a1376f597068a214a7a39472bb2eff1b8cad21ba04f49ddca1b83604051610b029190610c99565b60405180910390a35b50508080610b1890611387565b91505061099d565b505b565b6040518061010001604052805f81526020015f73ffffffffffffffffffffffffffffffffffffffff16815260200160608152602001606081526020015f81526020015f81526020015f81526020015f151581525090565b5f80fd5b5f819050919050565b610b9181610b7f565b8114610b9b575f80fd5b50565b5f81359050610bac81610b88565b92915050565b5f60208284031215610bc757610bc6610b7b565b5b5f610bd484828501610b9e565b91505092915050565b5f73ffffffffffffffffffffffffffffffffffffffff82169050919050565b5f610c0682610bdd565b9050919050565b610c1681610bfc565b82525050565b5f602082019050610c2f5f830184610c0d565b92915050565b610c3e81610bfc565b8114610c48575f80fd5b50565b5f81359050610c5981610c35565b92915050565b5f60208284031215610c7457610c73610b7b565b5b5f610c8184828501610c4b565b91505092915050565b610c9381610b7f565b82525050565b5f602082019050610cac5f830184610c8a565b92915050565b5f610cbc82610bdd565b9050919050565b610ccc81610cb2565b82525050565b5f81519050919050565b5f82825260208201905092915050565b5f5b83811015610d09578082015181840152602081019050610cee565b5f8484015250505050565b5f601f19601f8301169050919050565b5f610d2e82610cd2565b610d388185610cdc565b9350610d48818560208601610cec565b610d5181610d14565b840191505092915050565b5f8115159050919050565b610d7081610d5c565b82525050565b5f61010082019050610d8a5f83018b610c8a565b610d97602083018a610cc3565b8181036040830152610da98189610d24565b90508181036060830152610dbd8188610d24565b9050610dcc6080830187610c8a565b610dd960a0830186610c8a565b610de660c0830185610c8a565b610df360e0830184610d67565b9998505050505050505050565b610e0981610b7f565b82525050565b610e1881610cb2565b82525050565b5f82825260208201905092915050565b5f610e3882610cd2565b610e428185610e1e565b9350610e52818560208601610cec565b610e5b81610d14565b840191505092915050565b610e6f81610d5c565b82525050565b5f61010083015f830151610e8b5f860182610e00565b506020830151610e9e6020860182610e0f565b5060408301518482036040860152610eb68282610e2e565b91505060608301518482036060860152610ed08282610e2e565b9150506080830151610ee56080860182610e00565b5060a0830151610ef860a0860182610e00565b5060c0830151610f0b60c0860182610e00565b5060e0830151610f1e60e0860182610e66565b508091505092915050565b5f6020820190508181035f830152610f418184610e75565b905092915050565b7f4f6e6c79207468652070726f6a656374206f776e65722063616e2072656c65615f8201527f73652066756e64732e0000000000000000000000000000000000000000000000602082015250565b5f610fa3602983610cdc565b9150610fae82610f49565b604082019050919050565b5f6020820190508181035f830152610fd081610f97565b9050919050565b7f46756e64696e6720676f616c20686173206e6f74206265656e207265616368655f8201527f642e000000000000000000000000000000000000000000000000000000000000602082015250565b5f611031602283610cdc565b915061103c82610fd7565b604082019050919050565b5f6020820190508181035f83015261105e81611025565b9050919050565b7f46756e6473206861766520616c7265616479206265656e2072656c65617365645f8201527f206f722070726f6a65637420697320636c6f7365642e00000000000000000000602082015250565b5f6110bf603683610cdc565b91506110ca82611065565b604082019050919050565b5f6020820190508181035f8301526110ec816110b3565b9050919050565b7f50726f6a656374206973206e6f74206f70656e20666f7220636f6e74726962755f8201527f74696f6e732e0000000000000000000000000000000000000000000000000000602082015250565b5f61114d602683610cdc565b9150611158826110f3565b604082019050919050565b5f6020820190508181035f83015261117a81611141565b9050919050565b7f5468652066756e64696e6720706572696f6420666f7220746869732070726f6a5f8201527f6563742068617320656e6465642e000000000000000000000000000000000000602082015250565b5f6111db602e83610cdc565b91506111e682611181565b604082019050919050565b5f6020820190508181035f830152611208816111cf565b9050919050565b7f436f6e747269627574696f6e20616d6f756e74206d75737420626520677265615f8201527f746572207468616e207a65726f2e000000000000000000000000000000000000602082015250565b5f611269602e83610cdc565b91506112748261120f565b604082019050919050565b5f6020820190508181035f8301526112968161125d565b9050919050565b7f4e487b71000000000000000000000000000000000000000000000000000000005f52601160045260245ffd5b5f6112d482610b7f565b91506112df83610b7f565b92508282019050808211156112f7576112f661129d565b5b92915050565b7f4e487b71000000000000000000000000000000000000000000000000000000005f52602260045260245ffd5b5f600282049050600182168061134157607f821691505b602082108103611354576113536112fd565b5b50919050565b7f4e487b71000000000000000000000000000000000000000000000000000000005f52603260045260245ffd5b5f61139182610b7f565b91507fffffffffffffffffffffffffffffffffffffffffffffffffffffffffffffffff82036113c3576113c261129d565b5b60018201905091905056fea2646970667358221220be1167bea646af8b5fc1932cc52270d07518dd3d8165ad4a76215426165f262764736f6c63430008150033",
  "immutableReferences": {},
  "source": "// SPDX-License-Identifier: MIT\r\npragma solidity ^0.8.0;\r\n\r\ncontract Project {\r\n    struct ProjectDetails {\r\n        uint id;\r\n        address payable owner;\r\n        string name;\r\n        string description;\r\n        uint goal;\r\n        uint amountRaised;\r\n        uint deadline;\r\n        bool isOpen;\r\n    }\r\n\r\n    ProjectDetails public project;\r\n    mapping(address => uint) public contributions;\r\n    address[] public contributors;\r\n\r\n    event ContributionMade(uint indexed projectId, address indexed contributor, uint amount);\r\n    event FundsReleased(uint indexed projectId, uint amount);\r\n    event RefundIssued(uint indexed projectId, address indexed contributor, uint amount);\r\n    event ProjectClosed(uint indexed projectId);\r\n\r\n    constructor(\r\n        uint projectId,\r\n        string memory name,\r\n        string memory description,\r\n        uint goal,\r\n        uint durationInMinutes,\r\n        address payable owner) {\r\n        project = ProjectDetails({\r\n            id: projectId,\r\n            owner: owner,\r\n            name: name,\r\n            description: description,\r\n            goal: goal,\r\n            amountRaised: 0,\r\n            deadline: block.timestamp + (durationInMinutes * 1 minutes),\r\n            isOpen: true\r\n        });\r\n    }\r\n\r\n    function contribute() public payable {\r\n        require(project.isOpen, \"Project is not open for contributions.\");\r\n        require(block.timestamp <= project.deadline, \"The funding period for this project has ended.\");\r\n        require(msg.value > 0, \"Contribution amount must be greater than zero.\");\r\n\r\n        if (contributions[msg.sender] == 0) {\r\n            contributors.push(msg.sender);\r\n        }\r\n\r\n        project.amountRaised += msg.value;\r\n        contributions[msg.sender] += msg.value;\r\n\r\n        emit ContributionMade(project.id, msg.sender, msg.value);\r\n    }\r\n\r\n    function releaseFunds() public {\r\n        require(msg.sender == project.owner, \"Only the project owner can release funds.\");\r\n        require(project.amountRaised >= project.goal, \"Funding goal has not been reached.\");\r\n        require(project.isOpen, \"Funds have already been released or project is closed.\");\r\n\r\n        project.owner.transfer(project.amountRaised);\r\n        project.isOpen = false;\r\n\r\n        emit FundsReleased(project.id, project.amountRaised);\r\n    }\r\n\r\n    function refundAll() internal {\r\n        if (contributors.length == 0) {\r\n            return;\r\n        }\r\n\r\n        for (uint i = 0; i < contributors.length; i++) {\r\n            address contributor = contributors[i];\r\n            uint amount = contributions[contributor];\r\n            if (amount > 0) {\r\n                contributions[contributor] = 0;\r\n                payable(contributor).transfer(amount);\r\n                emit RefundIssued(project.id, contributor, amount);\r\n            }\r\n        }\r\n    }\r\n\r\n    function closeProject() public {\r\n        refundAll();\r\n        project.isOpen = false;\r\n        emit ProjectClosed(project.id);\r\n    }\r\n\r\n    function getProjectDetails() public view returns (ProjectDetails memory) {\r\n        return project;\r\n    }\r\n}\r\n",
  "sourcePath": "C:\\Users\\y509100\\OneDrive - Software AG\\Desktop\\unsw\\blockchain application\\pro2\\crowdfunding_dApp\\backend\\contracts\\Project.sol",
  "compiler": {
    "name": "solc",
    "version": "0.8.21+commit.d9974bed.Emscripten.clang"
  },
  "schemaVersion": "3.4.16",
  "updatedAt": "2024-07-14T13:41:02.180Z",
  "devdoc": {
    "kind": "dev",
    "methods": {},
    "version": 1
  },
  "userdoc": {
    "kind": "user",
    "methods": {},
    "version": 1
  }
}