{
  "contractName": "Project",
  "abi": [
    {
      "inputs": [
        {
          "internalType": "uint256",
          "name": "projectId",
          "type": "uint256"
        },
        {
          "internalType": "string",
          "name": "name",
          "type": "string"
        },
        {
          "internalType": "string",
          "name": "description",
          "type": "string"
        },
        {
          "internalType": "uint256",
          "name": "goal",
          "type": "uint256"
        },
        {
          "internalType": "uint256",
          "name": "duration",
          "type": "uint256"
        },
        {
          "internalType": "address payable",
          "name": "owner",
          "type": "address"
        }
      ],
      "stateMutability": "nonpayable",
      "type": "constructor"
    },
    {
      "anonymous": false,
      "inputs": [
        {
          "indexed": true,
          "internalType": "uint256",
          "name": "projectId",
          "type": "uint256"
        },
        {
          "indexed": true,
          "internalType": "address",
          "name": "contributor",
          "type": "address"
        },
        {
          "indexed": false,
          "internalType": "uint256",
          "name": "amount",
          "type": "uint256"
        }
      ],
      "name": "ContributionMade",
      "type": "event"
    },
    {
      "anonymous": false,
      "inputs": [
        {
          "indexed": true,
          "internalType": "uint256",
          "name": "projectId",
          "type": "uint256"
        },
        {
          "indexed": false,
          "internalType": "uint256",
          "name": "amount",
          "type": "uint256"
        }
      ],
      "name": "FundsReleased",
      "type": "event"
    },
    {
      "anonymous": false,
      "inputs": [
        {
          "indexed": true,
          "internalType": "uint256",
          "name": "projectId",
          "type": "uint256"
        },
        {
          "indexed": true,
          "internalType": "address",
          "name": "contributor",
          "type": "address"
        },
        {
          "indexed": false,
          "internalType": "uint256",
          "name": "amount",
          "type": "uint256"
        }
      ],
      "name": "RefundIssued",
      "type": "event"
    },
    {
      "inputs": [
        {
          "internalType": "address",
          "name": "",
          "type": "address"
        }
      ],
      "name": "contributions",
      "outputs": [
        {
          "internalType": "uint256",
          "name": "",
          "type": "uint256"
        }
      ],
      "stateMutability": "view",
      "type": "function"
    },
    {
      "inputs": [],
      "name": "project",
      "outputs": [
        {
          "internalType": "uint256",
          "name": "id",
          "type": "uint256"
        },
        {
          "internalType": "address payable",
          "name": "owner",
          "type": "address"
        },
        {
          "internalType": "string",
          "name": "name",
          "type": "string"
        },
        {
          "internalType": "string",
          "name": "description",
          "type": "string"
        },
        {
          "internalType": "uint256",
          "name": "goal",
          "type": "uint256"
        },
        {
          "internalType": "uint256",
          "name": "amountRaised",
          "type": "uint256"
        },
        {
          "internalType": "uint256",
          "name": "deadline",
          "type": "uint256"
        },
        {
          "internalType": "bool",
          "name": "isOpen",
          "type": "bool"
        }
      ],
      "stateMutability": "view",
      "type": "function"
    },
    {
      "inputs": [],
      "name": "contribute",
      "outputs": [],
      "stateMutability": "payable",
      "type": "function"
    },
    {
      "inputs": [],
      "name": "releaseFunds",
      "outputs": [],
      "stateMutability": "nonpayable",
      "type": "function"
    },
    {
      "inputs": [],
      "name": "refund",
      "outputs": [],
      "stateMutability": "nonpayable",
      "type": "function"
    },
    {
      "inputs": [],
      "name": "getProjectDetails",
      "outputs": [
        {
          "components": [
            {
              "internalType": "uint256",
              "name": "id",
              "type": "uint256"
            },
            {
              "internalType": "address payable",
              "name": "owner",
              "type": "address"
            },
            {
              "internalType": "string",
              "name": "name",
              "type": "string"
            },
            {
              "internalType": "string",
              "name": "description",
              "type": "string"
            },
            {
              "internalType": "uint256",
              "name": "goal",
              "type": "uint256"
            },
            {
              "internalType": "uint256",
              "name": "amountRaised",
              "type": "uint256"
            },
            {
              "internalType": "uint256",
              "name": "deadline",
              "type": "uint256"
            },
            {
              "internalType": "bool",
              "name": "isOpen",
              "type": "bool"
            }
          ],
          "internalType": "struct Project.ProjectDetails",
          "name": "",
          "type": "tuple"
        }
      ],
      "stateMutability": "view",
      "type": "function"
    }
  ],
  "bytecode": "0x608060405234801562000010575f80fd5b5060405162001ba238038062001ba283398181016040528101906200003691906200037f565b6040518061010001604052808781526020018273ffffffffffffffffffffffffffffffffffffffff1681526020018681526020018581526020018481526020015f815260200183436200008a919062000482565b8152602001600115158152505f80820151815f01556020820151816001015f6101000a81548173ffffffffffffffffffffffffffffffffffffffff021916908373ffffffffffffffffffffffffffffffffffffffff1602179055506040820151816002019081620000fc9190620006ea565b506060820151816003019081620001149190620006ea565b506080820151816004015560a0820151816005015560c0820151816006015560e0820151816007015f6101000a81548160ff021916908315150217905550905050505050505050620007ce565b5f604051905090565b5f80fd5b5f80fd5b5f819050919050565b620001868162000172565b811462000191575f80fd5b50565b5f81519050620001a4816200017b565b92915050565b5f80fd5b5f80fd5b5f601f19601f8301169050919050565b7f4e487b71000000000000000000000000000000000000000000000000000000005f52604160045260245ffd5b620001fa82620001b2565b810181811067ffffffffffffffff821117156200021c576200021b620001c2565b5b80604052505050565b5f6200023062000161565b90506200023e8282620001ef565b919050565b5f67ffffffffffffffff82111562000260576200025f620001c2565b5b6200026b82620001b2565b9050602081019050919050565b5f5b83811015620002975780820151818401526020810190506200027a565b5f8484015250505050565b5f620002b8620002b28462000243565b62000225565b905082815260208101848484011115620002d757620002d6620001ae565b5b620002e484828562000278565b509392505050565b5f82601f830112620003035762000302620001aa565b5b815162000315848260208601620002a2565b91505092915050565b5f73ffffffffffffffffffffffffffffffffffffffff82169050919050565b5f62000349826200031e565b9050919050565b6200035b816200033d565b811462000366575f80fd5b50565b5f81519050620003798162000350565b92915050565b5f805f805f8060c087890312156200039c576200039b6200016a565b5b5f620003ab89828a0162000194565b965050602087015167ffffffffffffffff811115620003cf57620003ce6200016e565b5b620003dd89828a01620002ec565b955050604087015167ffffffffffffffff8111156200040157620004006200016e565b5b6200040f89828a01620002ec565b94505060606200042289828a0162000194565b93505060806200043589828a0162000194565b92505060a06200044889828a0162000369565b9150509295509295509295565b7f4e487b71000000000000000000000000000000000000000000000000000000005f52601160045260245ffd5b5f6200048e8262000172565b91506200049b8362000172565b9250828201905080821115620004b657620004b562000455565b5b92915050565b5f81519050919050565b7f4e487b71000000000000000000000000000000000000000000000000000000005f52602260045260245ffd5b5f60028204905060018216806200050b57607f821691505b602082108103620005215762000520620004c6565b5b50919050565b5f819050815f5260205f209050919050565b5f6020601f8301049050919050565b5f82821b905092915050565b5f60088302620005857fffffffffffffffffffffffffffffffffffffffffffffffffffffffffffffffff8262000548565b62000591868362000548565b95508019841693508086168417925050509392505050565b5f819050919050565b5f620005d2620005cc620005c68462000172565b620005a9565b62000172565b9050919050565b5f819050919050565b620005ed83620005b2565b62000605620005fc82620005d9565b84845462000554565b825550505050565b5f90565b6200061b6200060d565b62000628818484620005e2565b505050565b5b818110156200064f57620006435f8262000611565b6001810190506200062e565b5050565b601f8211156200069e57620006688162000527565b620006738462000539565b8101602085101562000683578190505b6200069b620006928562000539565b8301826200062d565b50505b505050565b5f82821c905092915050565b5f620006c05f1984600802620006a3565b1980831691505092915050565b5f620006da8383620006af565b9150826002028217905092915050565b620006f582620004bc565b67ffffffffffffffff811115620007115762000710620001c2565b5b6200071d8254620004f3565b6200072a82828562000653565b5f60209050601f83116001811462000760575f84156200074b578287015190505b620007578582620006cd565b865550620007c6565b601f198416620007708662000527565b5f5b82811015620007995784890151825560018201915060208501945060208101905062000772565b86831015620007b95784890151620007b5601f891682620006af565b8355505b6001600288020188555050505b505050505050565b6113c680620007dc5f395ff3fe608060405260043610610054575f3560e01c806342e94c9014610058578063590e1ae31461009457806369d89575146100aa578063d7bb99ba146100c0578063f60ca60d146100ca578063ff3a9c7e146100fb575b5f80fd5b348015610063575f80fd5b5061007e60048036038101906100799190610ae2565b610125565b60405161008b9190610b25565b60405180910390f35b34801561009f575f80fd5b506100a861013a565b005b3480156100b5575f80fd5b506100be610365565b005b6100c8610558565b005b3480156100d5575f80fd5b506100de6106f2565b6040516100f2989796959493929190610c02565b60405180910390f35b348015610106575f80fd5b5061010f61085d565b60405161011c9190610db5565b60405180910390f35b6008602052805f5260405f205f915090505481565b5f600601544311610180576040517f08c379a000000000000000000000000000000000000000000000000000000000815260040161017790610e45565b60405180910390fd5b5f600401545f60050154106101ca576040517f08c379a00000000000000000000000000000000000000000000000000000000081526004016101c190610ed3565b60405180910390fd5b5f60085f3373ffffffffffffffffffffffffffffffffffffffff1673ffffffffffffffffffffffffffffffffffffffff1681526020019081526020015f205411610249576040517f08c379a000000000000000000000000000000000000000000000000000000000815260040161024090610f61565b60405180910390fd5b5f60085f3373ffffffffffffffffffffffffffffffffffffffff1673ffffffffffffffffffffffffffffffffffffffff1681526020019081526020015f205490505f60085f3373ffffffffffffffffffffffffffffffffffffffff1673ffffffffffffffffffffffffffffffffffffffff1681526020019081526020015f20819055503373ffffffffffffffffffffffffffffffffffffffff166108fc8290811502906040515f60405180830381858888f1935050505015801561030f573d5f803e3d5ffd5b503373ffffffffffffffffffffffffffffffffffffffff165f8001547f7a482fdeb6bc9a1376f597068a214a7a39472bb2eff1b8cad21ba04f49ddca1b8360405161035a9190610b25565b60405180910390a350565b5f6001015f9054906101000a900473ffffffffffffffffffffffffffffffffffffffff1673ffffffffffffffffffffffffffffffffffffffff163373ffffffffffffffffffffffffffffffffffffffff16146103f6576040517f08c379a00000000000000000000000000000000000000000000000000000000081526004016103ed90610fef565b60405180910390fd5b5f600401545f600501541015610441576040517f08c379a00000000000000000000000000000000000000000000000000000000081526004016104389061107d565b60405180910390fd5b5f6007015f9054906101000a900460ff16610491576040517f08c379a00000000000000000000000000000000000000000000000000000000081526004016104889061110b565b60405180910390fd5b5f6001015f9054906101000a900473ffffffffffffffffffffffffffffffffffffffff1673ffffffffffffffffffffffffffffffffffffffff166108fc5f6005015490811502906040515f60405180830381858888f193505050501580156104fb573d5f803e3d5ffd5b505f806007015f6101000a81548160ff0219169083151502179055505f8001547f80230996023d69b50793fa73f1919127c9d8e741d3989743c479169f22e7a2885f6005015460405161054e9190610b25565b60405180910390a2565b5f6007015f9054906101000a900460ff166105a8576040517f08c379a000000000000000000000000000000000000000000000000000000000815260040161059f90611199565b60405180910390fd5b5f600601544311156105ef576040517f08c379a00000000000000000000000000000000000000000000000000000000081526004016105e690611227565b60405180910390fd5b5f3411610631576040517f08c379a0000000000000000000000000000000000000000000000000000000008152600401610628906112b5565b60405180910390fd5b345f6005015f8282546106449190611300565b925050819055503460085f3373ffffffffffffffffffffffffffffffffffffffff1673ffffffffffffffffffffffffffffffffffffffff1681526020019081526020015f205f8282546106979190611300565b925050819055503373ffffffffffffffffffffffffffffffffffffffff165f8001547f0a4a91237423e0a1766a761c7cb029311d8b95d6b1b81db1b949a70c98b4e08e346040516106e89190610b25565b60405180910390a3565b5f805f015490806001015f9054906101000a900473ffffffffffffffffffffffffffffffffffffffff169080600201805461072c90611360565b80601f016020809104026020016040519081016040528092919081815260200182805461075890611360565b80156107a35780601f1061077a576101008083540402835291602001916107a3565b820191905f5260205f20905b81548152906001019060200180831161078657829003601f168201915b5050505050908060030180546107b890611360565b80601f01602080910402602001604051908101604052809291908181526020018280546107e490611360565b801561082f5780601f106108065761010080835404028352916020019161082f565b820191905f5260205f20905b81548152906001019060200180831161081257829003601f168201915b505050505090806004015490806005015490806006015490806007015f9054906101000a900460ff16905088565b610865610a2d565b5f604051806101000160405290815f8201548152602001600182015f9054906101000a900473ffffffffffffffffffffffffffffffffffffffff1673ffffffffffffffffffffffffffffffffffffffff1673ffffffffffffffffffffffffffffffffffffffff1681526020016002820180546108e090611360565b80601f016020809104026020016040519081016040528092919081815260200182805461090c90611360565b80156109575780601f1061092e57610100808354040283529160200191610957565b820191905f5260205f20905b81548152906001019060200180831161093a57829003601f168201915b5050505050815260200160038201805461097090611360565b80601f016020809104026020016040519081016040528092919081815260200182805461099c90611360565b80156109e75780601f106109be576101008083540402835291602001916109e7565b820191905f5260205f20905b8154815290600101906020018083116109ca57829003601f168201915b50505050508152602001600482015481526020016005820154815260200160068201548152602001600782015f9054906101000a900460ff161515151581525050905090565b6040518061010001604052805f81526020015f73ffffffffffffffffffffffffffffffffffffffff16815260200160608152602001606081526020015f81526020015f81526020015f81526020015f151581525090565b5f80fd5b5f73ffffffffffffffffffffffffffffffffffffffff82169050919050565b5f610ab182610a88565b9050919050565b610ac181610aa7565b8114610acb575f80fd5b50565b5f81359050610adc81610ab8565b92915050565b5f60208284031215610af757610af6610a84565b5b5f610b0484828501610ace565b91505092915050565b5f819050919050565b610b1f81610b0d565b82525050565b5f602082019050610b385f830184610b16565b92915050565b5f610b4882610a88565b9050919050565b610b5881610b3e565b82525050565b5f81519050919050565b5f82825260208201905092915050565b5f5b83811015610b95578082015181840152602081019050610b7a565b5f8484015250505050565b5f601f19601f8301169050919050565b5f610bba82610b5e565b610bc48185610b68565b9350610bd4818560208601610b78565b610bdd81610ba0565b840191505092915050565b5f8115159050919050565b610bfc81610be8565b82525050565b5f61010082019050610c165f83018b610b16565b610c23602083018a610b4f565b8181036040830152610c358189610bb0565b90508181036060830152610c498188610bb0565b9050610c586080830187610b16565b610c6560a0830186610b16565b610c7260c0830185610b16565b610c7f60e0830184610bf3565b9998505050505050505050565b610c9581610b0d565b82525050565b610ca481610b3e565b82525050565b5f82825260208201905092915050565b5f610cc482610b5e565b610cce8185610caa565b9350610cde818560208601610b78565b610ce781610ba0565b840191505092915050565b610cfb81610be8565b82525050565b5f61010083015f830151610d175f860182610c8c565b506020830151610d2a6020860182610c9b565b5060408301518482036040860152610d428282610cba565b91505060608301518482036060860152610d5c8282610cba565b9150506080830151610d716080860182610c8c565b5060a0830151610d8460a0860182610c8c565b5060c0830151610d9760c0860182610c8c565b5060e0830151610daa60e0860182610cf2565b508091505092915050565b5f6020820190508181035f830152610dcd8184610d01565b905092915050565b7f50726f6a65637420646561646c696e6520686173206e6f7420796574207061735f8201527f7365642e00000000000000000000000000000000000000000000000000000000602082015250565b5f610e2f602483610b68565b9150610e3a82610dd5565b604082019050919050565b5f6020820190508181035f830152610e5c81610e23565b9050919050565b7f46756e64696e6720676f616c2077617320726561636865643b206e6f207265665f8201527f756e647320617661696c61626c652e0000000000000000000000000000000000602082015250565b5f610ebd602f83610b68565b9150610ec882610e63565b604082019050919050565b5f6020820190508181035f830152610eea81610eb1565b9050919050565b7f4e6f20636f6e747269627574696f6e7320666f756e6420666f7220726566756e5f8201527f642e000000000000000000000000000000000000000000000000000000000000602082015250565b5f610f4b602283610b68565b9150610f5682610ef1565b604082019050919050565b5f6020820190508181035f830152610f7881610f3f565b9050919050565b7f4f6e6c79207468652070726f6a656374206f776e65722063616e2072656c65615f8201527f73652066756e64732e0000000000000000000000000000000000000000000000602082015250565b5f610fd9602983610b68565b9150610fe482610f7f565b604082019050919050565b5f6020820190508181035f83015261100681610fcd565b9050919050565b7f46756e64696e6720676f616c20686173206e6f74206265656e207265616368655f8201527f642e000000000000000000000000000000000000000000000000000000000000602082015250565b5f611067602283610b68565b91506110728261100d565b604082019050919050565b5f6020820190508181035f8301526110948161105b565b9050919050565b7f46756e6473206861766520616c7265616479206265656e2072656c65617365645f8201527f206f722070726f6a65637420697320636c6f7365642e00000000000000000000602082015250565b5f6110f5603683610b68565b91506111008261109b565b604082019050919050565b5f6020820190508181035f830152611122816110e9565b9050919050565b7f50726f6a656374206973206e6f74206f70656e20666f7220636f6e74726962755f8201527f74696f6e732e0000000000000000000000000000000000000000000000000000602082015250565b5f611183602683610b68565b915061118e82611129565b604082019050919050565b5f6020820190508181035f8301526111b081611177565b9050919050565b7f5468652066756e64696e6720706572696f6420666f7220746869732070726f6a5f8201527f6563742068617320656e6465642e000000000000000000000000000000000000602082015250565b5f611211602e83610b68565b915061121c826111b7565b604082019050919050565b5f6020820190508181035f83015261123e81611205565b9050919050565b7f436f6e747269627574696f6e20616d6f756e74206d75737420626520677265615f8201527f746572207468616e207a65726f2e000000000000000000000000000000000000602082015250565b5f61129f602e83610b68565b91506112aa82611245565b604082019050919050565b5f6020820190508181035f8301526112cc81611293565b9050919050565b7f4e487b71000000000000000000000000000000000000000000000000000000005f52601160045260245ffd5b5f61130a82610b0d565b915061131583610b0d565b925082820190508082111561132d5761132c6112d3565b5b92915050565b7f4e487b71000000000000000000000000000000000000000000000000000000005f52602260045260245ffd5b5f600282049050600182168061137757607f821691505b60208210810361138a57611389611333565b5b5091905056fea264697066735822122016f84840e611400a0b5d91407f430937bbbd757e70aa9c89b953f79658a9a16e64736f6c63430008150033",
  "immutableReferences": {},
  "source": "// SPDX-License-Identifier: MIT\r\npragma solidity ^0.8.0;\r\n\r\ncontract Project {\r\n    struct ProjectDetails {\r\n        uint id;\r\n        address payable owner;\r\n        string name;\r\n        string description;\r\n        uint goal;\r\n        uint amountRaised;\r\n        uint deadline;\r\n        bool isOpen;\r\n    }\r\n\r\n    ProjectDetails public project;\r\n    mapping(address => uint) public contributions;\r\n\r\n    event ContributionMade(uint indexed projectId, address indexed contributor, uint amount);\r\n    event FundsReleased(uint indexed projectId, uint amount);\r\n    event RefundIssued(uint indexed projectId, address indexed contributor, uint amount);\r\n\r\n    constructor(\r\n        uint projectId,\r\n        string memory name,\r\n        string memory description,\r\n        uint goal,\r\n        uint duration,\r\n        address payable owner) {\r\n        project = ProjectDetails({\r\n            id: projectId,\r\n            owner: owner,\r\n            name: name,\r\n            description: description,\r\n            goal: goal,\r\n            amountRaised: 0,\r\n            deadline: block.number + duration,\r\n            isOpen: true\r\n        });\r\n    }\r\n\r\n    function contribute() public payable {\r\n        require(project.isOpen, \"Project is not open for contributions.\");\r\n        require(block.number <= project.deadline, \"The funding period for this project has ended.\");\r\n        require(msg.value > 0, \"Contribution amount must be greater than zero.\");\r\n\r\n        project.amountRaised += msg.value;\r\n        contributions[msg.sender] += msg.value;\r\n\r\n        emit ContributionMade(project.id, msg.sender, msg.value);\r\n    }\r\n\r\n    function releaseFunds() public {\r\n        require(msg.sender == project.owner, \"Only the project owner can release funds.\");\r\n        require(project.amountRaised >= project.goal, \"Funding goal has not been reached.\");\r\n        require(project.isOpen, \"Funds have already been released or project is closed.\");\r\n\r\n        project.owner.transfer(project.amountRaised);\r\n        project.isOpen = false;\r\n\r\n        emit FundsReleased(project.id, project.amountRaised);\r\n    }\r\n\r\n    function refund() public {\r\n        require(block.number > project.deadline, \"Project deadline has not yet passed.\");\r\n        require(project.amountRaised < project.goal, \"Funding goal was reached; no refunds available.\");\r\n        require(contributions[msg.sender] > 0, \"No contributions found for refund.\");\r\n\r\n        uint refundAmount = contributions[msg.sender];\r\n        contributions[msg.sender] = 0;\r\n        payable(msg.sender).transfer(refundAmount);\r\n\r\n        emit RefundIssued(project.id, msg.sender, refundAmount);\r\n    }\r\n\r\n    function getProjectDetails() public view returns (ProjectDetails memory) {\r\n       return project;\r\n    }\r\n}\r\n",
  "sourcePath": "C:\\Users\\y509100\\OneDrive - Software AG\\Desktop\\unsw\\blockchain application\\pro2\\crowdfunding_dApp\\backend\\contracts\\Project.sol",
  "compiler": {
    "name": "solc",
    "version": "0.8.21+commit.d9974bed.Emscripten.clang"
  },
  "schemaVersion": "3.4.16",
  "updatedAt": "2024-07-14T06:49:34.861Z",
  "devdoc": {
    "kind": "dev",
    "methods": {},
    "version": 1
  },
  "userdoc": {
    "kind": "user",
    "methods": {},
    "version": 1
  }
}