{
  "contractName": "UserFactory",
  "abi": [
    {
      "anonymous": false,
      "inputs": [
        {
          "indexed": false,
          "internalType": "address",
          "name": "userAddress",
          "type": "address"
        }
      ],
      "name": "UserCreated",
      "type": "event"
    },
    {
      "inputs": [
        {
          "internalType": "address",
          "name": "",
          "type": "address"
        }
      ],
      "name": "registeredUsers",
      "outputs": [
        {
          "internalType": "bool",
          "name": "",
          "type": "bool"
        }
      ],
      "stateMutability": "view",
      "type": "function"
    },
    {
      "inputs": [
        {
          "internalType": "uint256",
          "name": "",
          "type": "uint256"
        }
      ],
      "name": "users",
      "outputs": [
        {
          "internalType": "contract User",
          "name": "",
          "type": "address"
        }
      ],
      "stateMutability": "view",
      "type": "function"
    },
    {
      "inputs": [
        {
          "internalType": "string",
          "name": "_name",
          "type": "string"
        },
        {
          "internalType": "uint256",
          "name": "_age",
          "type": "uint256"
        }
      ],
      "name": "createUser",
      "outputs": [],
      "stateMutability": "nonpayable",
      "type": "function"
    },
    {
      "inputs": [],
      "name": "getUsers",
      "outputs": [
        {
          "internalType": "contract User[]",
          "name": "",
          "type": "address[]"
        }
      ],
      "stateMutability": "view",
      "type": "function"
    },
    {
      "inputs": [
        {
          "internalType": "address",
          "name": "_user",
          "type": "address"
        }
      ],
      "name": "isUserRegistered",
      "outputs": [
        {
          "internalType": "bool",
          "name": "",
          "type": "bool"
        }
      ],
      "stateMutability": "view",
      "type": "function"
    }
  ],
  "bytecode": "0x608060405234801561001057600080fd5b50611348806100206000396000f3fe60806040523480156200001157600080fd5b50600436106200005d5760003560e01c8062ce8e3e14620000625780630e50cee51462000084578063121ef24314620000ba578063163f752214620000da578063365b98b21462000110575b600080fd5b6200006c62000146565b6040516200007b91906200072e565b60405180910390f35b620000a260048036038101906200009c919062000503565b620001d6565b604051620000b1919062000752565b60405180910390f35b620000d86004803603810190620000d291906200052f565b620001f6565b005b620000f86004803603810190620000f2919062000503565b620003bf565b60405162000107919062000752565b60405180910390f35b6200012e600480360381019062000128919062000589565b62000415565b6040516200013d91906200076f565b60405180910390f35b60606000805480602002602001604051908101604052809291908181526020018280548015620001cc57602002820191906000526020600020905b8160009054906101000a900473ffffffffffffffffffffffffffffffffffffffff1673ffffffffffffffffffffffffffffffffffffffff168152602001906001019080831162000181575b5050505050905090565b60016020528060005260406000206000915054906101000a900460ff1681565b600160003373ffffffffffffffffffffffffffffffffffffffff1673ffffffffffffffffffffffffffffffffffffffff16815260200190815260200160002060009054906101000a900460ff161562000286576040517f08c379a00000000000000000000000000000000000000000000000000000000081526004016200027d90620007d0565b60405180910390fd5b6000828233604051620002999062000455565b620002a7939291906200078c565b604051809103906000f080158015620002c4573d6000803e3d6000fd5b5090506000819080600181540180825580915050600190039060005260206000200160009091909190916101000a81548173ffffffffffffffffffffffffffffffffffffffff021916908373ffffffffffffffffffffffffffffffffffffffff16021790555060018060003373ffffffffffffffffffffffffffffffffffffffff1673ffffffffffffffffffffffffffffffffffffffff16815260200190815260200160002060006101000a81548160ff0219169083151502179055507f0b0376a109cbb578b709f85f6a7befcdac3ac1ab251c99ede87f30c9572ac4d381604051620003b2919062000711565b60405180910390a1505050565b6000600160008373ffffffffffffffffffffffffffffffffffffffff1673ffffffffffffffffffffffffffffffffffffffff16815260200190815260200160002060009054906101000a900460ff169050919050565b600081815481106200042657600080fd5b906000526020600020016000915054906101000a900473ffffffffffffffffffffffffffffffffffffffff1681565b61093980620009da83390190565b60006200047a620004748462000826565b620007f2565b9050828152602081018484840111156200049357600080fd5b620004a084828562000920565b509392505050565b600081359050620004b981620009a5565b92915050565b600082601f830112620004d157600080fd5b8135620004e384826020860162000463565b91505092915050565b600081359050620004fd81620009bf565b92915050565b6000602082840312156200051657600080fd5b60006200052684828501620004a8565b91505092915050565b600080604083850312156200054357600080fd5b600083013567ffffffffffffffff8111156200055e57600080fd5b6200056c85828601620004bf565b92505060206200057f85828601620004ec565b9150509250929050565b6000602082840312156200059c57600080fd5b6000620005ac84828501620004ec565b91505092915050565b6000620005c383836200065b565b60208301905092915050565b620005da81620008ae565b82525050565b6000620005ed8262000869565b620005f981856200088c565b9350620006068362000859565b8060005b838110156200063d578151620006218882620005b5565b97506200062e836200087f565b9250506001810190506200060a565b5085935050505092915050565b6200065581620008c2565b82525050565b6200066681620008f8565b82525050565b6200067781620008f8565b82525050565b60006200068a8262000874565b6200069681856200089d565b9350620006a88185602086016200092f565b620006b38162000994565b840191505092915050565b6000620006cd6018836200089d565b91507f5573657220616c726561647920726567697374657265642e00000000000000006000830152602082019050919050565b6200070b81620008ee565b82525050565b6000602082019050620007286000830184620005cf565b92915050565b600060208201905081810360008301526200074a8184620005e0565b905092915050565b60006020820190506200076960008301846200064a565b92915050565b60006020820190506200078660008301846200066c565b92915050565b60006060820190508181036000830152620007a881866200067d565b9050620007b9602083018562000700565b620007c86040830184620005cf565b949350505050565b60006020820190508181036000830152620007eb81620006be565b9050919050565b6000604051905081810181811067ffffffffffffffff821117156200081c576200081b62000965565b5b8060405250919050565b600067ffffffffffffffff82111562000844576200084362000965565b5b601f19601f8301169050602081019050919050565b6000819050602082019050919050565b600081519050919050565b600081519050919050565b6000602082019050919050565b600082825260208201905092915050565b600082825260208201905092915050565b6000620008bb82620008ce565b9050919050565b60008115159050919050565b600073ffffffffffffffffffffffffffffffffffffffff82169050919050565b6000819050919050565b600062000905826200090c565b9050919050565b60006200091982620008ce565b9050919050565b82818337600083830152505050565b60005b838110156200094f57808201518184015260208101905062000932565b838111156200095f576000848401525b50505050565b7f4e487b7100000000000000000000000000000000000000000000000000000000600052604160045260246000fd5b6000601f19601f8301169050919050565b620009b081620008ae565b8114620009bc57600080fd5b50565b620009ca81620008ee565b8114620009d657600080fd5b5056fe60806040523480156200001157600080fd5b5060405162000939380380620009398339818101604052810190620000379190620001f9565b8260008001908051906020019062000051929190620000a9565b508160006001018190555080600060020160006101000a81548173ffffffffffffffffffffffffffffffffffffffff021916908373ffffffffffffffffffffffffffffffffffffffff1602179055505050506200040b565b828054620000b79062000343565b90600052602060002090601f016020900481019282620000db576000855562000127565b82601f10620000f657805160ff191683800117855562000127565b8280016001018555821562000127579182015b828111156200012657825182559160200191906001019062000109565b5b5090506200013691906200013a565b5090565b5b80821115620001555760008160009055506001016200013b565b5090565b6000620001706200016a846200029c565b62000268565b9050828152602081018484840111156200018957600080fd5b620001968482856200030d565b509392505050565b600081519050620001af81620003d7565b92915050565b600082601f830112620001c757600080fd5b8151620001d984826020860162000159565b91505092915050565b600081519050620001f381620003f1565b92915050565b6000806000606084860312156200020f57600080fd5b600084015167ffffffffffffffff8111156200022a57600080fd5b6200023886828701620001b5565b93505060206200024b86828701620001e2565b92505060406200025e868287016200019e565b9150509250925092565b6000604051905081810181811067ffffffffffffffff82111715620002925762000291620003a8565b5b8060405250919050565b600067ffffffffffffffff821115620002ba57620002b9620003a8565b5b601f19601f8301169050602081019050919050565b6000620002dc82620002e3565b9050919050565b600073ffffffffffffffffffffffffffffffffffffffff82169050919050565b6000819050919050565b60005b838110156200032d57808201518184015260208101905062000310565b838111156200033d576000848401525b50505050565b600060028204905060018216806200035c57607f821691505b6020821081141562000373576200037262000379565b5b50919050565b7f4e487b7100000000000000000000000000000000000000000000000000000000600052602260045260246000fd5b7f4e487b7100000000000000000000000000000000000000000000000000000000600052604160045260246000fd5b620003e281620002cf565b8114620003ee57600080fd5b50565b620003fc8162000303565b81146200040857600080fd5b50565b61051e806200041b6000396000f3fe608060405234801561001057600080fd5b50600436106100365760003560e01c806343a6f4ee1461003b5780635d8d15851461005b575b600080fd5b610043610079565b6040516100529392919061037a565b60405180910390f35b610063610139565b60405161007091906103b8565b60405180910390f35b600080600001805461008a90610476565b80601f01602080910402602001604051908101604052809291908181526020018280546100b690610476565b80156101035780601f106100d857610100808354040283529160200191610103565b820191906000526020600020905b8154815290600101906020018083116100e657829003601f168201915b5050505050908060010154908060020160009054906101000a900473ffffffffffffffffffffffffffffffffffffffff16905083565b610141610245565b600060405180606001604052908160008201805461015e90610476565b80601f016020809104026020016040519081016040528092919081815260200182805461018a90610476565b80156101d75780601f106101ac576101008083540402835291602001916101d7565b820191906000526020600020905b8154815290600101906020018083116101ba57829003601f168201915b50505050508152602001600182015481526020016002820160009054906101000a900473ffffffffffffffffffffffffffffffffffffffff1673ffffffffffffffffffffffffffffffffffffffff1673ffffffffffffffffffffffffffffffffffffffff1681525050905090565b60405180606001604052806060815260200160008152602001600073ffffffffffffffffffffffffffffffffffffffff1681525090565b61028581610407565b82525050565b61029481610407565b82525050565b60006102a5826103da565b6102af81856103e5565b93506102bf818560208601610443565b6102c8816104d7565b840191505092915050565b60006102de826103da565b6102e881856103f6565b93506102f8818560208601610443565b610301816104d7565b840191505092915050565b60006060830160008301518482036000860152610329828261029a565b915050602083015161033e602086018261035c565b506040830151610351604086018261027c565b508091505092915050565b61036581610439565b82525050565b61037481610439565b82525050565b6000606082019050818103600083015261039481866102d3565b90506103a3602083018561036b565b6103b0604083018461028b565b949350505050565b600060208201905081810360008301526103d2818461030c565b905092915050565b600081519050919050565b600082825260208201905092915050565b600082825260208201905092915050565b600061041282610419565b9050919050565b600073ffffffffffffffffffffffffffffffffffffffff82169050919050565b6000819050919050565b60005b83811015610461578082015181840152602081019050610446565b83811115610470576000848401525b50505050565b6000600282049050600182168061048e57607f821691505b602082108114156104a2576104a16104a8565b5b50919050565b7f4e487b7100000000000000000000000000000000000000000000000000000000600052602260045260246000fd5b6000601f19601f830116905091905056fea26469706673582212205686355d9a294b918ce046c6111f08a2405a2e40893da2bb62d955ba1a821f9664736f6c63430008000033a2646970667358221220099cecee013a0f262824e856882092d5acfcc2e85330b4964f47cd4af770055664736f6c63430008000033",
  "immutableReferences": {},
  "source": "// SPDX-License-Identifier: MIT\r\npragma solidity ^0.8.0;\r\n\r\nimport \"./User.sol\";\r\n\r\n/**\r\n * @title User Factory\r\n * @dev Manages creation and retrieval of user contracts.\r\n */\r\ncontract UserFactory {\r\n    User[] public users;\r\n    mapping(address => bool) public registeredUsers;\r\n\r\n    event UserCreated(address userAddress);\r\n\r\n    function createUser(string memory _name, uint _age) public {\r\n        require(!registeredUsers[msg.sender], \"User already registered.\");\r\n\r\n        User newUser = new User(_name, _age, msg.sender);\r\n        users.push(newUser);\r\n        registeredUsers[msg.sender] = true;\r\n        emit UserCreated(address(newUser));\r\n    }\r\n\r\n    function getUsers() public view returns (User[] memory) {\r\n        return users;\r\n    }\r\n\r\n    function isUserRegistered(address _user) public view returns (bool) {\r\n        return registeredUsers[_user];\r\n    }\r\n}",
  "sourcePath": "E:\\vscodeproject\\Comp6452\\crowdfunding_dApp\\backend\\contracts\\UserFactory.sol",
  "compiler": {
    "name": "solc",
    "version": "0.8.0+commit.c7dfd78e.Emscripten.clang"
  },
  "schemaVersion": "3.4.16",
  "updatedAt": "2024-07-23T09:41:43.459Z",
  "devdoc": {
    "details": "Manages creation and retrieval of user contracts.",
    "kind": "dev",
    "methods": {},
    "title": "User Factory",
    "version": 1
  },
  "userdoc": {
    "kind": "user",
    "methods": {},
    "version": 1
  }
}