{
  "contractName": "User",
  "abi": [
    {
      "inputs": [
        {
          "internalType": "string",
          "name": "_ipfsURL",
          "type": "string"
        },
        {
          "internalType": "address",
          "name": "_userAddress",
          "type": "address"
        }
      ],
      "stateMutability": "nonpayable",
      "type": "constructor"
    },
    {
      "inputs": [],
      "name": "userInfo",
      "outputs": [
        {
          "internalType": "string",
          "name": "ipfsURL",
          "type": "string"
        },
        {
          "internalType": "address",
          "name": "userAddress",
          "type": "address"
        }
      ],
      "stateMutability": "view",
      "type": "function"
    },
    {
      "inputs": [],
      "name": "getUserInfo",
      "outputs": [
        {
          "components": [
            {
              "internalType": "string",
              "name": "ipfsURL",
              "type": "string"
            },
            {
              "internalType": "address",
              "name": "userAddress",
              "type": "address"
            }
          ],
          "internalType": "struct User.UserInfo",
          "name": "",
          "type": "tuple"
        }
      ],
      "stateMutability": "view",
      "type": "function"
    }
  ],
  "bytecode": "0x608060405234801561001057600080fd5b506040516200084638038062000846833981810160405281019061003491906101b8565b8160008001908051906020019061004c929190610098565b5080600060010160006101000a81548173ffffffffffffffffffffffffffffffffffffffff021916908373ffffffffffffffffffffffffffffffffffffffff1602179055505050610379565b8280546100a4906102d2565b90600052602060002090601f0160209004810192826100c6576000855561010d565b82601f106100df57805160ff191683800117855561010d565b8280016001018555821561010d579182015b8281111561010c5782518255916020019190600101906100f1565b5b50905061011a919061011e565b5090565b5b8082111561013757600081600090555060010161011f565b5090565b600061014e6101498461023d565b61020c565b90508281526020810184848401111561016657600080fd5b61017184828561029f565b509392505050565b60008151905061018881610362565b92915050565b600082601f83011261019f57600080fd5b81516101af84826020860161013b565b91505092915050565b600080604083850312156101cb57600080fd5b600083015167ffffffffffffffff8111156101e557600080fd5b6101f18582860161018e565b925050602061020285828601610179565b9150509250929050565b6000604051905081810181811067ffffffffffffffff8211171561023357610232610333565b5b8060405250919050565b600067ffffffffffffffff82111561025857610257610333565b5b601f19601f8301169050602081019050919050565b60006102788261027f565b9050919050565b600073ffffffffffffffffffffffffffffffffffffffff82169050919050565b60005b838110156102bd5780820151818401526020810190506102a2565b838111156102cc576000848401525b50505050565b600060028204905060018216806102ea57607f821691505b602082108114156102fe576102fd610304565b5b50919050565b7f4e487b7100000000000000000000000000000000000000000000000000000000600052602260045260246000fd5b7f4e487b7100000000000000000000000000000000000000000000000000000000600052604160045260246000fd5b61036b8161026d565b811461037657600080fd5b50565b6104bd80620003896000396000f3fe608060405234801561001057600080fd5b50600436106100365760003560e01c806343a6f4ee1461003b5780635d8d15851461005a575b600080fd5b610043610078565b604051610051929190610331565b60405180910390f35b610062610132565b60405161006f9190610361565b60405180910390f35b600080600001805461008990610415565b80601f01602080910402602001604051908101604052809291908181526020018280546100b590610415565b80156101025780601f106100d757610100808354040283529160200191610102565b820191906000526020600020905b8154815290600101906020018083116100e557829003601f168201915b5050505050908060010160009054906101000a900473ffffffffffffffffffffffffffffffffffffffff16905082565b61013a610234565b600060405180604001604052908160008201805461015790610415565b80601f016020809104026020016040519081016040528092919081815260200182805461018390610415565b80156101d05780601f106101a5576101008083540402835291602001916101d0565b820191906000526020600020905b8154815290600101906020018083116101b357829003601f168201915b505050505081526020016001820160009054906101000a900473ffffffffffffffffffffffffffffffffffffffff1673ffffffffffffffffffffffffffffffffffffffff1673ffffffffffffffffffffffffffffffffffffffff1681525050905090565b604051806040016040528060608152602001600073ffffffffffffffffffffffffffffffffffffffff1681525090565b61026d816103b0565b82525050565b61027c816103b0565b82525050565b600061028d82610383565b610297818561038e565b93506102a78185602086016103e2565b6102b081610476565b840191505092915050565b60006102c682610383565b6102d0818561039f565b93506102e08185602086016103e2565b6102e981610476565b840191505092915050565b600060408301600083015184820360008601526103118282610282565b91505060208301516103266020860182610264565b508091505092915050565b6000604082019050818103600083015261034b81856102bb565b905061035a6020830184610273565b9392505050565b6000602082019050818103600083015261037b81846102f4565b905092915050565b600081519050919050565b600082825260208201905092915050565b600082825260208201905092915050565b60006103bb826103c2565b9050919050565b600073ffffffffffffffffffffffffffffffffffffffff82169050919050565b60005b838110156104005780820151818401526020810190506103e5565b8381111561040f576000848401525b50505050565b6000600282049050600182168061042d57607f821691505b6020821081141561044157610440610447565b5b50919050565b7f4e487b7100000000000000000000000000000000000000000000000000000000600052602260045260246000fd5b6000601f19601f830116905091905056fea26469706673582212203bcc44c8a0f7e07c2e957214595cf6d0ea53309f68ad5ac819a1c60971be5e3b64736f6c63430008000033",
  "immutableReferences": {},
  "source": "// SPDX-License-Identifier: MIT\r\npragma solidity ^0.8.0;\r\n\r\n/**\r\n * @title User Contract\r\n * @dev Stores data and manages actions for a single user.\r\n */\r\ncontract User {\r\n    struct UserInfo {\r\n        string ipfsURL;\r\n        address userAddress;\r\n    }\r\n\r\n    UserInfo public userInfo;\r\n\r\n    constructor(string memory _ipfsURL, address _userAddress) {\r\n        userInfo.ipfsURL = _ipfsURL;\r\n        userInfo.userAddress = _userAddress;\r\n    }\r\n\r\n    function getUserInfo() public view returns (UserInfo memory) {\r\n        return userInfo;\r\n    }\r\n}",
  "sourcePath": "E:\\vscodeproject\\Comp6452\\crowdfunding_dApp\\backend\\contracts\\User.sol",
  "compiler": {
    "name": "solc",
    "version": "0.8.0+commit.c7dfd78e.Emscripten.clang"
  },
  "schemaVersion": "3.4.16",
  "updatedAt": "2024-07-26T03:06:22.827Z",
  "devdoc": {
    "details": "Stores data and manages actions for a single user.",
    "kind": "dev",
    "methods": {},
    "title": "User Contract",
    "version": 1
  },
  "userdoc": {
    "kind": "user",
    "methods": {},
    "version": 1
  }
}