{
  "contractName": "UserFactory",
  "abi": [
    {
      "anonymous": false,
      "inputs": [
        {
          "indexed": false,
          "internalType": "address",
          "name": "userAddress",
          "type": "address"
        }
      ],
      "name": "UserCreated",
      "type": "event"
    },
    {
      "inputs": [
        {
          "internalType": "address",
          "name": "",
          "type": "address"
        }
      ],
      "name": "registeredUsers",
      "outputs": [
        {
          "internalType": "bool",
          "name": "",
          "type": "bool"
        }
      ],
      "stateMutability": "view",
      "type": "function"
    },
    {
      "inputs": [
        {
          "internalType": "uint256",
          "name": "",
          "type": "uint256"
        }
      ],
      "name": "users",
      "outputs": [
        {
          "internalType": "contract User",
          "name": "",
          "type": "address"
        }
      ],
      "stateMutability": "view",
      "type": "function"
    },
    {
      "inputs": [
        {
          "internalType": "string",
          "name": "ipfsURL",
          "type": "string"
        }
      ],
      "name": "createUser",
      "outputs": [],
      "stateMutability": "nonpayable",
      "type": "function"
    },
    {
      "inputs": [],
      "name": "getUsers",
      "outputs": [
        {
          "internalType": "contract User[]",
          "name": "",
          "type": "address[]"
        }
      ],
      "stateMutability": "view",
      "type": "function"
    },
    {
      "inputs": [
        {
          "internalType": "address",
          "name": "_user",
          "type": "address"
        }
      ],
      "name": "isUserRegistered",
      "outputs": [
        {
          "internalType": "bool",
          "name": "",
          "type": "bool"
        }
      ],
      "stateMutability": "view",
      "type": "function"
    }
  ],
  "bytecode": "0x608060405234801561001057600080fd5b5061121c806100206000396000f3fe60806040523480156200001157600080fd5b50600436106200005d5760003560e01c8062ce8e3e14620000625780630e50cee51462000084578063163f752214620000ba578063365b98b214620000f0578063507ffba51462000126575b600080fd5b6200006c62000146565b6040516200007b919062000705565b60405180910390f35b620000a260048036038101906200009c919062000500565b620001d6565b604051620000b1919062000729565b60405180910390f35b620000d86004803603810190620000d2919062000500565b620001f6565b604051620000e7919062000729565b60405180910390f35b6200010e600480360381019062000108919062000571565b6200024c565b6040516200011d919062000746565b60405180910390f35b6200014460048036038101906200013e91906200052c565b6200028c565b005b60606000805480602002602001604051908101604052809291908181526020018280548015620001cc57602002820191906000526020600020905b8160009054906101000a900473ffffffffffffffffffffffffffffffffffffffff1673ffffffffffffffffffffffffffffffffffffffff168152602001906001019080831162000181575b5050505050905090565b60016020528060005260406000206000915054906101000a900460ff1681565b6000600160008373ffffffffffffffffffffffffffffffffffffffff1673ffffffffffffffffffffffffffffffffffffffff16815260200190815260200160002060009054906101000a900460ff169050919050565b600081815481106200025d57600080fd5b906000526020600020016000915054906101000a900473ffffffffffffffffffffffffffffffffffffffff1681565b600160003373ffffffffffffffffffffffffffffffffffffffff1673ffffffffffffffffffffffffffffffffffffffff16815260200190815260200160002060009054906101000a900460ff16156200031c576040517f08c379a0000000000000000000000000000000000000000000000000000000008152600401620003139062000797565b60405180910390fd5b600081336040516200032e9062000452565b6200033b92919062000763565b604051809103906000f08015801562000358573d6000803e3d6000fd5b5090506000819080600181540180825580915050600190039060005260206000200160009091909190916101000a81548173ffffffffffffffffffffffffffffffffffffffff021916908373ffffffffffffffffffffffffffffffffffffffff16021790555060018060003373ffffffffffffffffffffffffffffffffffffffff1673ffffffffffffffffffffffffffffffffffffffff16815260200190815260200160002060006101000a81548160ff0219169083151502179055507f0b0376a109cbb578b709f85f6a7befcdac3ac1ab251c99ede87f30c9572ac4d381604051620004469190620006e8565b60405180910390a15050565b61084680620009a183390190565b6000620004776200047184620007ed565b620007b9565b9050828152602081018484840111156200049057600080fd5b6200049d848285620008e7565b509392505050565b600081359050620004b6816200096c565b92915050565b600082601f830112620004ce57600080fd5b8135620004e084826020860162000460565b91505092915050565b600081359050620004fa8162000986565b92915050565b6000602082840312156200051357600080fd5b60006200052384828501620004a5565b91505092915050565b6000602082840312156200053f57600080fd5b600082013567ffffffffffffffff8111156200055a57600080fd5b6200056884828501620004bc565b91505092915050565b6000602082840312156200058457600080fd5b60006200059484828501620004e9565b91505092915050565b6000620005ab838362000643565b60208301905092915050565b620005c28162000875565b82525050565b6000620005d58262000830565b620005e1818562000853565b9350620005ee8362000820565b8060005b83811015620006255781516200060988826200059d565b9750620006168362000846565b925050600181019050620005f2565b5085935050505092915050565b6200063d8162000889565b82525050565b6200064e81620008bf565b82525050565b6200065f81620008bf565b82525050565b600062000672826200083b565b6200067e818562000864565b935062000690818560208601620008f6565b6200069b816200095b565b840191505092915050565b6000620006b560188362000864565b91507f5573657220616c726561647920726567697374657265642e00000000000000006000830152602082019050919050565b6000602082019050620006ff6000830184620005b7565b92915050565b60006020820190508181036000830152620007218184620005c8565b905092915050565b600060208201905062000740600083018462000632565b92915050565b60006020820190506200075d600083018462000654565b92915050565b600060408201905081810360008301526200077f818562000665565b9050620007906020830184620005b7565b9392505050565b60006020820190508181036000830152620007b281620006a6565b9050919050565b6000604051905081810181811067ffffffffffffffff82111715620007e357620007e26200092c565b5b8060405250919050565b600067ffffffffffffffff8211156200080b576200080a6200092c565b5b601f19601f8301169050602081019050919050565b6000819050602082019050919050565b600081519050919050565b600081519050919050565b6000602082019050919050565b600082825260208201905092915050565b600082825260208201905092915050565b6000620008828262000895565b9050919050565b60008115159050919050565b600073ffffffffffffffffffffffffffffffffffffffff82169050919050565b6000819050919050565b6000620008cc82620008d3565b9050919050565b6000620008e08262000895565b9050919050565b82818337600083830152505050565b60005b8381101562000916578082015181840152602081019050620008f9565b8381111562000926576000848401525b50505050565b7f4e487b7100000000000000000000000000000000000000000000000000000000600052604160045260246000fd5b6000601f19601f8301169050919050565b620009778162000875565b81146200098357600080fd5b50565b6200099181620008b5565b81146200099d57600080fd5b5056fe608060405234801561001057600080fd5b506040516200084638038062000846833981810160405281019061003491906101b8565b8160008001908051906020019061004c929190610098565b5080600060010160006101000a81548173ffffffffffffffffffffffffffffffffffffffff021916908373ffffffffffffffffffffffffffffffffffffffff1602179055505050610379565b8280546100a4906102d2565b90600052602060002090601f0160209004810192826100c6576000855561010d565b82601f106100df57805160ff191683800117855561010d565b8280016001018555821561010d579182015b8281111561010c5782518255916020019190600101906100f1565b5b50905061011a919061011e565b5090565b5b8082111561013757600081600090555060010161011f565b5090565b600061014e6101498461023d565b61020c565b90508281526020810184848401111561016657600080fd5b61017184828561029f565b509392505050565b60008151905061018881610362565b92915050565b600082601f83011261019f57600080fd5b81516101af84826020860161013b565b91505092915050565b600080604083850312156101cb57600080fd5b600083015167ffffffffffffffff8111156101e557600080fd5b6101f18582860161018e565b925050602061020285828601610179565b9150509250929050565b6000604051905081810181811067ffffffffffffffff8211171561023357610232610333565b5b8060405250919050565b600067ffffffffffffffff82111561025857610257610333565b5b601f19601f8301169050602081019050919050565b60006102788261027f565b9050919050565b600073ffffffffffffffffffffffffffffffffffffffff82169050919050565b60005b838110156102bd5780820151818401526020810190506102a2565b838111156102cc576000848401525b50505050565b600060028204905060018216806102ea57607f821691505b602082108114156102fe576102fd610304565b5b50919050565b7f4e487b7100000000000000000000000000000000000000000000000000000000600052602260045260246000fd5b7f4e487b7100000000000000000000000000000000000000000000000000000000600052604160045260246000fd5b61036b8161026d565b811461037657600080fd5b50565b6104bd80620003896000396000f3fe608060405234801561001057600080fd5b50600436106100365760003560e01c806343a6f4ee1461003b5780635d8d15851461005a575b600080fd5b610043610078565b604051610051929190610331565b60405180910390f35b610062610132565b60405161006f9190610361565b60405180910390f35b600080600001805461008990610415565b80601f01602080910402602001604051908101604052809291908181526020018280546100b590610415565b80156101025780601f106100d757610100808354040283529160200191610102565b820191906000526020600020905b8154815290600101906020018083116100e557829003601f168201915b5050505050908060010160009054906101000a900473ffffffffffffffffffffffffffffffffffffffff16905082565b61013a610234565b600060405180604001604052908160008201805461015790610415565b80601f016020809104026020016040519081016040528092919081815260200182805461018390610415565b80156101d05780601f106101a5576101008083540402835291602001916101d0565b820191906000526020600020905b8154815290600101906020018083116101b357829003601f168201915b505050505081526020016001820160009054906101000a900473ffffffffffffffffffffffffffffffffffffffff1673ffffffffffffffffffffffffffffffffffffffff1673ffffffffffffffffffffffffffffffffffffffff1681525050905090565b604051806040016040528060608152602001600073ffffffffffffffffffffffffffffffffffffffff1681525090565b61026d816103b0565b82525050565b61027c816103b0565b82525050565b600061028d82610383565b610297818561038e565b93506102a78185602086016103e2565b6102b081610476565b840191505092915050565b60006102c682610383565b6102d0818561039f565b93506102e08185602086016103e2565b6102e981610476565b840191505092915050565b600060408301600083015184820360008601526103118282610282565b91505060208301516103266020860182610264565b508091505092915050565b6000604082019050818103600083015261034b81856102bb565b905061035a6020830184610273565b9392505050565b6000602082019050818103600083015261037b81846102f4565b905092915050565b600081519050919050565b600082825260208201905092915050565b600082825260208201905092915050565b60006103bb826103c2565b9050919050565b600073ffffffffffffffffffffffffffffffffffffffff82169050919050565b60005b838110156104005780820151818401526020810190506103e5565b8381111561040f576000848401525b50505050565b6000600282049050600182168061042d57607f821691505b6020821081141561044157610440610447565b5b50919050565b7f4e487b7100000000000000000000000000000000000000000000000000000000600052602260045260246000fd5b6000601f19601f830116905091905056fea26469706673582212203bcc44c8a0f7e07c2e957214595cf6d0ea53309f68ad5ac819a1c60971be5e3b64736f6c63430008000033a2646970667358221220c503e5e09e272a32b7de700e209a6da1ec8d5f3b295d44c4b1d8d7b35362364764736f6c63430008000033",
  "immutableReferences": {},
  "source": "// SPDX-License-Identifier: MIT\r\npragma solidity ^0.8.0;\r\n\r\nimport \"./User.sol\";\r\n\r\n/**\r\n * @title User Factory\r\n * @dev Manages creation and retrieval of user contracts.\r\n */\r\ncontract UserFactory {\r\n    User[] public users;\r\n    mapping(address => bool) public registeredUsers;\r\n\r\n    event UserCreated(address userAddress);\r\n\r\n    function createUser(string memory ipfsURL) public {\r\n        require(!registeredUsers[msg.sender], \"User already registered.\");\r\n\r\n        User newUser = new User(ipfsURL, msg.sender);\r\n        users.push(newUser);\r\n        registeredUsers[msg.sender] = true;\r\n        emit UserCreated(address(newUser));\r\n    }\r\n\r\n    // function createUser(string memory ipfsURL, address add) public {\r\n    //     require(!registeredUsers[add], \"User already registered.\");\r\n\r\n    //     User newUser = new User(ipfsURL, add);\r\n    //     users.push(newUser);\r\n    //     registeredUsers[add] = true;\r\n    //     emit UserCreated(address(newUser));\r\n    // }\r\n\r\n    function getUsers() public view returns (User[] memory) {\r\n        return users;\r\n    }\r\n\r\n    function isUserRegistered(address _user) public view returns (bool) {\r\n        return registeredUsers[_user];\r\n    }\r\n}",
  "sourcePath": "E:\\vscodeproject\\Comp6452\\crowdfunding_dApp\\backend\\contracts\\UserFactory.sol",
  "compiler": {
    "name": "solc",
    "version": "0.8.0+commit.c7dfd78e.Emscripten.clang"
  },
  "schemaVersion": "3.4.16",
  "updatedAt": "2024-07-26T03:06:22.841Z",
  "devdoc": {
    "details": "Manages creation and retrieval of user contracts.",
    "kind": "dev",
    "methods": {},
    "title": "User Factory",
    "version": 1
  },
  "userdoc": {
    "kind": "user",
    "methods": {},
    "version": 1
  }
}