{
  "contractName": "UserFactory",
  "abi": [
    {
      "anonymous": false,
      "inputs": [
        {
          "indexed": false,
          "internalType": "address",
          "name": "userAddress",
          "type": "address"
        }
      ],
      "name": "UserCreated",
      "type": "event"
    },
    {
      "inputs": [
        {
          "internalType": "address",
          "name": "",
          "type": "address"
        }
      ],
      "name": "registeredUsers",
      "outputs": [
        {
          "internalType": "bool",
          "name": "",
          "type": "bool"
        }
      ],
      "stateMutability": "view",
      "type": "function",
      "constant": true
    },
    {
      "inputs": [
        {
          "internalType": "uint256",
          "name": "",
          "type": "uint256"
        }
      ],
      "name": "users",
      "outputs": [
        {
          "internalType": "contract User",
          "name": "",
          "type": "address"
        }
      ],
      "stateMutability": "view",
      "type": "function",
      "constant": true
    },
    {
      "inputs": [
        {
          "internalType": "string",
          "name": "ipfsURL",
          "type": "string"
        }
      ],
      "name": "createUser",
      "outputs": [],
      "stateMutability": "nonpayable",
      "type": "function"
    },
    {
      "inputs": [],
      "name": "getUsers",
      "outputs": [
        {
          "internalType": "contract User[]",
          "name": "",
          "type": "address[]"
        }
      ],
      "stateMutability": "view",
      "type": "function",
      "constant": true
    },
    {
      "inputs": [
        {
          "internalType": "address",
          "name": "_user",
          "type": "address"
        }
      ],
      "name": "isUserRegistered",
      "outputs": [
        {
          "internalType": "bool",
          "name": "",
          "type": "bool"
        }
      ],
      "stateMutability": "view",
      "type": "function",
      "constant": true
    }
  ],
  "bytecode": "0x608060405234801561000f575f80fd5b506114af8061001d5f395ff3fe608060405234801562000010575f80fd5b50600436106200005b575f3560e01c8062ce8e3e146200005f5780630e50cee51462000081578063163f752214620000b7578063365b98b214620000ed578063507ffba51462000123575b5f80fd5b6200006962000143565b6040516200007891906200057b565b60405180910390f35b6200009f6004803603810190620000999190620005f0565b620001cf565b604051620000ae91906200063c565b60405180910390f35b620000d56004803603810190620000cf9190620005f0565b620001ec565b604051620000e491906200063c565b60405180910390f35b6200010b60048036038101906200010591906200068f565b6200023e565b6040516200011a9190620006d0565b60405180910390f35b6200014160048036038101906200013b919062000843565b62000279565b005b60605f805480602002602001604051908101604052809291908181526020018280548015620001c557602002820191905f5260205f20905b815f9054906101000a900473ffffffffffffffffffffffffffffffffffffffff1673ffffffffffffffffffffffffffffffffffffffff16815260200190600101908083116200017b575b5050505050905090565b6001602052805f5260405f205f915054906101000a900460ff1681565b5f60015f8373ffffffffffffffffffffffffffffffffffffffff1673ffffffffffffffffffffffffffffffffffffffff1681526020019081526020015f205f9054906101000a900460ff169050919050565b5f81815481106200024d575f80fd5b905f5260205f20015f915054906101000a900473ffffffffffffffffffffffffffffffffffffffff1681565b60015f3373ffffffffffffffffffffffffffffffffffffffff1673ffffffffffffffffffffffffffffffffffffffff1681526020019081526020015f205f9054906101000a900460ff161562000306576040517f08c379a0000000000000000000000000000000000000000000000000000000008152600401620002fd90620008f0565b60405180910390fd5b5f8133604051620003179062000431565b6200032492919062000995565b604051809103905ff0801580156200033e573d5f803e3d5ffd5b5090505f81908060018154018082558091505060019003905f5260205f20015f9091909190916101000a81548173ffffffffffffffffffffffffffffffffffffffff021916908373ffffffffffffffffffffffffffffffffffffffff1602179055506001805f3373ffffffffffffffffffffffffffffffffffffffff1673ffffffffffffffffffffffffffffffffffffffff1681526020019081526020015f205f6101000a81548160ff0219169083151502179055507f0b0376a109cbb578b709f85f6a7befcdac3ac1ab251c99ede87f30c9572ac4d381604051620004259190620009c7565b60405180910390a15050565b610a9780620009e383390190565b5f81519050919050565b5f82825260208201905092915050565b5f819050602082019050919050565b5f73ffffffffffffffffffffffffffffffffffffffff82169050919050565b5f819050919050565b5f620004b0620004aa620004a48462000468565b62000487565b62000468565b9050919050565b5f620004c38262000490565b9050919050565b5f620004d682620004b7565b9050919050565b620004e881620004ca565b82525050565b5f620004fb8383620004dd565b60208301905092915050565b5f602082019050919050565b5f6200051f826200043f565b6200052b818562000449565b9350620005388362000459565b805f5b838110156200056e578151620005528882620004ee565b97506200055f8362000507565b9250506001810190506200053b565b5085935050505092915050565b5f6020820190508181035f83015262000595818462000513565b905092915050565b5f604051905090565b5f80fd5b5f80fd5b5f620005ba8262000468565b9050919050565b620005cc81620005ae565b8114620005d7575f80fd5b50565b5f81359050620005ea81620005c1565b92915050565b5f60208284031215620006085762000607620005a6565b5b5f6200061784828501620005da565b91505092915050565b5f8115159050919050565b620006368162000620565b82525050565b5f602082019050620006515f8301846200062b565b92915050565b5f819050919050565b6200066b8162000657565b811462000676575f80fd5b50565b5f81359050620006898162000660565b92915050565b5f60208284031215620006a757620006a6620005a6565b5b5f620006b68482850162000679565b91505092915050565b620006ca81620004ca565b82525050565b5f602082019050620006e55f830184620006bf565b92915050565b5f80fd5b5f80fd5b5f601f19601f8301169050919050565b7f4e487b71000000000000000000000000000000000000000000000000000000005f52604160045260245ffd5b6200073b82620006f3565b810181811067ffffffffffffffff821117156200075d576200075c62000703565b5b80604052505050565b5f620007716200059d565b90506200077f828262000730565b919050565b5f67ffffffffffffffff821115620007a157620007a062000703565b5b620007ac82620006f3565b9050602081019050919050565b828183375f83830152505050565b5f620007dd620007d78462000784565b62000766565b905082815260208101848484011115620007fc57620007fb620006ef565b5b62000809848285620007b9565b509392505050565b5f82601f830112620008285762000827620006eb565b5b81356200083a848260208601620007c7565b91505092915050565b5f602082840312156200085b576200085a620005a6565b5b5f82013567ffffffffffffffff8111156200087b576200087a620005aa565b5b620008898482850162000811565b91505092915050565b5f82825260208201905092915050565b7f5573657220616c726561647920726567697374657265642e00000000000000005f82015250565b5f620008d860188362000892565b9150620008e582620008a2565b602082019050919050565b5f6020820190508181035f8301526200090981620008ca565b9050919050565b5f81519050919050565b5f5b83811015620009395780820151818401526020810190506200091c565b5f8484015250505050565b5f620009508262000910565b6200095c818562000892565b93506200096e8185602086016200091a565b6200097981620006f3565b840191505092915050565b6200098f81620005ae565b82525050565b5f6040820190508181035f830152620009af818562000944565b9050620009c0602083018462000984565b9392505050565b5f602082019050620009dc5f83018462000984565b9291505056fe608060405234801562000010575f80fd5b5060405162000a9738038062000a97833981810160405281019062000036919062000279565b815f8001908162000048919062000514565b50805f6001015f6101000a81548173ffffffffffffffffffffffffffffffffffffffff021916908373ffffffffffffffffffffffffffffffffffffffff1602179055505050620005f8565b5f604051905090565b5f80fd5b5f80fd5b5f80fd5b5f80fd5b5f601f19601f8301169050919050565b7f4e487b71000000000000000000000000000000000000000000000000000000005f52604160045260245ffd5b620000f482620000ac565b810181811067ffffffffffffffff82111715620001165762000115620000bc565b5b80604052505050565b5f6200012a62000093565b9050620001388282620000e9565b919050565b5f67ffffffffffffffff8211156200015a5762000159620000bc565b5b6200016582620000ac565b9050602081019050919050565b5f5b838110156200019157808201518184015260208101905062000174565b5f8484015250505050565b5f620001b2620001ac846200013d565b6200011f565b905082815260208101848484011115620001d157620001d0620000a8565b5b620001de84828562000172565b509392505050565b5f82601f830112620001fd57620001fc620000a4565b5b81516200020f8482602086016200019c565b91505092915050565b5f73ffffffffffffffffffffffffffffffffffffffff82169050919050565b5f620002438262000218565b9050919050565b620002558162000237565b811462000260575f80fd5b50565b5f8151905062000273816200024a565b92915050565b5f80604083850312156200029257620002916200009c565b5b5f83015167ffffffffffffffff811115620002b257620002b1620000a0565b5b620002c085828601620001e6565b9250506020620002d38582860162000263565b9150509250929050565b5f81519050919050565b7f4e487b71000000000000000000000000000000000000000000000000000000005f52602260045260245ffd5b5f60028204905060018216806200032c57607f821691505b602082108103620003425762000341620002e7565b5b50919050565b5f819050815f5260205f209050919050565b5f6020601f8301049050919050565b5f82821b905092915050565b5f60088302620003a67fffffffffffffffffffffffffffffffffffffffffffffffffffffffffffffffff8262000369565b620003b2868362000369565b95508019841693508086168417925050509392505050565b5f819050919050565b5f819050919050565b5f620003fc620003f6620003f084620003ca565b620003d3565b620003ca565b9050919050565b5f819050919050565b6200041783620003dc565b6200042f620004268262000403565b84845462000375565b825550505050565b5f90565b6200044562000437565b620004528184846200040c565b505050565b5b8181101562000479576200046d5f826200043b565b60018101905062000458565b5050565b601f821115620004c857620004928162000348565b6200049d846200035a565b81016020851015620004ad578190505b620004c5620004bc856200035a565b83018262000457565b50505b505050565b5f82821c905092915050565b5f620004ea5f1984600802620004cd565b1980831691505092915050565b5f620005048383620004d9565b9150826002028217905092915050565b6200051f82620002dd565b67ffffffffffffffff8111156200053b576200053a620000bc565b5b62000547825462000314565b620005548282856200047d565b5f60209050601f8311600181146200058a575f841562000575578287015190505b620005818582620004f7565b865550620005f0565b601f1984166200059a8662000348565b5f5b82811015620005c3578489015182556001820191506020850194506020810190506200059c565b86831015620005e35784890151620005df601f891682620004d9565b8355505b6001600288020188555050505b505050505050565b61049180620006065f395ff3fe608060405234801561000f575f80fd5b5060043610610034575f3560e01c806343a6f4ee146100385780635d8d158514610057575b5f80fd5b610040610075565b60405161004e92919061031f565b60405180910390f35b61005f61012a565b60405161006c91906103de565b60405180910390f35b5f805f0180546100849061042b565b80601f01602080910402602001604051908101604052809291908181526020018280546100b09061042b565b80156100fb5780601f106100d2576101008083540402835291602001916100fb565b820191905f5260205f20905b8154815290600101906020018083116100de57829003601f168201915b505050505090806001015f9054906101000a900473ffffffffffffffffffffffffffffffffffffffff16905082565b610132610227565b5f6040518060400160405290815f8201805461014d9061042b565b80601f01602080910402602001604051908101604052809291908181526020018280546101799061042b565b80156101c45780601f1061019b576101008083540402835291602001916101c4565b820191905f5260205f20905b8154815290600101906020018083116101a757829003601f168201915b50505050508152602001600182015f9054906101000a900473ffffffffffffffffffffffffffffffffffffffff1673ffffffffffffffffffffffffffffffffffffffff1673ffffffffffffffffffffffffffffffffffffffff1681525050905090565b6040518060400160405280606081526020015f73ffffffffffffffffffffffffffffffffffffffff1681525090565b5f81519050919050565b5f82825260208201905092915050565b5f5b8381101561028d578082015181840152602081019050610272565b5f8484015250505050565b5f601f19601f8301169050919050565b5f6102b282610256565b6102bc8185610260565b93506102cc818560208601610270565b6102d581610298565b840191505092915050565b5f73ffffffffffffffffffffffffffffffffffffffff82169050919050565b5f610309826102e0565b9050919050565b610319816102ff565b82525050565b5f6040820190508181035f83015261033781856102a8565b90506103466020830184610310565b9392505050565b5f82825260208201905092915050565b5f61036782610256565b610371818561034d565b9350610381818560208601610270565b61038a81610298565b840191505092915050565b61039e816102ff565b82525050565b5f604083015f8301518482035f8601526103be828261035d565b91505060208301516103d36020860182610395565b508091505092915050565b5f6020820190508181035f8301526103f681846103a4565b905092915050565b7f4e487b71000000000000000000000000000000000000000000000000000000005f52602260045260245ffd5b5f600282049050600182168061044257607f821691505b602082108103610455576104546103fe565b5b5091905056fea2646970667358221220ea9fb4a241a2ca65d39203e9157138c7ea69455b41d50bcf403ef85168991d7a64736f6c63430008150033a26469706673582212206a0cadd86afd60379b8a1bcfdbdd51c2ba458e6942a9f003d612bacfe0198a4364736f6c63430008150033",
  "immutableReferences": {},
  "source": "// SPDX-License-Identifier: MIT\r\npragma solidity ^0.8.0;\r\n\r\nimport \"./User.sol\";\r\n\r\n/**\r\n * @title User Factory\r\n * @dev Manages creation and retrieval of user contracts.\r\n */\r\ncontract UserFactory {\r\n    User[] public users;\r\n    mapping(address => bool) public registeredUsers;\r\n\r\n    event UserCreated(address userAddress);\r\n\r\n    function createUser(string memory ipfsURL) public {\r\n        require(!registeredUsers[msg.sender], \"User already registered.\");\r\n\r\n        User newUser = new User(ipfsURL, msg.sender);\r\n        users.push(newUser);\r\n        registeredUsers[msg.sender] = true;\r\n        emit UserCreated(address(newUser));\r\n    }\r\n\r\n    // function createUser(string memory ipfsURL, address add) public {\r\n    //     require(!registeredUsers[add], \"User already registered.\");\r\n\r\n    //     User newUser = new User(ipfsURL, add);\r\n    //     users.push(newUser);\r\n    //     registeredUsers[add] = true;\r\n    //     emit UserCreated(address(newUser));\r\n    // }\r\n\r\n    function getUsers() public view returns (User[] memory) {\r\n        return users;\r\n    }\r\n\r\n    function isUserRegistered(address _user) public view returns (bool) {\r\n        return registeredUsers[_user];\r\n    }\r\n}",
  "sourcePath": "C:\\Users\\y509100\\OneDrive - Software AG\\Desktop\\unsw\\blockchain application\\pro2\\crowdfunding_dApp\\backend\\contracts\\UserFactory.sol",
  "compiler": {
    "name": "solc",
    "version": "0.8.21+commit.d9974bed.Emscripten.clang"
  },
  "schemaVersion": "3.4.16",
  "updatedAt": "2024-07-31T02:12:20.988Z",
  "networkType": "ethereum",
  "devdoc": {
    "details": "Manages creation and retrieval of user contracts.",
    "kind": "dev",
    "methods": {},
    "title": "User Factory",
    "version": 1
  },
  "userdoc": {
    "kind": "user",
    "methods": {},
    "version": 1
  }
}