{
  "contractName": "User",
  "abi": [
    {
      "inputs": [
        {
          "internalType": "string",
          "name": "_name",
          "type": "string"
        },
        {
          "internalType": "uint256",
          "name": "_age",
          "type": "uint256"
        },
        {
          "internalType": "address",
          "name": "_userAddress",
          "type": "address"
        }
      ],
      "stateMutability": "nonpayable",
      "type": "constructor"
    },
    {
      "inputs": [],
      "name": "userInfo",
      "outputs": [
        {
          "internalType": "string",
          "name": "name",
          "type": "string"
        },
        {
          "internalType": "uint256",
          "name": "age",
          "type": "uint256"
        },
        {
          "internalType": "address",
          "name": "userAddress",
          "type": "address"
        }
      ],
      "stateMutability": "view",
      "type": "function"
    },
    {
      "inputs": [],
      "name": "getUserInfo",
      "outputs": [
        {
          "components": [
            {
              "internalType": "string",
              "name": "name",
              "type": "string"
            },
            {
              "internalType": "uint256",
              "name": "age",
              "type": "uint256"
            },
            {
              "internalType": "address",
              "name": "userAddress",
              "type": "address"
            }
          ],
          "internalType": "struct User.UserInfo",
          "name": "",
          "type": "tuple"
        }
      ],
      "stateMutability": "view",
      "type": "function"
    }
  ],
  "bytecode": "0x608060405234801562000010575f80fd5b5060405162000b4338038062000b438339818101604052810190620000369190620002bb565b825f8001908162000048919062000561565b50815f60010181905550805f6002015f6101000a81548173ffffffffffffffffffffffffffffffffffffffff021916908373ffffffffffffffffffffffffffffffffffffffff16021790555050505062000645565b5f604051905090565b5f80fd5b5f80fd5b5f80fd5b5f80fd5b5f601f19601f8301169050919050565b7f4e487b71000000000000000000000000000000000000000000000000000000005f52604160045260245ffd5b620000fe82620000b6565b810181811067ffffffffffffffff8211171562000120576200011f620000c6565b5b80604052505050565b5f620001346200009d565b9050620001428282620000f3565b919050565b5f67ffffffffffffffff821115620001645762000163620000c6565b5b6200016f82620000b6565b9050602081019050919050565b5f5b838110156200019b5780820151818401526020810190506200017e565b5f8484015250505050565b5f620001bc620001b68462000147565b62000129565b905082815260208101848484011115620001db57620001da620000b2565b5b620001e88482856200017c565b509392505050565b5f82601f830112620002075762000206620000ae565b5b815162000219848260208601620001a6565b91505092915050565b5f819050919050565b620002368162000222565b811462000241575f80fd5b50565b5f8151905062000254816200022b565b92915050565b5f73ffffffffffffffffffffffffffffffffffffffff82169050919050565b5f62000285826200025a565b9050919050565b620002978162000279565b8114620002a2575f80fd5b50565b5f81519050620002b5816200028c565b92915050565b5f805f60608486031215620002d557620002d4620000a6565b5b5f84015167ffffffffffffffff811115620002f557620002f4620000aa565b5b6200030386828701620001f0565b9350506020620003168682870162000244565b92505060406200032986828701620002a5565b9150509250925092565b5f81519050919050565b7f4e487b71000000000000000000000000000000000000000000000000000000005f52602260045260245ffd5b5f60028204905060018216806200038257607f821691505b6020821081036200039857620003976200033d565b5b50919050565b5f819050815f5260205f209050919050565b5f6020601f8301049050919050565b5f82821b905092915050565b5f60088302620003fc7fffffffffffffffffffffffffffffffffffffffffffffffffffffffffffffffff82620003bf565b620004088683620003bf565b95508019841693508086168417925050509392505050565b5f819050919050565b5f62000449620004436200043d8462000222565b62000420565b62000222565b9050919050565b5f819050919050565b620004648362000429565b6200047c620004738262000450565b848454620003cb565b825550505050565b5f90565b6200049262000484565b6200049f81848462000459565b505050565b5b81811015620004c657620004ba5f8262000488565b600181019050620004a5565b5050565b601f8211156200051557620004df816200039e565b620004ea84620003b0565b81016020851015620004fa578190505b620005126200050985620003b0565b830182620004a4565b50505b505050565b5f82821c905092915050565b5f620005375f19846008026200051a565b1980831691505092915050565b5f62000551838362000526565b9150826002028217905092915050565b6200056c8262000333565b67ffffffffffffffff811115620005885762000587620000c6565b5b6200059482546200036a565b620005a1828285620004ca565b5f60209050601f831160018114620005d7575f8415620005c2578287015190505b620005ce858262000544565b8655506200063d565b601f198416620005e7866200039e565b5f5b828110156200061057848901518255600182019150602085019450602081019050620005e9565b868310156200063057848901516200062c601f89168262000526565b8355505b6001600288020188555050505b505050505050565b6104f080620006535f395ff3fe608060405234801561000f575f80fd5b5060043610610034575f3560e01c806343a6f4ee146100385780635d8d158514610058575b5f80fd5b610040610076565b60405161004f9392919061034e565b60405180910390f35b610060610131565b60405161006d919061043d565b60405180910390f35b5f805f0180546100859061048a565b80601f01602080910402602001604051908101604052809291908181526020018280546100b19061048a565b80156100fc5780601f106100d3576101008083540402835291602001916100fc565b820191905f5260205f20905b8154815290600101906020018083116100df57829003601f168201915b505050505090806001015490806002015f9054906101000a900473ffffffffffffffffffffffffffffffffffffffff16905083565b610139610238565b5f6040518060600160405290815f820180546101549061048a565b80601f01602080910402602001604051908101604052809291908181526020018280546101809061048a565b80156101cb5780601f106101a2576101008083540402835291602001916101cb565b820191905f5260205f20905b8154815290600101906020018083116101ae57829003601f168201915b5050505050815260200160018201548152602001600282015f9054906101000a900473ffffffffffffffffffffffffffffffffffffffff1673ffffffffffffffffffffffffffffffffffffffff1673ffffffffffffffffffffffffffffffffffffffff1681525050905090565b6040518060600160405280606081526020015f81526020015f73ffffffffffffffffffffffffffffffffffffffff1681525090565b5f81519050919050565b5f82825260208201905092915050565b5f5b838110156102a4578082015181840152602081019050610289565b5f8484015250505050565b5f601f19601f8301169050919050565b5f6102c98261026d565b6102d38185610277565b93506102e3818560208601610287565b6102ec816102af565b840191505092915050565b5f819050919050565b610309816102f7565b82525050565b5f73ffffffffffffffffffffffffffffffffffffffff82169050919050565b5f6103388261030f565b9050919050565b6103488161032e565b82525050565b5f6060820190508181035f83015261036681866102bf565b90506103756020830185610300565b610382604083018461033f565b949350505050565b5f82825260208201905092915050565b5f6103a48261026d565b6103ae818561038a565b93506103be818560208601610287565b6103c7816102af565b840191505092915050565b6103db816102f7565b82525050565b6103ea8161032e565b82525050565b5f606083015f8301518482035f86015261040a828261039a565b915050602083015161041f60208601826103d2565b50604083015161043260408601826103e1565b508091505092915050565b5f6020820190508181035f83015261045581846103f0565b905092915050565b7f4e487b71000000000000000000000000000000000000000000000000000000005f52602260045260245ffd5b5f60028204905060018216806104a157607f821691505b6020821081036104b4576104b361045d565b5b5091905056fea26469706673582212200658708d3633eb80e3645891f4adb75358b72a8c5d8c8b2cc0606236a851a28464736f6c63430008150033",
  "immutableReferences": {},
  "source": "// SPDX-License-Identifier: MIT\r\npragma solidity ^0.8.0;\r\n\r\n/**\r\n * @title User Contract\r\n * @dev Stores data and manages actions for a single user.\r\n */\r\ncontract User {\r\n    struct UserInfo {\r\n        string name;\r\n        uint age;\r\n        address userAddress;\r\n    }\r\n\r\n    UserInfo public userInfo;\r\n\r\n    constructor(string memory _name, uint _age, address _userAddress) {\r\n        userInfo.name = _name;\r\n        userInfo.age = _age;\r\n        userInfo.userAddress = _userAddress;\r\n    }\r\n\r\n    function getUserInfo() public view returns (UserInfo memory) {\r\n        return userInfo;\r\n    }\r\n}\r\n",
  "sourcePath": "C:\\Users\\y509100\\OneDrive - Software AG\\Desktop\\unsw\\blockchain application\\pro2\\crowdfunding_dApp\\backend\\contracts\\User.sol",
  "compiler": {
    "name": "solc",
    "version": "0.8.21+commit.d9974bed.Emscripten.clang"
  },
  "schemaVersion": "3.4.16",
  "updatedAt": "2024-07-14T13:41:02.200Z",
  "devdoc": {
    "details": "Stores data and manages actions for a single user.",
    "kind": "dev",
    "methods": {},
    "title": "User Contract",
    "version": 1
  },
  "userdoc": {
    "kind": "user",
    "methods": {},
    "version": 1
  }
}