{
  "contractName": "UserFactory",
  "abi": [
    {
      "anonymous": false,
      "inputs": [
        {
          "indexed": false,
          "internalType": "address",
          "name": "userAddress",
          "type": "address"
        }
      ],
      "name": "UserCreated",
      "type": "event"
    },
    {
      "inputs": [
        {
          "internalType": "address",
          "name": "",
          "type": "address"
        }
      ],
      "name": "registeredUsers",
      "outputs": [
        {
          "internalType": "bool",
          "name": "",
          "type": "bool"
        }
      ],
      "stateMutability": "view",
      "type": "function",
      "constant": true
    },
    {
      "inputs": [
        {
          "internalType": "uint256",
          "name": "",
          "type": "uint256"
        }
      ],
      "name": "users",
      "outputs": [
        {
          "internalType": "contract User",
          "name": "",
          "type": "address"
        }
      ],
      "stateMutability": "view",
      "type": "function",
      "constant": true
    },
    {
      "inputs": [
        {
          "internalType": "string",
          "name": "_name",
          "type": "string"
        },
        {
          "internalType": "uint256",
          "name": "_age",
          "type": "uint256"
        }
      ],
      "name": "createUser",
      "outputs": [],
      "stateMutability": "nonpayable",
      "type": "function"
    },
    {
      "inputs": [],
      "name": "getUsers",
      "outputs": [
        {
          "internalType": "contract User[]",
          "name": "",
          "type": "address[]"
        }
      ],
      "stateMutability": "view",
      "type": "function",
      "constant": true
    },
    {
      "inputs": [
        {
          "internalType": "address",
          "name": "_user",
          "type": "address"
        }
      ],
      "name": "isUserRegistered",
      "outputs": [
        {
          "internalType": "bool",
          "name": "",
          "type": "bool"
        }
      ],
      "stateMutability": "view",
      "type": "function",
      "constant": true
    }
  ],
  "bytecode": "0x608060405234801561000f575f80fd5b506115948061001d5f395ff3fe608060405234801562000010575f80fd5b50600436106200005b575f3560e01c8062ce8e3e146200005f5780630e50cee51462000081578063121ef24314620000b7578063163f752214620000d7578063365b98b2146200010d575b5f80fd5b6200006962000143565b6040516200007891906200057e565b60405180910390f35b6200009f6004803603810190620000999190620005f3565b620001cf565b604051620000ae91906200063f565b60405180910390f35b620000d56004803603810190620000cf9190620007ea565b620001ec565b005b620000f56004803603810190620000ef9190620005f3565b620003a7565b6040516200010491906200063f565b60405180910390f35b6200012b60048036038101906200012591906200084e565b620003f9565b6040516200013a91906200088f565b60405180910390f35b60605f805480602002602001604051908101604052809291908181526020018280548015620001c557602002820191905f5260205f20905b815f9054906101000a900473ffffffffffffffffffffffffffffffffffffffff1673ffffffffffffffffffffffffffffffffffffffff16815260200190600101908083116200017b575b5050505050905090565b6001602052805f5260405f205f915054906101000a900460ff1681565b60015f3373ffffffffffffffffffffffffffffffffffffffff1673ffffffffffffffffffffffffffffffffffffffff1681526020019081526020015f205f9054906101000a900460ff161562000279576040517f08c379a0000000000000000000000000000000000000000000000000000000008152600401620002709062000908565b60405180910390fd5b5f8282336040516200028b9062000434565b6200029993929190620009be565b604051809103905ff080158015620002b3573d5f803e3d5ffd5b5090505f81908060018154018082558091505060019003905f5260205f20015f9091909190916101000a81548173ffffffffffffffffffffffffffffffffffffffff021916908373ffffffffffffffffffffffffffffffffffffffff1602179055506001805f3373ffffffffffffffffffffffffffffffffffffffff1673ffffffffffffffffffffffffffffffffffffffff1681526020019081526020015f205f6101000a81548160ff0219169083151502179055507f0b0376a109cbb578b709f85f6a7befcdac3ac1ab251c99ede87f30c9572ac4d3816040516200039a919062000a00565b60405180910390a1505050565b5f60015f8373ffffffffffffffffffffffffffffffffffffffff1673ffffffffffffffffffffffffffffffffffffffff1681526020019081526020015f205f9054906101000a900460ff169050919050565b5f818154811062000408575f80fd5b905f5260205f20015f915054906101000a900473ffffffffffffffffffffffffffffffffffffffff1681565b610b438062000a1c83390190565b5f81519050919050565b5f82825260208201905092915050565b5f819050602082019050919050565b5f73ffffffffffffffffffffffffffffffffffffffff82169050919050565b5f819050919050565b5f620004b3620004ad620004a7846200046b565b6200048a565b6200046b565b9050919050565b5f620004c68262000493565b9050919050565b5f620004d982620004ba565b9050919050565b620004eb81620004cd565b82525050565b5f620004fe8383620004e0565b60208301905092915050565b5f602082019050919050565b5f620005228262000442565b6200052e81856200044c565b93506200053b836200045c565b805f5b8381101562000571578151620005558882620004f1565b975062000562836200050a565b9250506001810190506200053e565b5085935050505092915050565b5f6020820190508181035f83015262000598818462000516565b905092915050565b5f604051905090565b5f80fd5b5f80fd5b5f620005bd826200046b565b9050919050565b620005cf81620005b1565b8114620005da575f80fd5b50565b5f81359050620005ed81620005c4565b92915050565b5f602082840312156200060b576200060a620005a9565b5b5f6200061a84828501620005dd565b91505092915050565b5f8115159050919050565b620006398162000623565b82525050565b5f602082019050620006545f8301846200062e565b92915050565b5f80fd5b5f80fd5b5f601f19601f8301169050919050565b7f4e487b71000000000000000000000000000000000000000000000000000000005f52604160045260245ffd5b620006aa8262000662565b810181811067ffffffffffffffff82111715620006cc57620006cb62000672565b5b80604052505050565b5f620006e0620005a0565b9050620006ee82826200069f565b919050565b5f67ffffffffffffffff82111562000710576200070f62000672565b5b6200071b8262000662565b9050602081019050919050565b828183375f83830152505050565b5f6200074c6200074684620006f3565b620006d5565b9050828152602081018484840111156200076b576200076a6200065e565b5b6200077884828562000728565b509392505050565b5f82601f8301126200079757620007966200065a565b5b8135620007a984826020860162000736565b91505092915050565b5f819050919050565b620007c681620007b2565b8114620007d1575f80fd5b50565b5f81359050620007e481620007bb565b92915050565b5f8060408385031215620008035762000802620005a9565b5b5f83013567ffffffffffffffff811115620008235762000822620005ad565b5b620008318582860162000780565b92505060206200084485828601620007d4565b9150509250929050565b5f60208284031215620008665762000865620005a9565b5b5f6200087584828501620007d4565b91505092915050565b6200088981620004cd565b82525050565b5f602082019050620008a45f8301846200087e565b92915050565b5f82825260208201905092915050565b7f5573657220616c726561647920726567697374657265642e00000000000000005f82015250565b5f620008f0601883620008aa565b9150620008fd82620008ba565b602082019050919050565b5f6020820190508181035f8301526200092181620008e2565b9050919050565b5f81519050919050565b5f5b838110156200095157808201518184015260208101905062000934565b5f8484015250505050565b5f620009688262000928565b620009748185620008aa565b93506200098681856020860162000932565b620009918162000662565b840191505092915050565b620009a781620007b2565b82525050565b620009b881620005b1565b82525050565b5f6060820190508181035f830152620009d881866200095c565b9050620009e960208301856200099c565b620009f86040830184620009ad565b949350505050565b5f60208201905062000a155f830184620009ad565b9291505056fe608060405234801562000010575f80fd5b5060405162000b4338038062000b438339818101604052810190620000369190620002bb565b825f8001908162000048919062000561565b50815f60010181905550805f6002015f6101000a81548173ffffffffffffffffffffffffffffffffffffffff021916908373ffffffffffffffffffffffffffffffffffffffff16021790555050505062000645565b5f604051905090565b5f80fd5b5f80fd5b5f80fd5b5f80fd5b5f601f19601f8301169050919050565b7f4e487b71000000000000000000000000000000000000000000000000000000005f52604160045260245ffd5b620000fe82620000b6565b810181811067ffffffffffffffff8211171562000120576200011f620000c6565b5b80604052505050565b5f620001346200009d565b9050620001428282620000f3565b919050565b5f67ffffffffffffffff821115620001645762000163620000c6565b5b6200016f82620000b6565b9050602081019050919050565b5f5b838110156200019b5780820151818401526020810190506200017e565b5f8484015250505050565b5f620001bc620001b68462000147565b62000129565b905082815260208101848484011115620001db57620001da620000b2565b5b620001e88482856200017c565b509392505050565b5f82601f830112620002075762000206620000ae565b5b815162000219848260208601620001a6565b91505092915050565b5f819050919050565b620002368162000222565b811462000241575f80fd5b50565b5f8151905062000254816200022b565b92915050565b5f73ffffffffffffffffffffffffffffffffffffffff82169050919050565b5f62000285826200025a565b9050919050565b620002978162000279565b8114620002a2575f80fd5b50565b5f81519050620002b5816200028c565b92915050565b5f805f60608486031215620002d557620002d4620000a6565b5b5f84015167ffffffffffffffff811115620002f557620002f4620000aa565b5b6200030386828701620001f0565b9350506020620003168682870162000244565b92505060406200032986828701620002a5565b9150509250925092565b5f81519050919050565b7f4e487b71000000000000000000000000000000000000000000000000000000005f52602260045260245ffd5b5f60028204905060018216806200038257607f821691505b6020821081036200039857620003976200033d565b5b50919050565b5f819050815f5260205f209050919050565b5f6020601f8301049050919050565b5f82821b905092915050565b5f60088302620003fc7fffffffffffffffffffffffffffffffffffffffffffffffffffffffffffffffff82620003bf565b620004088683620003bf565b95508019841693508086168417925050509392505050565b5f819050919050565b5f62000449620004436200043d8462000222565b62000420565b62000222565b9050919050565b5f819050919050565b620004648362000429565b6200047c620004738262000450565b848454620003cb565b825550505050565b5f90565b6200049262000484565b6200049f81848462000459565b505050565b5b81811015620004c657620004ba5f8262000488565b600181019050620004a5565b5050565b601f8211156200051557620004df816200039e565b620004ea84620003b0565b81016020851015620004fa578190505b620005126200050985620003b0565b830182620004a4565b50505b505050565b5f82821c905092915050565b5f620005375f19846008026200051a565b1980831691505092915050565b5f62000551838362000526565b9150826002028217905092915050565b6200056c8262000333565b67ffffffffffffffff811115620005885762000587620000c6565b5b6200059482546200036a565b620005a1828285620004ca565b5f60209050601f831160018114620005d7575f8415620005c2578287015190505b620005ce858262000544565b8655506200063d565b601f198416620005e7866200039e565b5f5b828110156200061057848901518255600182019150602085019450602081019050620005e9565b868310156200063057848901516200062c601f89168262000526565b8355505b6001600288020188555050505b505050505050565b6104f080620006535f395ff3fe608060405234801561000f575f80fd5b5060043610610034575f3560e01c806343a6f4ee146100385780635d8d158514610058575b5f80fd5b610040610076565b60405161004f9392919061034e565b60405180910390f35b610060610131565b60405161006d919061043d565b60405180910390f35b5f805f0180546100859061048a565b80601f01602080910402602001604051908101604052809291908181526020018280546100b19061048a565b80156100fc5780601f106100d3576101008083540402835291602001916100fc565b820191905f5260205f20905b8154815290600101906020018083116100df57829003601f168201915b505050505090806001015490806002015f9054906101000a900473ffffffffffffffffffffffffffffffffffffffff16905083565b610139610238565b5f6040518060600160405290815f820180546101549061048a565b80601f01602080910402602001604051908101604052809291908181526020018280546101809061048a565b80156101cb5780601f106101a2576101008083540402835291602001916101cb565b820191905f5260205f20905b8154815290600101906020018083116101ae57829003601f168201915b5050505050815260200160018201548152602001600282015f9054906101000a900473ffffffffffffffffffffffffffffffffffffffff1673ffffffffffffffffffffffffffffffffffffffff1673ffffffffffffffffffffffffffffffffffffffff1681525050905090565b6040518060600160405280606081526020015f81526020015f73ffffffffffffffffffffffffffffffffffffffff1681525090565b5f81519050919050565b5f82825260208201905092915050565b5f5b838110156102a4578082015181840152602081019050610289565b5f8484015250505050565b5f601f19601f8301169050919050565b5f6102c98261026d565b6102d38185610277565b93506102e3818560208601610287565b6102ec816102af565b840191505092915050565b5f819050919050565b610309816102f7565b82525050565b5f73ffffffffffffffffffffffffffffffffffffffff82169050919050565b5f6103388261030f565b9050919050565b6103488161032e565b82525050565b5f6060820190508181035f83015261036681866102bf565b90506103756020830185610300565b610382604083018461033f565b949350505050565b5f82825260208201905092915050565b5f6103a48261026d565b6103ae818561038a565b93506103be818560208601610287565b6103c7816102af565b840191505092915050565b6103db816102f7565b82525050565b6103ea8161032e565b82525050565b5f606083015f8301518482035f86015261040a828261039a565b915050602083015161041f60208601826103d2565b50604083015161043260408601826103e1565b508091505092915050565b5f6020820190508181035f83015261045581846103f0565b905092915050565b7f4e487b71000000000000000000000000000000000000000000000000000000005f52602260045260245ffd5b5f60028204905060018216806104a157607f821691505b6020821081036104b4576104b361045d565b5b5091905056fea26469706673582212200658708d3633eb80e3645891f4adb75358b72a8c5d8c8b2cc0606236a851a28464736f6c63430008150033a264697066735822122017f8e286d78b36ab2e042aec9c6f5329bd6de80fdc8ad44ffc751a5bea1ada8a64736f6c63430008150033",
  "immutableReferences": {},
  "source": "// SPDX-License-Identifier: MIT\r\npragma solidity ^0.8.0;\r\n\r\nimport \"./User.sol\";\r\n\r\n/**\r\n * @title User Factory\r\n * @dev Manages creation and retrieval of user contracts.\r\n */\r\ncontract UserFactory {\r\n    User[] public users;\r\n    mapping(address => bool) public registeredUsers;\r\n\r\n    event UserCreated(address userAddress);\r\n\r\n    function createUser(string memory _name, uint _age) public {\r\n        require(!registeredUsers[msg.sender], \"User already registered.\");\r\n\r\n        User newUser = new User(_name, _age, msg.sender);\r\n        users.push(newUser);\r\n        registeredUsers[msg.sender] = true;\r\n        emit UserCreated(address(newUser));\r\n    }\r\n\r\n    function getUsers() public view returns (User[] memory) {\r\n        return users;\r\n    }\r\n\r\n    function isUserRegistered(address _user) public view returns (bool) {\r\n        return registeredUsers[_user];\r\n    }\r\n}",
  "sourcePath": "C:\\Users\\y509100\\OneDrive - Software AG\\Desktop\\unsw\\blockchain application\\pro2\\crowdfunding_dApp\\backend\\contracts\\UserFactory.sol",
  "compiler": {
    "name": "solc",
    "version": "0.8.21+commit.d9974bed.Emscripten.clang"
  },
  "schemaVersion": "3.4.16",
  "updatedAt": "2024-07-14T13:10:01.517Z",
  "networkType": "ethereum",
  "devdoc": {
    "details": "Manages creation and retrieval of user contracts.",
    "kind": "dev",
    "methods": {},
    "title": "User Factory",
    "version": 1
  },
  "userdoc": {
    "kind": "user",
    "methods": {},
    "version": 1
  }
}